:020000040800F2
:10000000A008002089010008ED0B0008D70A0008AD
:10001000E90B000845060008A91B000800000000C5
:100020000000000000000000000000003D13000878
:10003000E907000800000000890F000829140008E3
:10004000A3010008A3010008A3010008A301000800
:10005000A3010008A3010008A30100082508000867
:10006000A3010008A3010008A3010008A3010008E0
:10007000A3010008A3010008A3010008A3010008D0
:10008000A3010008A3010008A3010008A3010008C0
:10009000A3010008A3010008A30100086D080008DF
:1000A000A3010008A3010008A3010008A3010008A0
:1000B000A30100088D140008A3010008A301000893
:1000C000A3010008A3010008A3010008A301000880
:1000D000A30100081D180008A3010008A3010008DF
:1000E00009080008A3010008A301000800F002F8B5
:1000F00000F03AF80AA090E8000C82448344AAF188
:100100000107DA4501D100F02FF8AFF2090EBAE885
:100110000F0013F0010F18BFFB1A43F0010318473B
:10012000B81A0000D81A0000103A24BF78C878C165
:10013000FAD8520724BF30C830C144BF04680C60ED
:10014000704700000023002400250026103A28BF35
:1001500078C1FBD8520728BF30C148BF0B60704739
:100160001FB51FBD10B510BD00F031F81146FFF7E7
:10017000F7FF01F02AFD00F04FF803B4FFF7F2FF9C
:1001800003BC00F053F800000948804709480047C5
:10019000FEE7FEE7FEE7FEE7FEE7FEE7FEE7FEE737
:1001A000FEE7FEE704480549054A064B7047000094
:1001B0002D140008ED000008A0020020A008002077
:1001C000A0040020A00400207047704770477546C7
:1001D00000F028F8AE4605006946534620F00700B7
:1001E000854618B020B5FFF7DDFFBDE820404FF091
:1001F00000064FF000074FF000084FF0000B21F011
:100200000701AC46ACE8C009ACE8C009ACE8C009DD
:10021000ACE8C0098D4670470446AFF30080204625
:10022000FFF7ABFF004870473C020020014918204F
:10023000ABBEFEE7260002007047000008B50121B2
:10024000084600F0D9FE012140F2052000F004FF2D
:100250004FF4004000F0C4FEFF20ADF80000012084
:100260008DF8020000208DF803006946014800F077
:10027000A7FB08BD0008014010B5FFF7DFFF00F045
:1002800001F810BD00B591B0504800F0E9F95048B0
:1002900006905048079000200890092009900020FF
:1002A0000A9080200B9040000C9080000D90202040
:1002B0000E9000020F900020109006A9434800F015
:1002C00075FA0121414800F0BFF941484C3800F06F
:1002D00099F8012000F072F90020019001208DF8BA
:1002E00008008DF809004FF460200390002004906E
:1002F00009208DF8140001A935484C3800F0C4F8E5
:1003000006230122002132484C3800F0E5F806238C
:10031000022201212E484C3800F0DEF80623032289
:1003200002212B484C3800F0D7F807230422032180
:1003300027484C3800F0D0F8062305220421244831
:100340004C3800F0C9F806231A46052120484C38DD
:1003500000F0C2F80623072219461D484C3800F069
:10036000BBF806230822072119484C3800F0B4F8DE
:1003700007230922112116484C3800F0ADF801215D
:1003800013484C3800F033F8012111484C3800F084
:1003900023F80F484C3800F0FBF800BF0C484C38ED
:1003A00000F068F80028F9D109484C3800F000F94D
:1003B00000BF07484C3800F053F80028F9D101215C
:1003C00003484C3800F0E9F811B000BD08000240C5
:1003D0004C240140E801002021B1826842F0010272
:1003E000826003E0826822F001028260704721B1DE
:1003F000826842F48072826003E0826822F4807234
:100400008260704710B504461248844208D1012129
:10041000401500F031FE0021601500F02DFE17E0C0
:100420000D48844208D10121001500F025FE00216D
:10043000201500F021FE0BE00848844208D101217C
:10044000C80300F019FE00214FF4004000F014FE34
:1004500010BD00000024014000280140003C014084
:10046000014600208A6802F004020AB1012000E07F
:1004700000207047014600208A6802F008020AB195
:10048000012000E00020704730B502460020002324
:1004900050680F4C20400D790C6844EA0524204335
:1004A000506090680B4C2040D1E902542C434D79A8
:1004B00044EA450420439060D06A20F470000C7C2C
:1004C000641EE4B2234340EA0350D06230BD000012
:1004D000FFFEF0FFFDF7F1FFF0B504460D460020EA
:1004E0000021092D11DDE068A5F10A0606EB46079B
:1004F000072606FA07F18843A5F10A0606EB460629
:1005000003FA06F10843E0600CE0206905EB4507BB
:10051000072606FA07F1884305EB450603FA06F1BC
:1005200008432061072A0FDA606B561E06EB860728
:100530001F2606FA07F18843561E06EB860605FAC3
:1005400006F10843606322E00D2A0FDA206BD61F04
:1005500006EB86071F2606FA07F18843D61F06EB2F
:10056000860605FA06F10843206310E0E06AA2F16E
:100570000D0606EB86071F2606FA07F18843A2F14F
:100580000D0606EB860605FA06F10843E062F0BDAB
:10059000816841F008018160704721B1826842F4AE
:1005A000A002826003E0826822F4A00282607047A9
:1005B000816841F0040181607047000030B1074953
:1005C000096841F40001054A116005E00349096822
:1005D00021F40001014A1160704700000824014025
:1005E00010B500F0AFFA00F0D7FA00F077FA4FF448
:1005F000E13001F08DFA4FF4FA7001F0DDF800F00F
:1006000073FC08A000F0E0FCFFF736FE00F0AEFD42
:100610000121282000F060FB00F0EAFA01200849DF
:10062000087010BD0D0A20526167696E67466972D5
:10063000655F52432056322E322E32200D0A0000C2
:100640004A00002000BFFEE721B1026842F001022B
:10065000026004E002684FF6FE731A4002607047C1
:1006600001684FF6FE721140016000210160416097
:100670008160C1604B49884208D14A4908394968BC
:1006800041F00F01474A083A51608AE04549143168
:10069000884208D143490839496841F0F001414A8C
:1006A000083A51607DE03F492831884208D13D49F0
:1006B0000839496841F470613A4A083A516070E07B
:1006C00038493C31884208D136490839496841F4F3
:1006D0007041344A083A516063E0324950318842EF
:1006E00008D130490839496841F470212D4A083A47
:1006F000516056E02B496431884208D129490839B4
:10070000496841F47001274A083A516049E0254997
:100710007831884208D123490839496841F070612D
:10072000204A083A51603CE01F49884206D1011F27
:10073000096841F00F01021F116032E01A491431BB
:10074000884208D11849091F096841F0F001164A8A
:10075000121F116025E014492831884208D112493E
:10076000091F096841F470610F4A121F116018E0F7
:100770000D493C31884208D10B49091F096841F4F1
:100780007041094A121F11600BE00749503188423D
:1007900007D10549091F096841F47021024A121F57
:1007A00011607047080002400804024010B50022A2
:1007B000026847F6F0739A430C6A8B6823430C690E
:1007C00023434C6923438C692343CC6923434C6AFC
:1007D00023438C6A23431A430260CB6843600B684F
:1007E00083604B68C36010BD7047002109E00022A0
:1007F00001E0531C9AB242F2B8239A42F9DB4B1C37
:1008000099B28142F3DB704710B54FF4004000F01D
:1008100059F828B14FF4004000F04EF800F02AFAE1
:1008200010BD000010B5022000F04CF8B8B1022055
:1008300000F042F80A48006864380A4909688842AA
:100840000DD907480068074908600748007818B1C3
:1008500000200549087002E001200349087010BD1E
:1008600044000020040000201C00002010B54FF4BC
:10087000007000F027F8C0B14FF4007000F01CF8D1
:100880000A48006864380A49096888420DD907484F
:100890000068074908600748007818B1002005493A
:1008A000087002E001200349087010BD44000020D8
:1008B000080000201D00002001490860704700006A
:1008C00014040140014600200022074B1B6803EA84
:1008D0000102054B14331B680B4013B10AB1012010
:1008E00000E000207047000000040140002123497F
:1008F0008279002A3AD00A46126803689A430B4666
:100900001A600A1D126803689A430B1D1A60027967
:1009100011440A6803681A430A60184A08321268C8
:1009200003689A43154B08331A601A1D126803684E
:100930009A43124B0C331A604279102A0ED11A1FB7
:10094000126803681A430D4B08331A601A1D1268A7
:1009500003681A43094B0C331A600DE007494279CA
:1009600011440A6803681A430A6005E002791144D9
:100970000A6803689A430A60704700000004014057
:1009800030B500228B071C0F0F2303FA04F20B4B28
:100990008C1053F824309343084C8D1044F82530C4
:1009A00023468C1053F824308C07240F00FA04F4EB
:1009B0002343024C8D1044F8253030BD080001401F
:1009C0002DE9F041024600250026002000230024E6
:1009D000002791F803C00CF00F0591F803C00CF04C
:1009E000100CBCF1000F03D091F802C04CEA0505D1
:1009F00091F800C0BCF1000F31D0146800202BE04A
:100A00004FF0010C0CFA00F3B1F800C00CEA030639
:100A10009E4220D183004FF00F0C0CFA03F7BC4329
:100A200005FA03FC4CEA040491F803C0BCF1280F5A
:100A300006D14FF0010C0CFA00FCC2F814C00AE019
:100A400091F803C0BCF1480F05D14FF0010C0CFA2E
:100A500000FCC2F810C0401C0828D1D31460B1F8C3
:100A600000C0BCF1FF0F34DD546800202EE000F11F
:100A7000080C4FF0010808FA0CF3B1F800C00CEABA
:100A800003069E4221D183004FF00F0C0CFA03F7AE
:100A9000BC4305FA03FC4CEA040491F803C0BCF122
:100AA000280F05D100F1080C08FA0CF8C2F81480E0
:100AB00091F803C0BCF1480F07D100F1080C4FF0CA
:100AC000010808FA0CF8C2F81080401C0828CED3A0
:100AD0005460BDE8F08100BFFEE700000EB50121C3
:100AE000092000F0B9FA0220ADF8080048208DF87E
:100AF0000B0002A91248FFF763FF4FF40070ADF836
:100B0000080048208DF80B0002A90D48FFF758FF98
:100B100001210846FFF734FF09210120FFF730FFCC
:100B200040F20220009000208DF804000C208DF887
:100B3000050001208DF806006846FFF7D7FE0EBDC0
:100B4000000C014008B50121082000F085FA0320BF
:100B50008DF8020010208DF803000002ADF80000AF
:100B600003208DF8020010208DF803006946094823
:100B7000FFF726FF4FF40060ADF8000003208DF86A
:100B8000020010208DF8030069460248FFF718FFA5
:100B900008BD0000000C014010B5002415E04FF422
:100BA0008050104908604010091F08606420FFF75A
:100BB0001CFE4FF400600B4908604000091F0860EC
:100BC0006420FFF712FE601CC4B2032CE7DB4FF475
:100BD00080500449091F0860401008606420FFF736
:100BE00004FE10BD140C014000BFFEE7704700007A
:100BF0001CB505221049302000F0FEF80522694698
:100C0000102000F0C3F8002408E01DF804000A4991
:100C1000095D884200D003E0601CC4B2052CF4DBFF
:100C200000BF052C03D105A000F0CEF902E00AA018
:100C300000F0CAF91CBD0000620000200D0A204E21
:100C4000524632344C303120B3F5CABCBBAFB3C9C5
:100C5000B9A6A3A1000000000D0A204E524632346E
:100C60004C303120B3F5CABCBBAFCAA7B0DCA3A1DE
:100C70000000000070B5072000F0A8F8044604F05A
:100C8000400098B1602000F0A1F80546202D08D161
:100C90002A460F49612000F079F800200D490880AC
:100CA00003E0FF21E22000F0C7F800BF04F01000CD
:100CB00030B104F0010018B1FF21E12000F0BCF8D0
:100CC00000F054F82146272000F0B6F870BD00006F
:100CD000FA0100206C00002070B505460C464FF468
:100CE00080401F494861FF21E12000F0A5F8FF2165
:100CF000E22000F0A1F805221A49302000F07CF82B
:100D0000052219492A2000F077F80121212000F05E
:100D100093F80121222000F08FF81A21242000F0FE
:100D20008BF82946252000F087F82021312000F09B
:100D300083F80F21262000F07FF8012C04D10E212A
:100D4000202000F079F805E0022C03D10F212020AB
:100D500000F072F84FF480400149086170BD000056
:100D600000100140620000206700002010B54FF421
:100D70008040054948610F21202000F05DF84FF4C4
:100D800080400149086110BD001001402DE9F0418B
:100D900007460D4616464FF400500B494861384649
:100DA00000F0B0FA8046002405E0002000F0AAFA26
:100DB0002855601CC4B2B442F7DB4FF4005002491E
:100DC00008614046BDE8F0810010014070B504465E
:100DD0004FF4005007494861204600F093FA002084
:100DE00000F090FA05464FF4005002490861284689
:100DF00070BD0000001001402DE9F04107460D468E
:100E000016464FF400500B494861384600F07AFA14
:100E10008046002404E0285D00F074FA601CC4B22F
:100E2000B442F8DB4FF40050024908614046BDE887
:100E3000F08100000010014070B505460C464FF4EB
:100E4000005007494861284600F05CFA06462046F3
:100E500000F058FA4FF4005001490861304670BD67
:100E60000010014070B5002100230F22C47804B3A4
:100E7000154C246804F4E064C4F5E064210AC1F16F
:100E80000403CA40447804FA03F1847814402143EF
:100E900009010E4C0678A155047804F01F050124C1
:100EA000AC4005786D11AD0005F1E025C5F80041B5
:100EB00009E0047804F01F050124AC40044D0678D5
:100EC000761145F8264070BD0CED00E000E400E02E
:100ED00080E100E002490143024A116070470000CE
:100EE0000000FA050CED00E008B54FF4A060FFF734
:100EF000F1FF1D208DF8000000208DF80100012079
:100F00008DF802008DF803006846FFF7ABFF28203C
:100F10008DF8000001208DF8010000208DF80200FE
:100F200001208DF803006846FFF79CFF25208DF80F
:100F3000000002208DF8010000208DF80200012041
:100F40008DF803006846FFF78DFF07208DF800003D
:100F500003208DF8010000208DF8020001208DF89B
:100F600003006846FFF77EFF17208DF8000003207E
:100F70008DF8010000208DF8020001208DF803009B
:100F80006846FFF76FFF08BD7047000010B50446C4
:100F90000A4801780078401C084A107008484454F8
:100FA0000848008800F0800030B9012240F2277123
:100FB00004480C3800F014FD10BD00003D00002076
:100FC000840000200C38014070B505462C4603E033
:100FD0002078FFF7DBFF641C20780028F8D170BD73
:100FE00001460020034A506820F440400843506006
:100FF000704700000010024029B1064A52690243BE
:10100000044B5A6104E0034A52698243014B5A611E
:10101000704700000010024029B1064AD26902431D
:10102000044BDA6104E0034AD2698243014BDA617E
:10103000704700000010024029B1064A12690243BD
:10104000044B1A6104E0034A12698243014B1A619E
:10105000704700000010024029B1064A926902431D
:10106000044B9A6104E0034A92698243014B9A61FE
:10107000704700000010024029B1064AD2680243BE
:10108000044BDA6004E0034AD2688243014BDA6021
:10109000704700000010024030B5002100220024FB
:1010A00000232D4D6D6805F00C0121B1042905D0F8
:1010B000082923D105E0294D056022E0274D056070
:1010C0001FE0254D6D6805F47012234D6D6805F421
:1010D0008034022505EB92421CB9214D5543056031
:1010E0000BE01D4D6D6805F400351DB11C4D5543D9
:1010F000056002E0194D5543056002E0174D05609B
:1011000000BF00BF144D6D6805F0F0010909154DD1
:101110006B5C0568DD4045600F4D6D6805F4E0616E
:10112000090A104D6B5C4568DD4085600A4D6D68AD
:1011300005F46051C90A0B4D6B5C4568DD40C56024
:10114000054D6D6805F44041890B074D6B5CC56822
:10115000B5FBF3F5056130BD0010024000127A00C6
:1011600000093D006E0000207E00002000B589B01F
:1011700001211920FFF770FF01218803FFF74CFFC1
:101180004FF46040ADF80C0001208DF80E001820DF
:101190008DF80F0003A93548FFF712FC4FF480408B
:1011A000ADF80C0001208DF80E0010208DF80F0016
:1011B00003A92F48FFF704FC4FF40050ADF80C00D2
:1011C00001208DF80E0010208DF80F0003A928488B
:1011D000FFF7F6FB4FF40040ADF80C0003208DF84C
:1011E0000E0048208DF80F0003A92148FFF7E8FB07
:1011F0000F210220FFF7C4FB4FF4004001900020B4
:101200008DF808000C208DF8090001208DF80A00E7
:1012100001A8FFF76BFB4FF400501549086100204F
:10122000ADF810004FF48270ADF812000020ADF858
:101230001400ADF81600ADF818004815ADF81A0006
:101240001020ADF81C000020ADF81E000720ADF8FE
:10125000200004A9074800F037F80121054800F0F4
:1012600019F805A0FFF7B0FE09B000BD000C014061
:1012700000100140003800400D0A20535049322030
:1012800020202020B3F5CABCBBAFCDEAB3C9A3A1CF
:101290000000000021B1028842F04002028004E018
:1012A00002884FF6BF731A40028070470246002042
:1012B00013890B400BB1012000E00020704701466C
:1012C000888970478181704710B50022028802F436
:1012D00041520B884C8823438C882343CC8823437A
:1012E0000C8923434C8923438C892343CC89234392
:1012F0001A430280838B4FF2FF74234083830B8A4F
:10130000038210BD10B5044600BF02210A48FFF752
:10131000CDFF0028F9D021460748FFF7D3FF00BFD3
:1013200001210548FFF7C2FF0028F9D00248FFF766
:10133000C6FFC0B210BD000000380040704710B5B5
:1013400000F002F810BD00000CB5002001900090E4
:101350003348006840F480303149086000BF3048AD
:10136000006800F4003000900198401C0190009843
:1013700018B90198B0F5A06FF1D12948006800F4C0
:10138000003010B10120009001E000200090009892
:10139000012843D12348006840F01000214908602B
:1013A0000846006820F0030008600846006840F026
:1013B000020008601A4840681949486008464068B9
:1013C00048600846406840F48060486008464068CD
:1013D00020F47C1048600846406840F4E8104860FB
:1013E0000846006840F08070086000BF0C48006844
:1013F00000F000700028F9D00948406820F0030090
:10140000074948600846406840F00200486000BF55
:101410000348406800F00C000828F9D10CBD00001A
:1014200000100240002002407047000010B5134831
:10143000006840F001001149086008464068104902
:1014400008400E494860084600680E4908400B49AC
:1014500008600846006820F480200860084640685C
:1014600020F4FE0048604FF41F008860FFF767FF1C
:101470004FF000600449086010BD000000100240F9
:101480000000FFF8FFFFF6FE08ED00E013480088BB
:1014900000F0010000B34FF6FE70104908801048BC
:1014A000007800B970470F480068401C0D4908607B
:1014B0000D480078401C0C4908700C480078401C0E
:1014C0000A4908700A480078401C09490870094810
:1014D0000078401C0749087000BFE3E71004004093
:1014E0004A000020440000200000002001000020ED
:1014F0000200002003000020CA430282704721B18D
:10150000028842F00102028004E002884FF6FE7376
:101510001A4002807047000010B5044668488442B3
:1015200008D10121C014FFF7A7FD0021E014FFF747
:10153000A3FDC4E0B4F1804F08D101210846FFF7B4
:101540007BFD00210120FFF777FDB8E05D48844274
:1015500008D101210220FFF76FFD00210220FFF7D3
:101560006BFDACE05848844208D101210420FFF70C
:1015700063FD00210420FFF75FFDA0E05348844293
:1015800008D101210820FFF757FD00210820FFF7AF
:1015900053FD94E04E48844208D101211020FFF70A
:1015A0004BFD00211020FFF747FD88E049488442A9
:1015B00008D101212020FFF73FFD00212020FFF767
:1015C0003BFD7CE04448844208D101214014FFF7F0
:1015D00053FD00216014FFF74FFD70E03F48844247
:1015E00009D10121C804FFF747FD00214FF4002075
:1015F000FFF742FD63E03A48844209D10121080522
:10160000FFF73AFD00214FF48010FFF735FD56E05B
:101610003448844209D101214805FFF72DFD0021FE
:101620004FF40010FFF728FD49E02F48844208D10D
:1016300001214020FFF700FD00214020FFF7FCFCC6
:101640003DE02A48844208D101218020FFF7F4FCC4
:1016500000218020FFF7F0FC31E02548844208D1CA
:1016600001218015FFF7E8FC0021A015FFF7E4FC3D
:1016700025E02048844209D101210804FFF7FCFC41
:1016800000214FF48030FFF7F7FC18E01A4884423D
:1016900009D101214804FFF7EFFC00214FF400308D
:1016A000FFF7EAFC0BE01548844208D101218804C9
:1016B000FFF7E2FC00214FF48020FFF7DDFC10BDB6
:1016C000002C01400004004000080040000C0040D5
:1016D000001000400014004000340140004C014064
:1016E000005001400054014000180040001C004020
:1016F00000200040004001400044014000480140FB
:101700001AB183890B43838102E083898B438381F0
:1017100070470000002202881D4B98420ED01D4BDE
:1017200098420BD0B0F1804F08D01B4B984205D0A7
:101730001A4B984202D01A4B984204D14FF68F733D
:101740001A404B881A43174B984207D0164B9842C1
:1017500004D04FF6FF431A40CB881A4302808B888F
:1017600083850B8803850A4B98420BD0094B98421E
:1017700008D00E4B984205D00D4B984202D00D4B2D
:10178000984201D10B7A03860123838270470000BF
:10179000002C0140003401400004004000080040DB
:1017A000000C0040001000400014004000400140C8
:1017B00000440140004801403EB50446012102209A
:1017C000FFF72AFC124804801248FFF7A5FE1248D2
:1017D00090FBF4F080B2ADF804004720ADF80000B3
:1017E0000020ADF80600ADF8020069460948FFF791
:1017F00091FF01210748FFF77FFE012211460548AE
:10180000FFF77EFF01210348FFF779FE3EBD000090
:10181000480000200004004040420F0010B508219D
:10182000554800F0D0F810B1534800F06BF9524819
:10183000008800F04000F0B14F480C30008800F004
:101840008000C0B14D4801780078401C4B4A1070B0
:101850004B48405C4849091D0880104600784949BA
:101860000978884207D144480C30008820F0800075
:1018700041490C3108804048008800F020000028D1
:1018800079D03D49091D0988C8B23F49097871B925
:1018900024284DD13D49097801EBC10202EB011129
:1018A0003B4A02F811000121374A117040E03649E5
:1018B0000978012913D14D280DD13449097801EB5C
:1018C000C10202EB0111324A02EB410148700221D0
:1018D0002D4A11702CE000212B4A117028E02A4972
:1018E0000978022913D13C280DD12849097801EB48
:1018F000C10202EB0111264A02EB4101887003216B
:10190000214A117014E000211F4A117010E01F4994
:10191000097801EBC10202EB01111D4A02EB410102
:10192000194A1278885418490978491C164A1170C6
:101930001649097801EBC10202EB0111144A02EBCE
:101940004101C978891D104A1278914212D10021B3
:101950000D4A11700D49097839B100210B4A1170F7
:1019600001210C4A117005E005E00121074A1170C0
:10197000094A117000BF10BD003801403C00002032
:10198000840000203D000020400000204100002095
:10199000840100203F0000203E00002001F400727E
:1019A000B2F5007F00D100BFCA430280704721B169
:1019B000828942F40052828104E082894DF6FF73ED
:1019C0001A408281704702460020B1F5007F00D1A5
:1019D00000BF13880B400BB1012000E000207047CE
:1019E000F0B50346002400260025002040F66A17C3
:1019F000B94200D100BF1846C1F3421401F01F06DE
:101A0000012707FA06F5012C01D10C3004E0022C65
:101A100001D1103000E014301AB107682F4307607D
:101A200002E00768AF430760F0BD00002DE9F04712
:101A300086B005460E460024A24600BFA1460027F8
:101A4000B08900B100BF2F462C8A4CF6FF700440CD
:101A5000F08804432C82AC894EF6F3100440B08821
:101A600031890843718908430443AC81AC8A4FF63D
:101A7000FF400440B0890443AC8201A8FFF70CFB8F
:101A80001F48874202D1DDF810A001E0DDF80CA06C
:101A9000A88900F4004040B10AEBCA0000EB0A102C
:101AA00031684900B0FBF1F807E00AEBCA0000EB2F
:101AB0000A1031688900B0FBF1F86420B8FBF0F03F
:101AC00004012009642101FB1089A88900F4004069
:101AD00040B1322000EBC900B0FBF1F000F007008C
:101AE000044308E0322000EB09106421B0FBF1F060
:101AF00000F00F0004432C8106B0BDE8F087000021
:101B00000038014001468888C0F308007047000093
:101B100010B586B0044601210520FFF79DFA01218A
:101B20008803FFF799FA4FF40070ADF814001820FD
:101B30008DF8170003208DF8160005A91848FEF748
:101B40003FFF4FF48060ADF8140004208DF81700BB
:101B500003208DF8160005A91148FEF731FF019406
:101B60000020ADF80800ADF80A00ADF80C00ADF8A3
:101B700010000C20ADF80E0001A90A48FFF756FF2F
:101B8000012240F225510748FFF72AFF01210548AD
:101B9000FFF70DFF40210348FFF700FF06B010BD1F
:101BA000000801400038014000BFFEE7002109E0C5
:101BB000002201E0531C9AB242F2B8239A42F9DBA8
:101BC0004B1C99B28142F3DB7047FEF709FD02E03E
:101BD000C820FFF7EBFFFBE7F81B00080000002020
:101BE00084000000280100087C1C000884000020FC
:101BF0001C08000044010008000000000000000074
:101C000000000000010000000000000000000000D3
:101C100000000000000000000000000000000000C4
:101C200000000000000000000000000000000000B4
:101C300000000000000000000000000000000000A4
:101C4000000000000000000000000000009A019A5F
:101C5000029A039A049A059A069A1A3B5C7D9E1A88
:101C60003B5C7D9E000000000000010203040102B5
:0C1C70000304060708090204060800002F
:04000005080000ED02
:00000001FF
