:020000040800F2
:10000000B0040020450100084D0100084F01000820
:1000100051010008530100085501000800000000CC
:100020000000000000000000000000005701000870
:1000300059010008000000005B0100085D01000894
:100040005F0100085F0100085F0100085F01000810
:100050005F0100085F0100085F0100085F01000800
:100060005F0100085F0100085F0100085F010008F0
:100070005F0100085F0100085F0100085F010008E0
:100080005F0100085F0100085F0100085F010008D0
:100090005F0100085F0100085F0100085F010008C0
:1000A0005F0100085F0100085F0100085F010008B0
:1000B0005F0100085F0100085F0100085F010008A0
:1000C0005F0100085F0100085F0100085F01000890
:1000D0005F0100085F0100085F0100085F01000880
:1000E0005F0100085F0100085F0100085F01000870
:1000F0005F0100085F0100085F0100085F01000860
:100100005F0100085F0100085F0100085F0100084F
:100110005F0100085F0100085F0100085F0100083F
:100120005F0100085F0100085F0100085F0100082F
:10013000DFF80CD000F0D8F800480047AB100008FA
:10014000B00400200648804706480047FEE7FEE767
:10015000FEE7FEE7FEE7FEE7FEE7FEE7FEE7FEE777
:100160002D1000083101000880EA010210B502F0EC
:100170000043400022D04A001FD0010E01EB126163
:10018000C0F35600C2F3560240F4000042F40002ED
:10019000A0FB022000047F39140400D0401C50EA68
:1001A000124001D44000491EC2B20C0604EBD0102C
:1001B000401C4008802A02D003E0002010BD20F03F
:1001C0000100002900DA0020184310BD30B480EA95
:1001D000010202F0004530F0004221F0004013D04F
:1001E00090B1C30DD40DC2F31601C0F31600E41A8A
:1001F00041F4000140F400027D34914201D3641CBB
:1002000000E04900002C02DA30BC002070474FF4B7
:1002100000000023914201D3891A034340084FEAAA
:100220004101F7D151B1914202D14FF0004105E0B7
:1002300002D24FF0010101E06FF0010103EBC45065
:10024000284430BC00F019B896230022114600F073
:100250001DB820F00040C10DC0F3160040F40000AE
:100260007F2901DA00207047962903DCC1F196014D
:10027000C84070479639884070470029A8BF70472A
:10028000401C490008BF20F00100704710B4B0FACC
:1002900080FC00FA0CF050EA010404BF10BC704767
:1002A00049B1CCF1200421FA04F411FA0CF118BF81
:1002B000012121430843A3EB0C01CB1D4FEA006150
:1002C0004FEA102042BF002010BC704700EBC35023
:1002D00010440029A4BF10BC7047401C490008BF4F
:1002E00020F0010010BC7047064C074D06E0E068A6
:1002F00040F0010394E8070098471034AC42F6D36D
:10030000FFF71AFFB8100008D810000808B501213F
:10031000084600F04FFC012140F2052000F05AFC95
:100320004FF4004000F03AFCFF20ADF8000001203F
:100330008DF8020000208DF803006946014800F0A6
:100340006BFB08BD0008014010B5FFF7DFFF00F0B0
:1003500001F810BD00B591B0504800F0BBF950480D
:10036000069050480790002008900920099000202E
:100370000A9080200B9040000C9080000D9020206F
:100380000E9000020F900020109006A9434800F044
:1003900047FA0121414800F091F941484C3800F0FA
:1003A00099F8012000F072F90020019001208DF8E9
:1003B00008008DF809004FF460200390002004909D
:1003C00009208DF8140001A935484C3800F0C4F814
:1003D00006230122002132484C3800F0E5F80623BC
:1003E000022201212E484C3800F0DEF806230322B9
:1003F00002212B484C3800F0D7F8072304220321B0
:1004000027484C3800F0D0F8062305220421244860
:100410004C3800F0C9F806231A46052120484C380C
:1004200000F0C2F80623072219461D484C3800F098
:10043000BBF806230822072119484C3800F0B4F80D
:1004400007230922112116484C3800F0ADF801218C
:1004500013484C3800F033F8012111484C3800F0B3
:1004600023F80F484C3800F0FBF800BF0C484C381C
:1004700000F068F80028F9D109484C3800F000F97C
:1004800000BF07484C3800F053F80028F9D101218B
:1004900003484C3800F0E9F811B000BD08000240F4
:1004A0004C2401403800002021B1826842F0010252
:1004B000826003E0826822F001028260704721B10D
:1004C000826842F48072826003E0826822F4807263
:1004D0008260704710B504461248844208D1012159
:1004E000401500F087FB0021601500F083FB17E04A
:1004F0000D48844208D10121001500F07BFB00214A
:10050000201500F077FB0BE00848844208D1012158
:10051000C80300F06FFB00214FF4004000F06AFBBD
:1005200010BD00000024014000280140003C0140B3
:10053000014600208A6802F004020AB1012000E0AE
:1005400000207047014600208A6802F008020AB1C4
:10055000012000E00020704730B502460020002353
:1005600050680F4C20400D790C6844EA0524204364
:10057000506090680B4C2040D1E902542C434D79D7
:1005800044EA450420439060D06A20F470000C7C5B
:10059000641EE4B2234340EA0350D06230BD000041
:1005A000FFFEF0FFFDF7F1FFF0B504460D46002019
:1005B0000021092D11DDE068A5F10A0606EB4607CA
:1005C000072606FA07F18843A5F10A0606EB460658
:1005D00003FA06F10843E0600CE0206905EB4507EB
:1005E000072606FA07F1884305EB450603FA06F1EC
:1005F00008432061072A0FDA606B561E06EB860758
:100600001F2606FA07F18843561E06EB860605FAF2
:1006100006F10843606322E00D2A0FDA206BD61F33
:1006200006EB86071F2606FA07F18843D61F06EB5E
:10063000860605FA06F10843206310E0E06AA2F19D
:100640000D0606EB86071F2606FA07F18843A2F17E
:100650000D0606EB860605FA06F10843E062F0BDDA
:10066000816841F008018160704721B1826842F4DD
:10067000A002826003E0826822F4A00282607047D8
:10068000816841F0040181607047000030B1074982
:10069000096841F40001054A116005E00349096851
:1006A00021F40001014A1160704700000824014054
:1006B00010B500F041FAFFF747FE10BD21B1026806
:1006C00042F00102026004E002684FF6FE731A4035
:1006D0000260704701684FF6FE7211400160002110
:1006E000016041608160C1604B49884208D14A493C
:1006F0000839496841F00F01474A083A51608AE0D9
:1007000045491431884208D143490839496841F0C4
:10071000F001414A083A51607DE03F492831884262
:1007200008D13D490839496841F470613A4A083AAC
:10073000516070E038493C31884208D13649083967
:10074000496841F47041344A083A516063E03249E3
:100750005031884208D130490839496841F4702144
:100760002D4A083A516056E02B496431884208D13D
:1007700029490839496841F47001274A083A51600B
:1007800049E025497831884208D123490839496828
:1007900041F07061204A083A51603CE01F498842AC
:1007A00006D1011F096841F00F01021F116032E0FC
:1007B0001A491431884208D11849091F096841F0C3
:1007C000F001164A121F116025E0144928318842B1
:1007D00008D11249091F096841F470610F4A121FBC
:1007E000116018E00D493C31884208D10B49091FBE
:1007F000096841F47041094A121F11600BE0074972
:100800005031884207D10549091F096841F4702118
:10081000024A121F1160704708000240080402409B
:1008200010B50022026847F6F0739A430C6A8B6891
:1008300023430C6923434C6923438C692343CC69CC
:1008400023434C6A23438C6A23431A430260CB68D8
:1008500043600B6883604B68C36010BD5D480078DF
:1008600000287CD05C48007800BB00205B490880F1
:100870005B4908805B4908805B4908805B490880C8
:100880005B4908805B4908805B4908605B490860F8
:100890005B4908605B4908605B4908605B49086028
:1008A0005B49086001204C49087070474A4800784D
:1008B000401C49490870574800884F490968084456
:1008C0004D490860534840884C49096808444B49E1
:1008D0000860504880884A490968084448490860C7
:1008E0004C48C08847490968084446490860494857
:1008F00000894549096808444349086045484089DA
:100900004249096808444149086042488089404991
:10091000096808443E4908602F480078332857D1B9
:100920002D480078401E2C4908703348006809782B
:1009300090FBF1F0A0F2DC5000B2284908802F486B
:1009400000682549097890FBF1F0A0F2DC5000B274
:10095000234908802A4800681F49097800E037E0E9
:1009600090FBF1F0A0F2DC5000B21E49088025484F
:1009700000681949097890FBF1F0A0F2DC5000B250
:1009800019490880204800681349097890FBF1F064
:10099000A0F2DC5000B2154908801C4800680E49DE
:1009A000097890FBF1F0A0F2DC5000B21049088009
:1009B000174800680849097890FBF1F0A0F2DC5074
:1009C00000B20C49088000200349087001490870F2
:1009D00000BF6AE7080000201A0000200A0000207B
:1009E0000C0000200E00002010000020120000204B
:1009F00014000020160000201C0000202000002011
:100A000024000020280000202C00002030000020BE
:100A100034000020660000202DE9F0410246002548
:100A20000026002000230024002791F803C00CF0CA
:100A30000F0591F803C00CF0100CBCF1000F03D0AF
:100A400091F802C04CEA050591F800C0BCF1000F16
:100A500031D0146800202BE04FF0010C0CFA00F3A9
:100A6000B1F800C00CEA03069E4220D183004FF08B
:100A70000F0C0CFA03F7BC4305FA03FC4CEA040420
:100A800091F803C0BCF1280F06D14FF0010C0CFA0D
:100A900000FCC2F814C00AE091F803C0BCF1480F92
:100AA00005D14FF0010C0CFA00FCC2F810C0401C3C
:100AB0000828D1D31460B1F800C0BCF1FF0F34DDB9
:100AC000546800202EE000F1080C4FF0010808FAED
:100AD0000CF3B1F800C00CEA03069E4221D183005A
:100AE0004FF00F0C0CFA03F7BC4305FA03FC4CEA79
:100AF000040491F803C0BCF1280F05D100F1080CE3
:100B000008FA0CF8C2F8148091F803C0BCF1480F41
:100B100007D100F1080C4FF0010808FA0CF8C2F8F0
:100B20001080401C0828CED35460BDE8F08141619C
:100B3000704701617047000008B50121082000F0EE
:100B400049F84FF40060ADF8000003208DF8020072
:100B500010208DF8030069460148FFF75DFF08BDCE
:100B6000000C014010B50A490A4800F0D3F80848C3
:100B70000088B0F5C86F05DA4FF400610648FFF74A
:100B8000D6FF04E04FF400610348FFF7D2FF10BD29
:100B90007600002066000020000C01400146002085
:100BA000034A506820F440400843506070470000FA
:100BB0000010024029B1064A52690243044B5A61AF
:100BC00004E0034A52698243014B5A6170470000B6
:100BD0000010024029B1064A92690243044B9A610F
:100BE00004E0034A92698243014B9A617047000016
:100BF0000010024029B1064AD2680243044BDA6071
:100C000004E0034AD2688243014BDA607047000077
:100C1000001002400188B1F57A7F02DC4FF47A714E
:100C200000E0018801800188B1F5FA6F02DB4FF422
:100C3000FA6100E0018801808188B1F57A7F02DCE9
:100C40004FF47A7100E0818881808188B1F5FA6F74
:100C500002DB4FF4FA6100E081888180C188B1F540
:100C60007A7F02DC4FF47A7100E0C188C180C188CC
:100C7000B1F5FA6F02DB4FF4FA6100E0C188C18080
:100C80004188B1F57A7F02DC4FF47A7100E0418847
:100C900041804188B1F5FA6F02DB4FF4FA6100E060
:100CA000418841800189B1F57A7F02DC4FF47A7185
:100CB00000E0018901810189B1F5FA6F02DB4FF48F
:100CC000FA6100E0018901814189B1F57A7F02DC96
:100CD0004FF47A7100E0418941814189B1F5FA6FA1
:100CE00002DB4FF4FA6100E0418941818189B1F56D
:100CF0007A7F02DC4FF47A7100E0818981818189F9
:100D0000B1F5FA6F02DB4FF4FA6100E0818981816D
:100D1000704700002DE9F04F85B004460E460027CD
:100D2000B846B946BA46002576490889FFF78CFAD5
:100D30004FF07A510490FFF717FA8346FFF789FACC
:100D400000F57A7070490988401A20806D49C88979
:100D5000FFF77AFA4FF07A510490FFF705FA8346CD
:100D6000FFF777FAC0F5FA6068490988401AA08051
:100D700064494889FFF768FA4FF07A510490FFF709
:100D8000F3F98346FFF765FA00F57A706049098840
:100D9000401A60805B498889FFF756FA4FF07A5114
:100DA0000490FFF7E1F98346FFF753FAC0F5FA60C4
:100DB00058490988401AE08052498888FFF744FA68
:100DC0004FF07A510490FFF7CFF98346FFF741FACD
:100DD00000F57A7050490988401A208149490888ED
:100DE000FFF732FA4FF07A510490FFF7BDF98346CE
:100DF000FFF72FFA00F57A7048490988401A608198
:100E000040494888FFF720FA4FF07A510490FFF7E5
:100E1000ABF98346FFF71DFA00F57A70404909885F
:100E2000401AA0813749088AFFF70EFA3549029027
:100E3000C888FFF709FA4FF080410090FFF794F956
:100E400001900299FFF7C2F936490390FFF78CF938
:100E500083463549FFF788F90490FFF7FAF93349DB
:100E600008802046FFF7D6FEFFF7F8FCA18830483F
:100E7000304A127820F81210E0882F492D4A127853
:100E800021F8120021882D482A4A127820F81210E1
:100E900060882B49274A127821F8120000BF11E020
:100EA000234830F815000744234830F815008044E3
:100EB000224830F815008144214830F8150082445A
:100EC000681CC5B2052DEBDB0520B7FBF0F0B08048
:100ED0000520B8FBF0F0F0800520B9FBF0F0308081
:100EE0000520BAFBF0F0708012480078401C1149D0
:100EF000087008460078052801D10020087005B068
:100F0000BDE8F08F380000200A0000200E0000200D
:100F10000C0000201000002012000020140000200F
:100F2000160000209A99993F0000C8420200002054
:100F30008600002004000020900000209A0000207D
:100F4000A400002010B500F001F810BD0CB5002081
:100F5000019000903348006840F4803031490860C7
:100F600000BF3048006800F4003000900198401C39
:100F70000190009818B90198B0F5A06FF1D12948F7
:100F8000006800F4003010B10120009001E0002062
:100F900000900098012843D12348006840F01000D9
:100FA000214908600846006820F0030008600846F0
:100FB000006840F0020008601A484068194948601B
:100FC0000846406848600846406840F480604860D1
:100FD0000846406820F47C1048600846406840F4A9
:100FE000E81048600846006840F08070086000BF64
:100FF0000C48006800F000700028F9D009484068EB
:1010000020F00300074948600846406840F00200AD
:10101000486000BF0348406800F00C000828F9D180
:101020000CBD0000001002400020024010B5134823
:10103000006840F001001149086008464068104906
:1010400008400E494860084600680E4908400B49B0
:1010500008600846006820F4802008600846406860
:1010600020F4FE0048604FF41F008860FFF76AFF1D
:101070004FF000600449086010BD000000100240FD
:101080000000FFF8FFFFF6FE08ED00E002E008C8F0
:10109000121F08C1002AFAD170477047002001E0F2
:1010A00001C1121F002AFBD17047FFF701FB01E0CD
:1010B000FFF758FDFCE70000D810000800000020F2
:1010C000380000008C1000081011000838000020C3
:1010D000780400009C1000080000000000000000E0
:1010E00001000000000000000000000000000000FF
:1010F00000000000000000000000000000000000F0
:1011000000000000000000000000000000000000DF
:0400000508000131BD
:00000001FF
