:020000040800F2
:100000000809002089010008A90D0008930C0008C8
:10001000A50D000845060008252100080000000085
:10002000000000000000000000000000B9180008F7
:10003000E90700080000000091110008A519000858
:10004000A3010008A3010008A3010008A301000800
:10005000A3010008A3010008A3010008E1090008AA
:10006000A3010008A3010008A3010008A3010008E0
:10007000A3010008A3010008A3010008A3010008D0
:10008000A3010008A3010008A3010008A3010008C0
:10009000A3010008A3010008A3010008290A000821
:1000A000A3010008A3010008A3010008A3010008A0
:1000B000A3010008091A0008A3010008A301000811
:1000C000A3010008A3010008A3010008A301000880
:1000D000A3010008991D0008A3010008A30100085E
:1000E000C5090008A3010008A301000800F002F8F8
:1000F00000F03AF80AA090E8000C82448344AAF188
:100100000107DA4501D100F02FF8AFF2090EBAE885
:100110000F0013F0010F18BFFB1A43F0010318473B
:10012000BC230000DC230000103A24BF78C878C14B
:10013000FAD8520724BF30C830C144BF04680C60ED
:10014000704700000023002400250026103A28BF35
:1001500078C1FBD8520728BF30C148BF0B60704739
:100160001FB51FBD10B510BD00F031F81146FFF7E7
:10017000F7FF01F0E8FF00F04FF803B4FFF7F2FFDC
:1001800003BC00F053F800000948804709480047C5
:10019000FEE7FEE7FEE7FEE7FEE7FEE7FEE7FEE737
:1001A000FEE7FEE704480549054A064B7047000094
:1001B000A9190008ED000008080300200809002024
:1001C00008050020080500207047704770477546F5
:1001D00000F028F8AE4605006946534620F00700B7
:1001E000854618B020B5FFF7DDFFBDE820404FF091
:1001F00000064FF000074FF000084FF0000B21F011
:100200000701AC46ACE8C009ACE8C009ACE8C009DD
:10021000ACE8C0098D4670470446AFF30080204625
:10022000FFF7ABFF00487047A402002001491820E7
:10023000ABBEFEE7260002007047000008B50121B2
:10024000084600F0DDFF012140F2052001F008F82A
:100250004FF4004000F0C8FFFF20ADF8000001207F
:100260008DF8020000208DF803006946014800F077
:1002700085FC08BD0008014010B5FFF7DFFF00F066
:1002800001F810BD00B591B0504800F0E9F95048B0
:1002900006905048079000200890092009900020FF
:1002A0000A9080200B9040000C9080000D90202040
:1002B0000E9000020F900020109006A9434800F015
:1002C00075FA0121414800F0BFF941484C3800F06F
:1002D00099F8012000F072F90020019001208DF8BA
:1002E00008008DF809004FF460200390002004906E
:1002F00009208DF8140001A935484C3800F0C4F8E5
:1003000006230122002132484C3800F0E5F806238C
:10031000022201212E484C3800F0DEF80623032289
:1003200002212B484C3800F0D7F807230422032180
:1003300027484C3800F0D0F8062305220421244831
:100340004C3800F0C9F806231A46052120484C38DD
:1003500000F0C2F80623072219461D484C3800F069
:10036000BBF806230822072119484C3800F0B4F8DE
:1003700007230922112116484C3800F0ADF801215D
:1003800013484C3800F033F8012111484C3800F084
:1003900023F80F484C3800F0FBF800BF0C484C38ED
:1003A00000F068F80028F9D109484C3800F000F94D
:1003B00000BF07484C3800F053F80028F9D101215C
:1003C00003484C3800F0E9F811B000BD08000240C5
:1003D0004C2401405002002021B1826842F0010209
:1003E000826003E0826822F001028260704721B1DE
:1003F000826842F48072826003E0826822F4807234
:100400008260704710B504461248844208D1012129
:10041000401500F035FF0021601500F031FF17E0B6
:100420000D48844208D10121001500F029FF002168
:10043000201500F025FF0BE00848844208D1012177
:10044000C80300F01DFF00214FF4004000F018FF2A
:1004500010BD00000024014000280140003C014084
:10046000014600208A6802F004020AB1012000E07F
:1004700000207047014600208A6802F008020AB195
:10048000012000E00020704730B502460020002324
:1004900050680F4C20400D790C6844EA0524204335
:1004A000506090680B4C2040D1E902542C434D79A8
:1004B00044EA450420439060D06A20F470000C7C2C
:1004C000641EE4B2234340EA0350D06230BD000012
:1004D000FFFEF0FFFDF7F1FFF0B504460D460020EA
:1004E0000021092D11DDE068A5F10A0606EB46079B
:1004F000072606FA07F18843A5F10A0606EB460629
:1005000003FA06F10843E0600CE0206905EB4507BB
:10051000072606FA07F1884305EB450603FA06F1BC
:1005200008432061072A0FDA606B561E06EB860728
:100530001F2606FA07F18843561E06EB860605FAC3
:1005400006F10843606322E00D2A0FDA206BD61F04
:1005500006EB86071F2606FA07F18843D61F06EB2F
:10056000860605FA06F10843206310E0E06AA2F16E
:100570000D0606EB86071F2606FA07F18843A2F14F
:100580000D0606EB860605FA06F10843E062F0BDAB
:10059000816841F008018160704721B1826842F4AE
:1005A000A002826003E0826822F4A00282607047A9
:1005B000816841F0040181607047000030B1074953
:1005C000096841F40001054A116005E00349096822
:1005D00021F40001014A1160704700000824014025
:1005E00010B500F08DFB00F0B5FB00F055FB4FF4AB
:1005F000E13001F04BFD4FF4FA7001F09BFB00F08D
:1006000077FD08A000F0E4FDFFF736FE01F06CF87E
:100610000121282000F03EFC00F0C8FB0120084921
:10062000087010BD0D0A20526167696E67466972D5
:10063000655F52432056322E322E32200D0A0000C2
:100640004A00002000BFFEE721B1026842F001022B
:10065000026004E002684FF6FE731A4002607047C1
:1006600001684FF6FE721140016000210160416097
:100670008160C1604B49884208D14A4908394968BC
:1006800041F00F01474A083A51608AE04549143168
:10069000884208D143490839496841F0F001414A8C
:1006A000083A51607DE03F492831884208D13D49F0
:1006B0000839496841F470613A4A083A516070E07B
:1006C00038493C31884208D136490839496841F4F3
:1006D0007041344A083A516063E0324950318842EF
:1006E00008D130490839496841F470212D4A083A47
:1006F000516056E02B496431884208D129490839B4
:10070000496841F47001274A083A516049E0254997
:100710007831884208D123490839496841F070612D
:10072000204A083A51603CE01F49884206D1011F27
:10073000096841F00F01021F116032E01A491431BB
:10074000884208D11849091F096841F0F001164A8A
:10075000121F116025E014492831884208D112493E
:10076000091F096841F470610F4A121F116018E0F7
:100770000D493C31884208D10B49091F096841F4F1
:100780007041094A121F11600BE00749503188423D
:1007900007D10549091F096841F47021024A121F57
:1007A00011607047080002400804024010B50022A2
:1007B000026847F6F0739A430C6A8B6823430C690E
:1007C00023434C6923438C692343CC6923434C6AFC
:1007D00023438C6A23431A430260CB6843600B684F
:1007E00083604B68C36010BD7047002109E00022A0
:1007F00001E0531C9AB242F2B8239A42F9DB4B1C37
:1008000099B28142F3DB70475D48007800287CD0C4
:100810005C48007800BB00205B4908805B49088089
:100820005B4908805B4908805B4908805B49088018
:100830005B4908805B4908605B4908605B49086068
:100840005B4908605B4908605B4908605B49086078
:1008500001204C49087070474A480078401C4949BB
:100860000870574800884F49096808444D49086096
:10087000534840884C49096808444B49086050482F
:1008800080884A4909680844484908604C48C0883B
:10089000474909680844464908604948008945496C
:1008A0000968084443490860454840894249096845
:1008B0000844414908604248808940490968084421
:1008C0003E4908602F480078332857D12D480078DA
:1008D000401E2C49087033480068097890FBF1F0FD
:1008E000A0F2DC5000B2284908802F480068254952
:1008F000097890FBF1F0A0F2DC5000B223490880A7
:100900002A4800681F49097800E037E090FBF1F0C1
:10091000A0F2DC5000B21E49088025480068194941
:10092000097890FBF1F0A0F2DC5000B21949088080
:10093000204800681349097890FBF1F0A0F2DC50E0
:1009400000B2154908801C4800680E49097890FBE0
:10095000F1F0A0F2DC5000B210490880174800689E
:100960000849097890FBF1F0A0F2DC5000B20C4984
:1009700008800020034908700149087000BF6AE739
:100980000C0000201E0000200E000020100000209F
:100990001200002014000020160000201800002083
:1009A0001A00002020000020240000202800002041
:1009B0002C000020300000203400002038000020EF
:1009C0003002002010B54FF4004000F059F828B173
:1009D0004FF4004000F04EF800F02AFA10BD00007D
:1009E00010B5022000F04CF8B8B1022000F042F837
:1009F0000A48006864380A49096888420DD90748DE
:100A00000068074908600748007818B100200549C8
:100A1000087002E001200349087010BD4400002066
:100A2000040000201C00002010B54FF4007000F0FE
:100A300027F8C0B14FF4007000F01CF80A480068B5
:100A400064380A49096888420DD90748006807498F
:100A500008600748007818B100200549087002E0D6
:100A600001200349087010BD440000200800002048
:100A70001D00002001490860704700001404014077
:100A8000014600200022074B1B6803EA0102054BC8
:100A900014331B680B4013B10AB1012000E00020A1
:100AA0007047000000040140002123498279002A98
:100AB0003AD00A46126803689A430B461A600A1D28
:100AC000126803689A430B1D1A60027911440A6880
:100AD00003681A430A60184A0832126803689A4386
:100AE000154B08331A601A1D126803689A43124B9B
:100AF0000C331A604279102A0ED11A1F126803684B
:100B00001A430D4B08331A601A1D126803681A4302
:100B1000094B0C331A600DE00749427911440A6809
:100B200003681A430A6005E0027911440A68036801
:100B30009A430A60704700000004014030B500226B
:100B40008B071C0F0F2303FA04F20B4B8C1053F886
:100B500024309343084C8D1044F8253023468C10E4
:100B600053F824308C07240F00FA04F42343024C7A
:100B70008D1044F8253030BD080001402DE9F041CA
:100B8000024600250026002000230024002791F8BB
:100B900003C00CF00F0591F803C00CF0100CBCF171
:100BA000000F03D091F802C04CEA050591F800C08F
:100BB000BCF1000F31D0146800202BE04FF0010C85
:100BC0000CFA00F3B1F800C00CEA03069E4220D1F3
:100BD00083004FF00F0C0CFA03F7BC4305FA03FC3B
:100BE0004CEA040491F803C0BCF1280F06D14FF081
:100BF000010C0CFA00FCC2F814C00AE091F803C022
:100C0000BCF1480F05D14FF0010C0CFA00FCC2F802
:100C100010C0401C0828D1D31460B1F800C0BCF14A
:100C2000FF0F34DD546800202EE000F1080C4FF077
:100C3000010808FA0CF3B1F800C00CEA03069E4262
:100C400021D183004FF00F0C0CFA03F7BC4305FAD7
:100C500003FC4CEA040491F803C0BCF1280F05D151
:100C600000F1080C08FA0CF8C2F8148091F803C0DF
:100C7000BCF1480F07D100F1080C4FF0010808FA49
:100C80000CF8C2F81080401C0828CED35460BDE890
:100C9000F08100BFFEE700000EB50121092000F041
:100CA000DFFA0220ADF8080048208DF80B0002A9F9
:100CB0001248FFF763FF4FF40070ADF808004820BA
:100CC0008DF80B0002A90D48FFF758FF01210846D7
:100CD000FFF734FF09210120FFF730FF40F2022027
:100CE000009000208DF804000C208DF805000120F4
:100CF0008DF806006846FFF7D7FE0EBD000C0140D8
:100D000008B50121082000F0ABFA03208DF802009D
:100D100010208DF803000002ADF8000003208DF8CC
:100D2000020010208DF8030069460948FFF726FFEE
:100D30004FF40060ADF8000003208DF80200102091
:100D40008DF8030069460248FFF718FF08BD000050
:100D5000000C014010B5002415E04FF480501049FC
:100D600008604010091F08606420FFF73EFD4FF443
:100D700000600B4908604000091F08606420FFF70D
:100D800034FD601CC4B2032CE7DB4FF480500449EF
:100D9000091F0860401008606420FFF726FD10BDA1
:100DA000140C014000BFFEE7704700001CB505228F
:100DB0001049302000F024F905226946102000F087
:100DC000D3F8002408E01DF804000A49095D8842B0
:100DD00000D003E0601CC4B2052CF4DB00BF052C7E
:100DE00003D105A000F0F4F902E00AA000F0F0F948
:100DF0001CBD0000660000200D0A204E5246323411
:100E00004C303120B3F5CABCBBAFB3C9B9A6A3A15E
:100E1000000000000D0A204E524632344C30312082
:100E2000B3F5CABCBBAFCAA7B0DCA3A100000000E9
:100E300070B5072000F0B8F8044604F0400098B1FF
:100E4000602000F0B1F80546202D08D12A460F4950
:100E5000612000F089F800200D49088003E0FF219F
:100E6000E22000F0EDF800BF04F0100030B104F013
:100E7000010018B1FF21E12000F0E2F800F054F881
:100E80002146272000F0DCF870BD0000620200203F
:100E90007000002070B505460C464FF480401F4995
:100EA0004861FF21E12000F0CBF8FF21E22000F0B3
:100EB000C7F805221A49302000F0A2F80522194986
:100EC0002A2000F09DF80121212000F0B9F801212D
:100ED000222000F0B5F81A21242000F0B1F82946AC
:100EE000252000F0ADF82021312000F0A9F80F21D5
:100EF000262000F0A5F8012C04D10E21202000F0BE
:100F00009FF805E0022C03D10F21202000F098F873
:100F10004FF480400149086170BD0000001001409D
:100F2000660000206B00002010B54FF4804005499A
:100F300048610F21202000F083F84FF480400149E0
:100F4000086110BD0010014010B54FF48040054904
:100F500048610E21202000F073F84FF480400149D1
:100F6000086110BD001001402DE9F04107460D4613
:100F700016464FF400500B494861384600F080FC9B
:100F80008046002405E0002000F07AFC2855601C13
:100F9000C4B2B442F7DB4FF4005002490861404646
:100FA000BDE8F0810010014070B504464FF40050D8
:100FB00007494861204600F063FC002000F060FC17
:100FC00005464FF4005002490861284670BD0000F4
:100FD0000010014070B504460D46FFF7B5FF4FF411
:100FE0008040064948612A462146A02000F008F8C2
:100FF0004FF480400149086170BD000000100140BD
:101000002DE9F04107460D4616464FF400500B49B6
:101010004861384600F034FC8046002404E0285D36
:1010200000F02EFC601CC4B2B442F8DB4FF4005058
:10103000024908614046BDE8F0810000001001400F
:1010400070B505460C464FF40050074948612846E4
:1010500000F016FC0646204600F012FC4FF400504B
:1010600001490861304670BD0010014070B5002193
:1010700000230F22C47804B3154C246804F4E06400
:10108000C4F5E064210AC1F10403CA40447804FABB
:1010900003F184781440214309010E4C0678A155D0
:1010A000047804F01F050124AC4005786D11AD00F3
:1010B00005F1E025C5F8004109E0047804F01F05BA
:1010C0000124AC40044D0678761145F8264070BDE9
:1010D0000CED00E000E400E080E100E002490143A3
:1010E000024A1160704700000000FA050CED00E0B4
:1010F00008B54FF4A060FFF7F1FF1D208DF8000048
:1011000000208DF8010001208DF802008DF8030009
:101110006846FFF7ABFF28208DF8000001208DF80E
:10112000010000208DF8020001208DF803006846C0
:10113000FFF79CFF25208DF8000002208DF80100AC
:1011400000208DF8020001208DF803006846FFF7AB
:101150008DFF07208DF8000003208DF8010000208E
:101160008DF8020001208DF803006846FFF77EFF2E
:1011700017208DF8000003208DF8010000208DF865
:10118000020001208DF803006846FFF76FFF08BDDD
:101190007047000010B504460A4801780078401CEA
:1011A000084A1070084844540848008800F080003D
:1011B00030B9012240F2277104480C3800F0CEFE0D
:1011C00010BD00003E000020B00000200C3801409F
:1011D00070B505462C4603E02078FFF7DBFF641C62
:1011E00020780028F8D170BD01460020034A5068DD
:1011F00020F4404008435060704700000010024057
:1012000029B1064A52690243044B5A6104E0034A79
:1012100052698243014B5A6170470000001002403E
:1012200029B1064AD2690243044BDA6104E0034A59
:10123000D2698243014BDA6170470000001002401E
:1012400029B1064A12690243044B1A6104E0034AB9
:1012500012698243014B1A6170470000001002407E
:1012600029B1064A92690243044B9A6104E0034A99
:1012700092698243014B9A6170470000001002405E
:1012800029B1064AD2680243044BDA6004E0034AFB
:10129000D2688243014BDA607047000000100240C0
:1012A00030B500210022002400232D4D6D6805F08B
:1012B0000C0121B1042905D0082923D105E0294DCD
:1012C000056022E0274D05601FE0254D6D6805F49F
:1012D0007012234D6D6805F48034022505EB9242AF
:1012E0001CB9214D554305600BE01D4D6D6805F49B
:1012F00000351DB11C4D5543056002E0194D5543A5
:10130000056002E0174D056000BF00BF144D6D6819
:1013100005F0F0010909154D6B5C0568DD4045607D
:101320000F4D6D6805F4E061090A104D6B5C45686E
:10133000DD4085600A4D6D6805F46051C90A0B4DAA
:101340006B5C4568DD40C560054D6D6805F4404146
:10135000890B074D6B5CC568B5FBF3F5056130BDC6
:101360000010024000127A0000093D0072000020C7
:10137000820000200188B1F57A7F02DC4FF47A7197
:1013800000E0018801800188B1F5FA6F02DB4FF4BB
:10139000FA6100E0018801808188B1F57A7F02DC82
:1013A0004FF47A7100E0818881808188B1F5FA6F0D
:1013B00002DB4FF4FA6100E081888180C188B1F5D9
:1013C0007A7F02DC4FF47A7100E0C188C180C18865
:1013D000B1F5FA6F02DB4FF4FA6100E0C188C18019
:1013E0004188B1F57A7F02DC4FF47A7100E04188E0
:1013F00041804188B1F5FA6F02DB4FF4FA6100E0F9
:10140000418841800189B1F57A7F02DC4FF47A711D
:1014100000E0018901810189B1F5FA6F02DB4FF427
:10142000FA6100E0018901814189B1F57A7F02DC2E
:101430004FF47A7100E0418941814189B1F5FA6F39
:1014400002DB4FF4FA6100E0418941818189B1F505
:101450007A7F02DC4FF47A7100E081898181818991
:10146000B1F5FA6F02DB4FF4FA6100E08189818106
:101470007047000000B589B00D490E4800F01CF817
:101480000B48008840F2DC51884207DAAA208DF828
:101490000400202101A8FFF79DFD06E055208DF8EE
:1014A0000400202101A8FFF795FD09B000BD000050
:1014B00040020020300200202DE9F04F85B00446A4
:1014C0000E460027B846B946BA460025764908892F
:1014D00000F024FF4FF07A51049000F033FF834670
:1014E00000F0FCFE00F57A7070490988401A2080EF
:1014F0006D49C88900F012FF4FF07A51049000F056
:1015000021FF834600F0EAFEC0F5FA6068490988C9
:10151000401AA0806449488900F000FF4FF07A51DA
:10152000049000F00FFF834600F0D8FE00F57A70BB
:1015300060490988401A60805B49888900F0EEFEA6
:101540004FF07A51049000F0FDFE834600F0C6FE95
:10155000C0F5FA6058490988401AE08052498888E5
:1015600000F0DCFE4FF07A51049000F0EBFE834671
:1015700000F0B4FE00F57A7050490988401A2081C5
:101580004949088800F0CAFE4FF07A51049000F0F3
:10159000D9FE834600F0A2FE00F57A70484909881A
:1015A000401A60814049488800F0B8FE4FF07A51F7
:1015B000049000F0C7FE834600F090FE00F57A70BC
:1015C00040490988401AA0813749088A00F0A6FEE0
:1015D00035490290C88800F0A1FE4FF0804100908C
:1015E00000F0B0FE0190029900F0B6FD364903907C
:1015F00000F0A8FE8346354900F0A4FE049000F0F8
:101600006DFE334908802046FFF7B4FEFFF7FCF873
:10161000A1883048304A127820F81210E0882F490B
:101620002D4A127821F8120021882D482A4A127872
:1016300020F8121060882B49274A127821F81200EE
:1016400000BF11E0234830F815000744234830F864
:1016500015008044224830F815008144214830F8B4
:1016600015008244681CC5B2052DEBDB0520B7FBD5
:10167000F0F0B0800520B8FBF0F0F0800520B9FB59
:10168000F0F030800520BAFBF0F07080124800784E
:10169000401C1149087008460078052801D1002037
:1016A000087005B0BDE8F08F500200200E00002049
:1016B000120000201000002014000020160000205E
:1016C000180000201A0000209A99993F0000C84293
:1016D00064000020880000203C00002092000020D0
:1016E0009C000020A600002000B589B0012119202F
:1016F000FFF7B6FD01218803FFF792FD4FF460402C
:10170000ADF80C0001208DF80E0018208DF80F00A8
:1017100003A93548FFF732FA4FF48040ADF80C00CA
:1017200001208DF80E0010208DF80F0003A92F481E
:10173000FFF724FA4FF40050ADF80C0001208DF8AB
:101740000E0010208DF80F0003A92848FFF716FAA5
:101750004FF40040ADF80C0003208DF80E00482037
:101760008DF80F0003A92148FFF708FA0F21022086
:10177000FFF7E4F94FF40040019000208DF80800D5
:101780000C208DF8090001208DF80A0001A8FFF750
:101790008BF94FF40050154908610020ADF8100096
:1017A0004FF48270ADF812000020ADF81400ADF8CF
:1017B0001600ADF818004815ADF81A001020ADF865
:1017C0001C000020ADF81E000720ADF8200004A981
:1017D000074800F037F80121054800F019F805A086
:1017E000FFF7F6FC09B000BD000C014000100140FD
:1017F000003800400D0A205350493220202020207C
:10180000B3F5CABCBBAFCDEAB3C9A3A100000000C9
:1018100021B1028842F04002028004E002884FF6C3
:10182000BF731A40028070470246002013890B40A4
:101830000BB1012000E00020704701468889704705
:101840008181704710B50022028802F441520B8852
:101850004C8823438C882343CC8823430C8923431F
:101860004C8923438C892343CC8923431A43028028
:10187000838B4FF2FF74234083830B8A038210BD56
:1018800010B5044600BF02210A48FFF7CDFF00282B
:10189000F9D021460748FFF7D3FF00BF01210548D3
:1018A000FFF7C2FF0028F9D00248FFF7C6FFC0B219
:1018B00010BD000000380040704710B500F002F87D
:1018C00010BD00000CB50020019000903348006866
:1018D00040F480303149086000BF3048006800F4AF
:1018E000003000900198401C0190009818B90198B0
:1018F000B0F5A06FF1D12948006800F4003010B1B4
:101900000120009001E0002000900098012843D1C0
:101910002348006840F0100021490860084600682C
:1019200020F0030008600846006840F002000860EC
:101930001A484068194948600846406848600846A7
:10194000406840F4806048600846406820F47C109D
:1019500048600846406840F4E8104860084600685F
:1019600040F08070086000BF0C48006800F0007014
:101970000028F9D00948406820F003000749486072
:101980000846406840F00200486000BF03484068D5
:1019900000F00C000828F9D10CBD00000010024036
:1019A000002002407047000010B51348006840F066
:1019B00001001149086008464068104908400E4976
:1019C0004860084600680E4908400B490860084610
:1019D000006820F4802008600846406820F4FE007B
:1019E00048604FF41F008860FFF767FF4FF000600A
:1019F0000449086010BD0000001002400000FFF81C
:101A0000FFFFF6FE08ED00E01348008800F001003B
:101A100000B34FF6FE70104908801048007800B9F6
:101A200070470F480068401C0D4908600D48007859
:101A3000401C0C4908700C480078401C0A4908708A
:101A40000A480078401C0949087009480078401C81
:101A50000749087000BFE3E7100400404A00002077
:101A600044000020000000200100002002000020AF
:101A700003000020CA430282704721B1028842F06D
:101A80000102028004E002884FF6FE731A400280D1
:101A90007047000010B504466848844208D101210F
:101AA000C014FFF7EDFB0021E014FFF7E9FBC4E0F1
:101AB000B4F1804F08D101210846FFF7C1FB002196
:101AC0000120FFF7BDFBB8E05D48844208D1012149
:101AD0000220FFF7B5FB00210220FFF7B1FBACE0CD
:101AE0005848844208D101210420FFF7A9FB0021B6
:101AF0000420FFF7A5FBA0E05348844208D1012150
:101B00000820FFF79DFB00210820FFF799FB94E0D8
:101B10004E48844208D101211020FFF791FB00219B
:101B20001020FFF78DFB88E04948844208D101214D
:101B30002020FFF785FB00212020FFF781FB7CE0C0
:101B40004448844208D101214014FFF799FB002149
:101B50006014FFF795FB70E03F48844209D10121F2
:101B6000C804FFF78DFB00214FF40020FFF788FB2E
:101B700063E03A48844209D101210805FFF780FB60
:101B800000214FF48010FFF77BFB56E0344884427D
:101B900009D101214805FFF773FB00214FF4001024
:101BA000FFF76EFB49E02F48844208D10121402015
:101BB000FFF746FB00214020FFF742FB3DE02A48AB
:101BC000844208D101218020FFF73AFB00218020C8
:101BD000FFF736FB31E02548844208D1012180150A
:101BE000FFF72EFB0021A015FFF72AFB25E0204878
:101BF000844209D101210804FFF742FB00214FF480
:101C00008030FFF73DFB18E01A48844209D10121DA
:101C10004804FFF735FB00214FF40030FFF730FB9D
:101C20000BE01548844208D101218804FFF728FB06
:101C300000214FF48020FFF723FB10BD002C014052
:101C40000004004000080040000C0040001000406C
:101C50000014004000340140004C0140005001409D
:101C60000054014000180040001C004000200040CB
:101C70000040014000440140004801401AB18389FE
:101C80000B43838102E083898B438381704700008B
:101C9000002202881D4B98420ED01D4B98420BD05B
:101CA000B0F1804F08D01B4B984205D01A4B984298
:101CB00002D01A4B984204D14FF68F731A404B88CA
:101CC0001A43174B984207D0164B984204D04FF650
:101CD000FF431A40CB881A4302808B8883850B8888
:101CE00003850A4B98420BD0094B984208D00E4B03
:101CF000984205D00D4B984202D00D4B984201D12D
:101D00000B7A03860123838270470000002C014078
:101D1000003401400004004000080040000C004076
:101D20000010004000140040004001400044014009
:101D3000004801403EB5044601210220FFF770FA39
:101D4000124804801248FFF7A5FE124890FBF4F0F9
:101D500080B2ADF804004720ADF800000020ADF8D7
:101D60000600ADF8020069460948FFF791FF01211E
:101D70000748FFF77FFE012211460548FFF77EFF67
:101D800001210348FFF779FE3EBD00004800002016
:101D90000004004040420F0010B50821554800F0F3
:101DA000D0F810B1534800F06BF95248008800F0A9
:101DB0004000F0B14F480C30008800F08000C0B106
:101DC0004D4801780078401C4B4A10704B48405CED
:101DD0004849091D08801046007849490978884219
:101DE00007D144480C30008820F0800041490C3174
:101DF00008804048008800F02000002879D03D4944
:101E0000091D0988C8B23F49097871B924284DD104
:101E10003D49097801EBC10202EB01113B4A02F88E
:101E200011000121374A117040E036490978012933
:101E300013D14D280DD13449097801EBC10202EBD1
:101E40000111324A02EB4101487002212D4A117002
:101E50002CE000212B4A117028E02A490978022938
:101E600013D13C280DD12849097801EBC10202EBBE
:101E70000111264A02EB410188700321214A1170A9
:101E800014E000211F4A117010E01F49097801EB8E
:101E9000C10202EB01111D4A02EB4101194A1278FD
:101EA000885418490978491C164A1170164909784E
:101EB00001EBC10202EB0111144A02EB4101C978A6
:101EC000891D104A1278914212D100210D4A1170D9
:101ED0000D49097839B100210B4A117001210C4AD2
:101EE000117005E005E00121074A1170094A1170DF
:101EF00000BF10BD003801403D000020B0000020B0
:101F00003E0000204100002042000020B0010020DF
:101F1000400000203F00002001F40072B2F5007F75
:101F200000D100BFCA430280704721B1828942F4C8
:101F30000052828104E082894DF6FF731A4082814B
:101F4000704702460020B1F5007F00D100BF138822
:101F50000B400BB1012000E000207047F0B50346B4
:101F6000002400260025002040F66A17B94200D15F
:101F700000BF1846C1F3421401F01F06012707FAFB
:101F800006F5012C01D10C3004E0022C01D11030F7
:101F900000E014301AB107682F43076002E00768B9
:101FA000AF430760F0BD00002DE9F04786B005465D
:101FB0000E460024A24600BFA1460027B08900B10A
:101FC00000BF2F462C8A4CF6FF700440F088044373
:101FD0002C82AC894EF6F3100440B0883189084356
:101FE000718908430443AC81AC8A4FF6FF4004403A
:101FF000B0890443AC8201A8FFF752F91F48874219
:1020000002D1DDF810A001E0DDF80CA0A88900F4F1
:10201000004040B10AEBCA0000EB0A1031684900E9
:10202000B0FBF1F807E00AEBCA0000EB0A103168D8
:102030008900B0FBF1F86420B8FBF0F0040120093E
:10204000642101FB1089A88900F4004040B13220CE
:1020500000EBC900B0FBF1F000F00700044308E01A
:10206000322000EB09106421B0FBF1F000F00F000A
:1020700004432C8106B0BDE8F08700000038014021
:1020800001468888C0F308007047000010B586B08C
:10209000044601210520FFF7E3F801218803FFF73B
:1020A000DFF84FF40070ADF8140018208DF8170019
:1020B00003208DF8160005A91848FEF75FFD4FF4C0
:1020C0008060ADF8140004208DF8170003208DF80F
:1020D000160005A91148FEF751FD01940020ADF846
:1020E0000800ADF80A00ADF80C00ADF810000C20A7
:1020F000ADF80E0001A90A48FFF756FF012240F291
:1021000025510748FFF72AFF01210548FFF70DFF7A
:1021100040210348FFF700FF06B010BD0008014052
:102120000038014000BFFEE7002109E0002201E085
:10213000531C9AB242F2B8239A42F9DB4B1C99B273
:102140008142F3DB7047FEF74BFA04E0FFF792F9A8
:10215000C820FFF7E9FFF9E74FF47F0C1CEAD01223
:102160001EBF1CEAD11392EA0C0F93EA0C0F00F089
:10217000858090EA010F48BF42F4807240F4000C61
:1021800041F400002CF07F4120F07F4000B58142F7
:10219000A2EB03020FF2081CACEB504EC0F10000A2
:1021A0009EF800E04FEA4E0E00FB0EFC38BF4900DF
:1021B0004FEA2C1C02F5FA020CFB0EF34FEACE1E7E
:1021C0004FEA112C4FEAC1210EEB635E42EB224233
:1021D0000EFB0CFC4FEA1C5300FB03114FEA112CC1
:1021E0004FEA01310EFB0CFC4FEADC4C00FB0C11FA
:1021F000C14228BF09184CEB03335DF804EB10EB28
:10220000410143EBC250B2F57C0F38BF704729D56E
:1022100012F0F00F1CBF00F1C04000F0004070470A
:10222000008182838485868788898B8C8D8E8F91AF
:102230009293959697999A9C9D9FA0A2A3A5A7A8D3
:10224000AAACAEB0B2B3B5B7B9BCBEC0C2C5C7C9FF
:10225000CCCED1D4D7D9DCDFE2E6E9ECF0F3F7FA63
:10226000FE0000004FEA400C0CF1807CBCF17E4F78
:1022700028BF7047B0F1C04000F02BB990EA010FC1
:102280000CEAD11348BF42F48072624538BF6345FF
:1022900007D213F47F0F16D080EA010000F000404F
:1022A000704710B500F0CFF8097EFC3E00F005B88D
:1022B00080EA010000F00040704780EA010000F071
:1022C000004000F006B912F47F0F04BF02487047C7
:1022D00080EA010000F0FDB80000C07FC10DD1F11F
:1022E0009E0206DB4FEA002343F0004323FA02F08C
:1022F0007047004207D54FEA4001B1F1FE4F02D2CC
:102300004FF00000704710B500F09DF8499224800E
:10231000002070476FEA200070470000B0FA80F399
:1023200010FA03F2C3F19D030AD0D90501EB122084
:10233000530638BF704700F1010008BF20F00100CC
:10234000704700004FF47F0C1CEAD0121EBF1CEA3D
:10235000D11392EA0C0F93EA0C0F00F0478090EA39
:10236000010F48BF42F480724FF0004C4CEA00204D
:102370004CEA012102EB0302A0FB0113A2F50002CB
:10238000002918BF43F001035B0028BF4FEA330365
:1023900042EB22425FEA132C4CEBC2502EBFBCEB47
:1023A000436FB2F57C0F70474FEA036CBCF1004FEE
:1023B00008BF20F00100B2F57C0F38BF70470BD585
:1023C00082F0FF0212F5803FC8BF704700F1C040A5
:1023D000D8BF00F00040704700F5000C5FEA4C0CDD
:1023E00048BF7047B0F1C04000F073B890EA010FE9
:1023F0000CEAD11348BF42F48072624538BF63458E
:1024000004D280EA010000F00040704710B500F0EF
:102410001AF800BF8900013E00F007B800F009B8C3
:102420005FEA410C5FEA1C6C08D080EA010000F012
:1024300050B85FEA400C5FEA1C6CF6D14FF00040E8
:10244000A0F5800070470EF1020E2EF0030E5EF82C
:10245000044B244204D44FEA4102B2F17F4F11D819
:102460004FEA4003B3F17F4F0CD80ED14FEAD07C36
:10247000B2F17F4F0CEB4C0C0CF1020C08BF4CEB93
:10248000D17C04E04FF0080C01E04FEAD17C0CEB6A
:102490004C0324FA03F404F00704B4F1040C06D24C
:1024A0000EEB840CBDE810404CF0010C6047DFE8F7
:1024B0000CF0070802024FF00040A0F5800010BDAC
:1024C0000846420018BFD2F1807288BF00F0004079
:1024D00010BDFF2141EAD050C0057047FC24000820
:1024E0000000002088000000280100088425000862
:1024F000880000208008000044010008000000005F
:1025000000000000000000000100000000000000CA
:1025100000000000000000000000000000000000BB
:1025200000000000000000000000000000000000AB
:10253000000000000000000000000000000000009B
:10254000000000000000000000000000000000008B
:10255000009A019A029A039A049A059A069A000030
:1025600000001A3B5C7D9E1A3B5C7D9E00000000D3
:102570000000010203040102030406070809020423
:042580000608000049
:04000005080000ED02
:00000001FF
