:020000040800F2
:100000002809002089010008B5160008C911000858
:10001000B1160008010600081526000800000000BF
:10002000000000000000000000000000351E000875
:10003000E507000800000000851A0008A10100087B
:10004000A3010008A3010008A3010008A301000800
:10005000A3010008A3010008010E0008A301000885
:10006000A3010008A3010008A3010008A3010008E0
:10007000A3010008A3010008A3010008A3010008D0
:10008000A3010008A3010008A3010008A3010008C0
:10009000A3010008A3010008A3010008A3010008B0
:1000A000A3010008A3010008A3010008A3010008A0
:1000B000A30100080D200008A3010008A301000807
:1000C000A3010008A3010008A3010008A301000880
:1000D000A301000891230008A3010008A301000860
:1000E000A3010008A3010008A301000800F002F822
:1000F00000F03AF80AA090E8000C82448344AAF188
:100100000107DA4501D100F02FF8AFF2090EBAE885
:100110000F0013F0010F18BFFB1A43F0010318473B
:10012000702C0000902C0000103A24BF78C878C1D1
:10013000FAD8520724BF30C830C144BF04680C60ED
:10014000704700000023002400250026103A28BF35
:1001500078C1FBD8520728BF30C148BF0B60704739
:100160001FB51FBD10B510BD00F036F81146FFF7E2
:10017000F7FF02F05FFB00F054F803B4FFF7F2FF63
:1001800003BC00F055F800000948804709480047C3
:10019000FEE7FEE7FEE7FEE7FEE7FEE7FEE7FEE737
:1001A000FEE7FEE704480549054A064B7047000094
:1001B000AD1F0008ED0000082803002028090020DA
:1001C0002805002028050020704770477047000070
:1001D00000487047C40200207546FFF7F9FFAE469D
:1001E00005006946534620F00700854618B020B543
:1001F000FFF7D8FFBDE820404FF000064FF00007A2
:100200004FF000084FF0000B21F00701AC46ACE8BE
:10021000C009ACE8C009ACE8C009ACE8C0098D462B
:1002200070470446AFF300802046FFF7A6FF0000AA
:1002300001491820ABBEFEE726000200704700000F
:1002400008B50121084601F055FC01214FF4027068
:1002500001F080FC4FF4004001F040FC0220ADF8BA
:10026000000000208DF803006946024800F0D8FE27
:1002700008BD0000000C014010B5FFF7E1FF00F0E1
:1002800001F810BD00B591B0384800F0E7F93848E2
:10029000069038480790002008900220099000201E
:1002A0000A9080200B9040000C9080000D90202040
:1002B0000E9000020F900020109006A92B4800F02D
:1002C00073FA0121294800F0BDF929484C3800F0A3
:1002D00069F8012000F042F90020019001208DF81A
:1002E00008008DF809004FF460200390002004906E
:1002F00002208DF8140001A91D484C3800F094F834
:100300000723012209211A484C3800F0B5F80723C9
:100310000222112116484C3800F0AEF80121144891
:100320004C3800F034F8012111484C3800F024F822
:100330000F484C3800F0FCF800BF0D484C3800F076
:1003400069F80028F9D10A484C3800F001F900BFDB
:1003500007484C3800F054F80028F9D1012104482E
:100360004C3800F0EAF811B000BD0000080002406F
:100370004C2401408C00002021B1826842F001022F
:10038000826003E0826822F001028260704721B13E
:10039000826842F48072826003E0826822F4807294
:1003A0008260704710B504461248844208D101218A
:1003B000401501F0DFFB0021601501F0DBFB17E0C9
:1003C0000D48844208D10121001501F0D3FB002122
:1003D000201501F0CFFB0BE00848844208D1012131
:1003E000C80301F0C7FB00214FF4004001F0C2FB3D
:1003F00010BD00000024014000280140003C0140E5
:10040000014600208A6802F004020AB1012000E0DF
:1004100000207047014600208A6802F008020AB1F5
:10042000012000E00020704730B502460020002384
:1004300050680F4C20400D790C6844EA0524204395
:10044000506090680B4C2040D1E902542C434D7908
:1004500044EA450420439060D06A20F470000C7C8C
:10046000641EE4B2234340EA0350D06230BD000072
:10047000FFFEF0FFFDF7F1FFF0B504460D4600204A
:100480000021092D11DDE068A5F10A0606EB4607FB
:10049000072606FA07F18843A5F10A0606EB460689
:1004A00003FA06F10843E0600CE0206905EB45071C
:1004B000072606FA07F1884305EB450603FA06F11D
:1004C00008432061072A0FDA606B561E06EB860789
:1004D0001F2606FA07F18843561E06EB860605FA24
:1004E00006F10843606322E00D2A0FDA206BD61F65
:1004F00006EB86071F2606FA07F18843D61F06EB90
:10050000860605FA06F10843206310E0E06AA2F1CE
:100510000D0606EB86071F2606FA07F18843A2F1AF
:100520000D0606EB860605FA06F10843E062F0BD0B
:10053000816841F008018160704721B1826842F40E
:10054000A002826003E0826822F4A0028260704709
:10055000816841F0040181607047000030B10749B3
:10056000096841F40001054A116005E00349096882
:1005700021F40001014A1160704700000824014085
:1005800010B501F063F84FF4E13001F0F7FF4FF4DC
:100590007A7001F0CBFE01F005FA10A001F092FA9A
:1005A000FFF76AFE01F062FB0221282001F0F8F853
:1005B00001F082F800F00AFE00BF00F0A5FF01285C
:1005C000FBD181070C4800F01DF800F0E9FC00F0B9
:1005D0000BF901200949087010BD00000D0A2052D6
:1005E0006167696E67466972655F466C792056324D
:1005F0002E322E32200D0A006F12833A2400002082
:1006000000BFFEE72DE9F04104460D4629460B48A0
:1006100002F07CFA804641464FF07E5002F084F9A9
:100620000746214602F01EF906463146204602F0F2
:100630007BF903490860BDE8F0810000DB0FC94089
:100640000400002021B1026842F00102026004E0CF
:1006500002684FF6FE731A400260704701684FF659
:10066000FE72114001600021016041608160C16043
:100670004B49884208D14A490839496841F00F017D
:10068000474A083A51608AE045491431884208D106
:1006900043490839496841F0F001414A083A51603C
:1006A0007DE03F492831884208D13D4908394968F1
:1006B00041F470613A4A083A516070E038493C317F
:1006C000884208D136490839496841F47041344AB2
:1006D000083A516063E032495031884208D13049CC
:1006E0000839496841F470212D4A083A516056E0B2
:1006F0002B496431884208D129490839496841F4B5
:100700007001274A083A516049E02549783188420A
:1007100008D123490839496841F07061204A083AF4
:1007200051603CE01F49884206D1011F096841F031
:100730000F01021F116032E01A491431884208D1BA
:100740001849091F096841F0F001164A121F11608B
:1007500025E014492831884208D11249091F096847
:1007600041F470610F4A121F116018E00D493C31CD
:10077000884208D10B49091F096841F47041094AB0
:10078000121F11600BE007495031884207D105491B
:10079000091F096841F47021024A121F1160704755
:1007A000080002400804024010B50022026847F623
:1007B000F0739A430C6A8B6823430C6923434C699A
:1007C00023438C692343CC6923434C6A23438C6ABB
:1007D00023431A430260CB6843600B6883604B6815
:1007E000C36010BD7047000010B500F001FA00F0C2
:1007F0001FF800F045F800F06BF80B49C88B0B4967
:1008000000F078FA094800880F280CD0012001F088
:10081000FFFF0549C88B0F2100F0E0FA002001F02E
:10082000F7FF01F0F1F810BD6A000020640000201D
:1008300010B50E4908880E4900F05CFA0B4948884B
:100840000C4900F057FA094988880B4900F052FA20
:100850000748008800B2094908800648008800B2AD
:1008600048800548008800B2888010BD6A000020DA
:10087000640000206600002068000020580000206E
:1008800010B50E49C8880E4900F034FA0B490889A2
:100890000C4900F02FFA094948890B4900F02AFA5F
:1008A0000748008800B2094908800648008800B25D
:1008B00048800548008800B2888010BD6A0000208A
:1008C0006400002066000020680000205E00002018
:1008D00010B548498889484900F00CFA4549C8894B
:1008E000464900F007FA4349088A454900F002FAF0
:1008F0004148008802F0F6F80446424902F014F834
:10090000414908603D48008802F0ECF804463F4940
:1009100002F00AF83C4948603948008802F0E2F8E1
:100920003949886008460068394908603648406897
:1009300048603548806888602E49488A2E4900F012
:10094000D9F92C49888A2D4900F0D4F92949C88A57
:100950002B4900F0CFF92848008802F0C3F804467C
:10096000284901F0E1FF2B4908602448008802F083
:10097000B9F80446254901F0D7FF264948602048C8
:10098000008802F0AFF823498860084600682249D1
:1009900008602048406848601E48806888601549A3
:1009A000088B154900F0A6F91249488B134900F04D
:1009B000A1F91049888B124900F09CF90E48008873
:1009C00002F090F804460F4901F0AEFF13490860A9
:1009D0000A48008802F086F804460C4901F0A4FF9A
:1009E0000E4948600648008802F07CF80B49886090
:1009F00010BD00006A000020640000206600002096
:100A000068000020000020413402002000007A44E9
:100A1000200200205C02002048020020700200201A
:100A200010B5012001F0F4FE43490868434902F083
:100A30006DF8044602F03AF8414908803E4948689A
:100A4000404902F063F8044602F030F83E4908805D
:100A50003949886802F02AF83C4908803C4988896D
:100A60003749098800F0BAF93949C88936490988EF
:100A700000F0B4F93649088A3449098800F0AEF923
:100A8000344908682D4902F041F8044602F00EF896
:100A90002B4908802F4948682A4902F037F8044654
:100AA00002F004F8284908802A49886801F0FEFF0E
:100AB000264908802649488A2149098800F08EF98C
:100AC0002349888A2049098800F088F92049C88A82
:100AD0001E49098800F082F91F490868174902F089
:100AE00015F8044601F0E2FF154908801A494868E4
:100AF000144902F00BF8044601F0D8FF12490880AF
:100B00001549886801F0D2FF104908801049088B08
:100B10000B49098800F062F90D49488B0A49098898
:100B200000F05CF90A49888B0849098800F056F9F9
:100B3000002001F06DFE10BD3402002000002041B5
:100B40006400002000007A44660000206800002055
:100B50006A0000205C02002070020020034606218B
:100B600006221248018812480288ABB1012B1BD122
:100B70003AB94EF6EE60814201D100207047012063
:100B8000FCE739B94EF6EE60824201D10120F5E76B
:100B90000020F3E7AB20F1E709B90020EEE70AB93E
:100BA0000120EBE7AB20E9E70020E7E700000108C0
:100BB0000004010810B504240B4800F091F9044624
:100BC000042C01D0204610BD0021074800F0C8F9D0
:100BD0000446042C01D02046F5E7044800F080F9D3
:100BE00004462046EFE70000000001080004010869
:100BF00010B501F011FD044600F054FC204610BD74
:100C00002DE9F84F074689460425DFF8D8A0364875
:100C100000904FF00008002400264FF0000B002049
:100C2000FFF79CFF8046B8F1010F05D1DFF8B8A0AF
:100C30002C48401C00900CE0B8F1000F06D1DFF802
:100C4000A4A00AF1010A2848009002E0AB20BDE808
:100C5000F88F4EF6EE61504600F082F90546042DFD
:100C600001D02846F3E700F01DFC4946384600F065
:100C700071F80646042E01D03046E8E700241CE057
:100C80001A4830F81400B84215D0184931F8140049
:100C9000174900F02FF88346BBF1010F0BD0134921
:100CA00031F814001249098800F054F80646042E61
:100CB00001D03046CBE7601C84B2102CE0DB0098FA
:100CC00000F00EF90546042D01D02846BFE70021AB
:100CD000504600F045F90546042D01D02846B6E7F8
:100CE0002846B4E7FF030108000001086A0000205D
:100CF000380000202DE9F04706460F46002545F252
:100D000055584FF00109114CA2460020FFF726FF6D
:100D10000546AB2D01D1BDE8F0870C4800EB852AD4
:100D20000B480068841E0AE0B4F80080B04505D185
:100D300034F8020C38804FF0000904E0241F0AF157
:100D400002008442F0D800BF4846E4E700000108F2
:100D50003C0000202DE9F04104460F460425002602
:100D6000DFF86C800120FFF7F9FE0646AB2E01D1BB
:100D7000BDE8F081701C174901EB802821E016487E
:100D800000680068401CB8B939461348006800F094
:100D9000E7F80546042D01D02846E9E721460E482C
:100DA0000068801C00F0DCF805460B480068001D58
:100DB000094908602846DBE707480068001D064926
:100DC0000860054800684045D9D38020D0E700007E
:100DD000FF070108FEFF00083C00002070B5054633
:100DE0000E46002431462846FFF7B4FF0446802C07
:100DF00004D131462846FFF703FF0446204670BD64
:100E000010B5012000F00EF820B1012000F004F828
:100E100000F094FC10BD000001490860704700001C
:100E200014040140014600200022074B1B6803EA1E
:100E30000102054B14331B680B4013B10AB10120AA
:100E400000E0002070470000000401400021234919
:100E50008279002A3AD00A46126803689A430B4600
:100E60001A600A1D126803689A430B1D1A60027902
:100E700011440A6803681A430A60184A0832126863
:100E800003689A43154B08331A601A1D12680368E9
:100E90009A43124B0C331A604279102A0ED11A1F52
:100EA000126803681A430D4B08331A601A1D126842
:100EB00003681A43094B0C331A600DE00749427965
:100EC00011440A6803681A430A6005E00279114474
:100ED0000A6803689A430A607047000000040140F2
:100EE00030B5044604254FF4302000F065F805467F
:100EF000042D17D10C48006940F002000A4908612E
:100F000008464461006940F0400008614FF4302019
:100F100000F052F805460448006941F6FD710840AA
:100F200001490861284630BD0020024004200B49D9
:100F3000C96801F0010109B101200EE00749C96843
:100F400001F0040109B1022007E00449C96801F079
:100F5000100109B1032000E0042070470020024086
:100F600070B504460D460426F00200F025F806464A
:100F7000042E11D10948006940F0010007490861B9
:100F80002580F00200F018F806460448006941F692
:100F9000FE71084001490861304670BD00200240E2
:100FA0000248034948600348486070472301674589
:100FB00000200240AB89EFCD00B502460423FFF7C5
:100FC000B5FF034603E0FFF7B1FF0346521E012BB6
:100FD00001D1002AF7D102B90523184600BD00004F
:100FE00030B500228B071C0F0F2303FA04F20B4BC2
:100FF0008C1053F824309343084C8D1044F825305E
:1010000023468C1053F824308C07240F00FA04F484
:101010002343024C8D1044F8253030BD08000140B8
:101020002DE9F0410246002500260020002300247F
:10103000002791F803C00CF00F0591F803C00CF0E5
:10104000100CBCF1000F03D091F802C04CEA05056A
:1010500091F800C0BCF1000F31D0146800202BE0E3
:101060004FF0010C0CFA00F3B1F800C00CEA0306D3
:101070009E4220D183004FF00F0C0CFA03F7BC43C3
:1010800005FA03FC4CEA040491F803C0BCF1280FF4
:1010900006D14FF0010C0CFA00FCC2F814C00AE0B3
:1010A00091F803C0BCF1480F05D14FF0010C0CFAC8
:1010B00000FCC2F810C0401C0828D1D31460B1F85D
:1010C00000C0BCF1FF0F34DD546800202EE000F1B9
:1010D000080C4FF0010808FA0CF3B1F800C00CEA54
:1010E00003069E4221D183004FF00F0C0CFA03F748
:1010F000BC4305FA03FC4CEA040491F803C0BCF1BC
:10110000280F05D100F1080C08FA0CF8C2F8148079
:1011100091F803C0BCF1480F07D100F1080C4FF063
:10112000010808FA0CF8C2F81080401C0828CED339
:101130005460BDE8F0810000F0B50A4600230024A9
:101140000021002500F00046B6F1004F02D11D4EEF
:10115000F16901E01B4E7168C0F3034583B200F4EE
:101160004016B6F5401F08D121F07061154E766823
:1011700026F07066134F7E6012E000F48016B6F51C
:10118000801F06D1032606FA05F4A14341F07061E1
:1011900006E0460D360103FA06F6B14341F07061F0
:1011A00022B1460D360103FA06F6314300F000463F
:1011B000B6F1004F02D1034EF16101E0014E7160C2
:1011C000F0BD00000000014000BFFEE708B50121AE
:1011D000082000F0BFFC4FF44870ADF80000032079
:1011E0008DF8020010208DF8030069461148FFF7C2
:1011F00017FF4FF48060ADF8000003208DF8020067
:1012000014208DF8030069460A48FFF709FF4FF4E0
:101210000060ADF8000003208DF8020014208DF866
:10122000030069460348FFF7FBFE03A000F04AFCF9
:1012300008BD0000000C01400D0A20C4A3C4E2490F
:1012400032432020B3F5CABCBBAFCDEAB3C9A3A1DA
:101250000000000010B54FF480600E4908600420C3
:1012600000F01AF94FF400600A49091F08600420D1
:1012700000F012F94FF480600649091F086004204D
:1012800000F00AF94FF4806002490860042000F081
:1012900003F910BD140C014070B508250024280284
:1012A00017490860042000F0F7F819E04FF4806057
:1012B0001349091D0860042000F0EEF800BF4FF448
:1012C00080600F490860042000F0E6F86006040E14
:1012D0000B480838006800F4006008B144F00104CD
:1012E0002800A5F10101CDB2E0D14FF4806004499E
:1012F000091D0860042000F0CFF8204670BD0000F2
:10130000100C014010B54FF480601C4908600420A7
:1013100000F0C2F84FF400601849091F086004206B
:1013200000F0BAF84FF480601449091F08600420E7
:1013300000F0B2F811480C38006808B9012000E04C
:10134000002000F4006008B1002010BD4FF40060E0
:101350000A490860042000F09FF808480C3800682B
:1013600000F4006008B10020EFE74FF4006003498B
:101370000860042000F090F80120E6E7140C01401A
:1013800010B54FF480600E490860042000F084F826
:101390004FF400600A490860042000F07DF84FF423
:1013A00080600749091F0860042000F075F84FF4B9
:1013B00000600349091F0860042000F06DF810BDAB
:1013C000140C014010B54FF48060164908600420E9
:1013D00000F062F84FF400601249091F0860042011
:1013E00000F05AF84FF480600E49091F086004208D
:1013F00000F052F80B480C38006800F4006040B16F
:101400004FF4806007490860042000F045F8002090
:1014100010BD4FF4806003490860042000F03CF8E0
:101420000120F5E7140C014070B50446082523E0BF
:101430004FF4806017490860042000F02DF804F094
:10144000800040B14FF400601249091F0860042079
:1014500000F022F806E04FF400600E490860042016
:1014600000F01AF86006040E4FF480600949091F65
:101470000860042000F010F82800A5F10101CDB2A9
:10148000D6D14FF4806003490860042000F004F8CE
:1014900070BD0000140C014000E0401E0028FCD18B
:1014A0007047000070B5042600240120FFF756FBAA
:1014B0000446AB2C06D1124800EB84201149086089
:1014C000AB2070BD0E4800EB84200E490860601C04
:1014D0000B49891E01EB80250CE00A480068006872
:1014E000401C10B904263046EBE706480068001D92
:1014F0000449086003480068A842EED38020E0E772
:10150000000001083C00002010B5752000F008FD27
:10151000682802D0982860D12EE032A000F0D2FADC
:1015200000216B2000F022FD44F62060FFF7B4FF9D
:101530000021192000F01AFD44F62060FFF7ACFFEF
:1015400003211A2000F012FD44F62060FFF7A4FFEB
:1015500018211B2000F00AFD44F62060FFF79CFFD5
:101560001F211C2000F002FD44F62060FFF794FFCD
:1015700021A000F0A7FA32E026A000F0A3FA802113
:101580006B2000F0F3FC2848FFF786FF00211920AC
:1015900000F0ECFC03216B2000F0E8FC2348FFF78F
:1015A0007BFF03211A2000F0E1FC18211B2000F032
:1015B000DDFC1F211C2000F0D9FC04211D2000F0BF
:1015C000D5FC1221372000F0D1FC0121382000F099
:1015D000CDFC17A000F076FA01E0002010BD00BF9E
:1015E0000120FBE70D0A204D5055363035302020C4
:1015F000D5FDB3A3A3A100000D0A204D50553630F0
:1016000035302020B3F5CABCBBAFCDEAB3C9A3A126
:10161000000000000D0A204D505536303530412075
:1016200020D5FDB3A3A3A10080841E00400D0300BC
:101630000D0A204D505536303530412020B3F5CAC3
:10164000BCBBAFCDEAB3C9A3A100000008B501211E
:10165000192000F07FFA01211148FFF76DFD0121EB
:101660001048FFF769FD0820ADF8000003208DF851
:10167000020010208DF8030069460B48FFF7D0FCEC
:101680004FF40050ADF8000003208DF80200102048
:101690008DF8030069460548FFF7C2FC08BD00004D
:1016A0000004300000023000000C01400010014036
:1016B00000BFFEE7704700001CB50522104930202E
:1016C00000F0FAF805226946102000F0C1F8002465
:1016D00008E01DF804000A49095D884200D003E0D3
:1016E000601CC4B2052CF4DB00BF052C03D105A09F
:1016F00000F0E8F902E00AA000F0E4F91CBD0000E7
:10170000930000200D0A204E524632344C303120D6
:10171000B3F5CABCBBAFB3C9B9A6A3A10000000012
:101720000D0A204E524632344C303120B3F5CABC3B
:10173000BBAFCAA7B0DCA3A10000000070B50720B2
:1017400000F0A6F8044604F0400098B1602000F0D4
:101750009FF80546202D08D12A460F49612000F048
:1017600077F800200D49088003E0FF21E22000F017
:10177000C1F800BF04F0100030B104F0010018B14E
:10178000FF21E12000F0B6F800F052F821462720B2
:1017900000F0B0F870BD0000840200209E00002020
:1017A00070B505460C4604201E490860FF21E12063
:1017B00000F0A0F8FF21E22000F09CF805221A4971
:1017C000302000F079F8052218492A2000F074F83A
:1017D0000121212000F08EF80121222000F08AF85A
:1017E0001A21242000F086F82946252000F082F8EE
:1017F0002021312000F07EF80F21262000F07AF819
:10180000012C04D10E21202000F074F805E0022CF8
:1018100003D10F21202000F06DF804200149091F99
:10182000086070BD140C0140930000209800002057
:1018300010B50420054908600F21202000F05AF857
:1018400004200249091F086010BD0000140C01406B
:101850002DE9F04107460D46164610200B49086059
:10186000384600F0CBFA8046002405E0002000F066
:10187000C5FA2855601CC4B2B442F7DB10200349F6
:10188000091F08604046BDE8F081000014080140CF
:1018900070B50446102007490860204600F0AEFAF3
:1018A000002000F0ABFA054610200249091F08602D
:1018B000284670BD140801402DE9F04107460D4649
:1018C000164610200A490860384600F097FA80460C
:1018D000002404E0285D00F091FA601CC4B2B44218
:1018E000F8DB10200249091F08604046BDE8F0817E
:1018F0001408014070B505460C46102007490860E1
:10190000284600F07BFA0646204600F077FA1020C1
:101910000249091F0860304670BD000014080140EC
:1019200070B5002100230F22C47804B3154C24683D
:1019300004F4E064C4F5E064210AC1F10403CA4080
:10194000447804FA03F184781440214309010E4CD1
:101950000678A155047804F01F050124AC400578F1
:101960006D11AD0005F1E025C5F8004109E00478EE
:1019700004F01F050124AC40044D0678761145F8AB
:10198000264070BD0CED00E000E400E080E100E0E6
:1019900002490143024A1160704700000000FA0545
:1019A0000CED00E008B54FF4A060FFF7F1FF1D203B
:1019B0008DF8000000208DF8010001208DF8020054
:1019C0008DF803006846FFF7ABFF06208DF8000096
:1019D00001208DF8010000208DF8020001208DF813
:1019E00003006846FFF79CFF25208DF800000220C9
:1019F0008DF8010000208DF8020001208DF8030011
:101A00006846FFF78DFF08BD10B5154815490860F9
:101A1000154848604FF082408860114813490860BB
:101A2000114848604FF082408860114811490860B1
:101A3000002048604FF0804088600D480E490860E3
:101A4000002048604FF0804088604FF082400B4992
:101A500008600B4848608860FEF7E2FF10BD000098
:101A6000CDCC9C40340200200AD7A33C20020020A9
:101A70003333B33F5C020020480200207002002094
:101A8000CDCCCC3D7047000010B504460A48017823
:101A90000078401C084A10700848445408480088E0
:101AA00000F0800030B9012240F2277104480C3860
:101AB00000F0CCFC10BD00002D000020B80000207C
:101AC0000C38014070B505462C4603E02078FFF73E
:101AD000DBFF641C20780028F8D170BD014600208F
:101AE000034A506820F440400843506070470000AB
:101AF0000010024029B1064A52690243044B5A6160
:101B000004E0034A52698243014B5A617047000066
:101B10000010024029B1064AD2690243044BDA613F
:101B200004E0034AD2698243014BDA617047000046
:101B30000010024029B1064A12690243044B1A619F
:101B400004E0034A12698243014B1A6170470000A6
:101B50000010024029B1064A92690243044B9A617F
:101B600004E0034A92698243014B9A617047000086
:101B70000010024029B1064AD2680243044BDA60E1
:101B800004E0034AD2688243014BDA6070470000E8
:101B90000010024030B500210022002400232D4D0A
:101BA0006D6805F00C0121B1042905D0082923D165
:101BB00005E0294D056022E0284D05601FE0254D18
:101BC0006D6805F47012234D6D6805F480340225AC
:101BD00005EB92421CB9224D554305600BE01D4DAB
:101BE0006D6805F400351DB11B4D5543056002E0DD
:101BF0001A4D5543056002E0174D056000BF00BF58
:101C0000144D6D6805F0F0010909164D6B5C05680F
:101C1000DD4045600F4D6D6805F4E061090A114D26
:101C20006B5C4568DD4085600A4D6D6805F4605168
:101C3000C90A0C4D6B5C4568DD40C560054D6D689B
:101C400005F44041890B084D6B5CC568B5FBF3F5A5
:101C5000056130BD0010024000127A000024F4003B
:101C600000093D00A1000020B100002000B589B0AE
:101C700001211920FFF76EFF01210803FFF76AFF1A
:101C8000E020ADF80C0001208DF80E0018208DF832
:101C90000F0003A93348FFF7C3F90420ADF80C0087
:101CA00001208DF80E0010208DF80F0003A92E489A
:101CB000FFF7B6F91020ADF80C0001208DF80E00EA
:101CC00010208DF80F0003A92648FFF7A9F901207D
:101CD000ADF80C0003208DF80E0048208DF80F00A1
:101CE00003A92148FFF79CF900210120FFF778F9AB
:101CF0000120019000208DF808000C208DF80900CB
:101D000001208DF80A0001A8FFF7A0F8102015495E
:101D1000103108600020ADF810004FF48270ADF86B
:101D200012000020ADF81400ADF81600ADF8180050
:101D30004815ADF81A001020ADF81C000020ADF8D1
:101D40001E000720ADF8200004A9084800F038F86C
:101D50000121064800F01AF805A0FFF7B3FE09B00C
:101D600000BD000000080140000C014000300140AF
:101D70000D0A20535049312020202020B3F5CABC41
:101D8000BBAFCDEAB3C9A3A10000000021B1028816
:101D900042F04002028004E002884FF6BF731A400E
:101DA000028070470246002013890B400BB10120CE
:101DB00000E00020704701468889704781817047A4
:101DC00010B50022028802F441520B884C8823434C
:101DD0008C882343CC8823430C8923434C89234399
:101DE0008C892343CC8923431A430280838B4FF28F
:101DF000FF74234083830B8A038210BD10B5044611
:101E000000BF02210A48FFF7CDFF0028F9D0214684
:101E10000748FFF7D3FF00BF01210548FFF7C2FFC6
:101E20000028F9D00248FFF7C6FFC0B210BD00007D
:101E300000300140704710B500F002F810BD0000FE
:101E40000CB50020019000903348006840F48030C9
:101E50003149086000BF3048006800F4003000904D
:101E60000198401C0190009818B90198B0F5A06F36
:101E7000F1D12948006800F4003010B10120009031
:101E800001E0002000900098012843D12348006819
:101E900040F01000214908600846006820F0030067
:101EA00008600846006840F0020008601A48406870
:101EB000194948600846406848600846406840F450
:101EC000806048600846406820F47C1048600846FE
:101ED000406840F4F81048600846006840F08070A0
:101EE000086000BF0C48006800F000700028F9D0BE
:101EF0000948406820F003000749486008464068E8
:101F000040F00200486000BF0348406800F00C0049
:101F10000828F9D10CBD000000100240002002404A
:101F200070B50446FFF7EEF908B9002070BDD02067
:101F3000FFF77AFAFFF746FA18B9FFF721FA0020FF
:101F4000F4E72046FFF770FAFFF73CFAFFF7DAF9FB
:101F5000D120FFF769FAFFF735FAFFF79DF905463B
:101F6000FFF778F9FFF70CFA2846DFE770B505466A
:101F70000C46FFF7C7F908B9002070BDD020FFF765
:101F800053FAFFF71FFA18B9FFF7FAF90020F4E740
:101F90002846FFF749FAFFF715FA2046FFF744FAFB
:101FA000FFF710FAFFF7ECF90120E6E710B5134848
:101FB000006840F001001149086008464068104977
:101FC00008400E494860084600680E4908400B4921
:101FD00008600846006820F48020086008464068D1
:101FE00020F4FE0048604FF41F008860FFF723FFD5
:101FF0004FF000600449086010BD0000001002406E
:102000000000FFF8FFFFF6FE08ED00E01148008831
:1020100000F00100D8B14FF6FE700E4908800E485E
:10202000007800B970470D480068401C0B490860F3
:102030000B480078401C0A4908700A480078401C88
:102040000849087008480078401C0749087000BF1C
:10205000E8E70000100400402400002030000020C9
:10206000000000200100002002000020CA4302827C
:10207000704721B1028842F00102028004E0028828
:102080004FF6FE731A4002807047000010B50446F8
:102090006848844208D10121C014FFF76BFD00217C
:1020A000E014FFF767FDC4E0B4F1804F08D10121CF
:1020B0000846FFF73FFD00210120FFF73BFDB8E098
:1020C0005D48844208D101210220FFF733FD002141
:1020D0000220FFF72FFDACE05848844208D10121CF
:1020E0000420FFF727FD00210420FFF723FDA0E0D7
:1020F0005348844208D101210820FFF71BFD00212D
:102100000820FFF717FD94E04E48844208D10121D2
:102110001020FFF70FFD00211020FFF70BFD88E0D6
:102120004948844208D101212020FFF703FD002106
:102130002020FFF7FFFC7CE04448844208D10121C5
:102140004014FFF717FD00216014FFF713FD70E046
:102150003F48844209D10121C804FFF70BFD00214B
:102160004FF40020FFF706FD63E03A48844209D1AE
:1021700001210805FFF7FEFC00214FF48010FFF756
:10218000F9FC56E03448844209D101214805FFF7A3
:10219000F1FC00214FF40010FFF7ECFC49E02F4860
:1021A000844208D101214020FFF7C4FC00214020D7
:1021B000FFF7C0FC3DE02A48844208D1012180207D
:1021C000FFF7B8FC00218020FFF7B4FC31E0254880
:1021D000844208D101218015FFF7ACFC0021A01535
:1021E000FFF7A8FC25E02048844209D1012108041A
:1021F000FFF7C0FC00214FF48030FFF7BBFC18E074
:102200001A48844209D101214804FFF7B3FC002198
:102210004FF40030FFF7AEFC0BE01548844208D1C4
:1022200001218804FFF7A6FC00214FF48020FFF76E
:10223000A1FC10BD002C014000040040000800403B
:10224000000C004000100040001400400034014029
:10225000004C014000500140005401400018004073
:10226000001C0040002000400040014000440140AC
:10227000004801401AB183890B43838102E08389BE
:102280008B43838170470000002202881D4B9842D7
:102290000ED01D4B98420BD0B0F1804F08D01B4B95
:1022A000984205D01A4B984202D01A4B984204D15A
:1022B0004FF68F731A404B881A43174B984207D03A
:1022C000164B984204D04FF6FF431A40CB881A436E
:1022D00002808B8883850B8803850A4B98420BD03C
:1022E000094B984208D00E4B984205D00D4B9842AE
:1022F00002D00D4B984201D10B7A038601238382D1
:1023000070470000002C01400034014000040040F0
:1023100000080040000C0040001000400014004085
:102320000040014000440140004801403EB50446E1
:1023300001210220FFF7EEFB124804801248FFF74C
:10234000A5FE124890FBF4F080B2ADF804004720DF
:10235000ADF800000020ADF80600ADF802006946B7
:102360000948FFF791FF01210748FFF77FFE01228F
:1023700011460548FFF77EFF01210348FFF779FE6C
:102380003EBD0000340000200004004040420F0029
:1023900008B50821184800F04CF810B1164800F0B4
:1023A000E7F81548008800F04000C0B113480178F4
:1023B0000078401C114A10701148405C0E49091DFC
:1023C0000880104600780F490978884207D10A48EA
:1023D0000C30008820F0800007490C310880064846
:1023E000008800F0200028B10348001D008840B29A
:1023F000009000BF08BD0000003801402C00002004
:10240000B80000202D00002001F40072B2F5007F1A
:1024100000D100BFCA430280704721B1828942F4D3
:102420000052828104E082894DF6FF731A40828156
:10243000704702460020B1F5007F00D100BF13882D
:102440000B400BB1012000E000207047F0B50346BF
:10245000002400260025002040F66A17B94200D16A
:1024600000BF1846C1F3421401F01F06012707FA06
:1024700006F5012C01D10C3004E0022C01D1103002
:1024800000E014301AB107682F43076002E00768C4
:10249000AF430760F0BD00002DE9F04786B0054668
:1024A0000E460024A24600BFA1460027B08900B115
:1024B00000BF2F462C8A4CF6FF700440F08804437E
:1024C0002C82AC894EF6F3100440B0883189084361
:1024D000718908430443AC81AC8A4FF6FF40044045
:1024E000B0890443AC8201A8FFF754FB1F48874220
:1024F00002D1DDF810A001E0DDF80CA0A88900F4FD
:10250000004040B10AEBCA0000EB0A1031684900F4
:10251000B0FBF1F807E00AEBCA0000EB0A103168E3
:102520008900B0FBF1F86420B8FBF0F00401200949
:10253000642101FB1089A88900F4004040B13220D9
:1025400000EBC900B0FBF1F000F00700044308E025
:10255000322000EB09106421B0FBF1F000F00F0015
:1025600004432C8106B0BDE8F0870000003801402C
:1025700001468888C0F308007047000010B586B097
:10258000044601210520FFF7E5FA01218803FFF742
:10259000E1FA4FF40070ADF8140018208DF8170020
:1025A00003208DF8160005A91848FEF739FD4FF4F1
:1025B0008060ADF8140004208DF8170003208DF81A
:1025C000160005A91148FEF72BFD01940020ADF877
:1025D0000800ADF80A00ADF80C00ADF810000C20B2
:1025E000ADF80E0001A90A48FFF756FF012240F29C
:1025F00025510748FFF72AFF01210548FFF70DFF86
:1026000040210348FFF700FF06B010BD000801405D
:102610000038014000BFFEE72DE9F0474FF0060A01
:10262000062600250027A8464FF0FF397448B0F869
:1026300000A0744806885FEA0A0075D0A0F56E40D5
:10264000EE3858B3A0F58850113800286DD146B93E
:102650006B48FEF745FC0446042C1ED02046BDE81E
:10266000F0874EF6EE60864210D16548FEF738FCE2
:102670000446042C01D02046F1E700216148FEF712
:102680006FFC0446042C08D02046E8E7FEF792FAD7
:102690000446042C01D02046E1E7AEE07EBB0025D5
:1026A00022E05748C088584931F81510884201D1B6
:1026B0000FFA85F94D4515D0534931F815005349A6
:1026C000FEF718FB8046B8F1010F0BD04E4931F8E8
:1026D00015004E490988FEF73DFB0746042F01D03F
:1026E0003846BCE7681C85B2102DDADB002144486F
:1026F000FEF736FC0446042C02D02046AFE707E084
:102700004048FEF7EDFB0446042C1FD02046A6E708
:102710004FF6FF70864212D13A48FEF7E1FB0446BD
:10272000042C03D020469AE711E05EE000213448F3
:10273000FEF716FC0446042C08D020468FE7FEF76F
:1027400039FA0446042C01D0204688E755E036B912
:10275000FEF730FA0446042C46D020467FE74FF6B9
:10276000FF70864207D12748FEF7BAFB0446042CC7
:102770003AD0204673E7002523E02248801D0088D8
:10278000214931F81510884201D10FFA85F94D45DC
:1027900015D01D4931F815001C49FEF7ABFA8046EB
:1027A000B8F1010F0BD0184931F815001749098805
:1027B000FEF7D0FA0746042F01D038464FE7681CD1
:1027C00085B2102DD9DB00210E48FEF7C9FB044667
:1027D000042C01D0204642E70948FEF781FB04465D
:1027E000042C01D020463AE707E0FEF7E3F904465F
:1027F000042C01D0204632E700BF00BF04202EE7A2
:1028000000000108000401086A00002038000020D0
:1028100080F310887047002109E0002201E0531C7A
:102820009AB242F2B8239A42F9DB4B1C99B2814228
:10283000F3DB7047FDF7A4FE0FE008480078AA28F4
:1028400004D14FF400500649086103E04FF40050F2
:10285000034948613220FFF7DEFFEEE784020020E3
:102860000010014090EA010F48BF81F0004100F1E3
:102870002082421A3CBF801A89184FEAD0524FF08A
:102880007F4C1CEA410FA2EBD15318BF9CEA026FA8
:1028900000F03B804FF0004C4CEA00204CEA012154
:1028A00021FA03FC10EB0C0C1ED202F1FF325FEA9E
:1028B0001C2040EBC25038BF70471CF07F0F4FEA1E
:1028C000400C18BFBCF17F4F38BF7047C3F12003E5
:1028D000994008BF20F00100BCF17F4F38BF70471E
:1028E000A0F1C04000F0D9B94FEA3C00000A40EB2B
:1028F000C25028BF1CF0FF0F4FEA400CE6D018BFB3
:10290000BCF17F4F38BF7047EAE79CEA026F05D001
:1029100010EA5C0F08BF00F00040704710B500F0EF
:1029200076F900BF64FBBE3E4FF47F0C1CEAD01268
:102930001EBF1CEAD11392EA0C0F93EA0C0F00F0B1
:10294000858090EA010F48BF42F4807240F4000C89
:1029500041F400002CF07F4120F07F4000B581421F
:10296000A2EB03020FF2081CACEB504EC0F10000CA
:102970009EF800E04FEA4E0E00FB0EFC38BF490007
:102980004FEA2C1C02F5FA020CFB0EF34FEACE1EA6
:102990004FEA112C4FEAC1210EEB635E42EB22425B
:1029A0000EFB0CFC4FEA1C5300FB03114FEA112CE9
:1029B0004FEA01310EFB0CFC4FEADC4C00FB0C1122
:1029C000C14228BF09184CEB03335DF804EB10EB50
:1029D000410143EBC250B2F57C0F38BF704729D597
:1029E00012F0F00F1CBF00F1C04000F00040704733
:1029F000008182838485868788898B8C8D8E8F91D8
:102A00009293959697999A9C9D9FA0A2A3A5A7A8FB
:102A1000AAACAEB0B2B3B5B7B9BCBEC0C2C5C7C927
:102A2000CCCED1D4D7D9DCDFE2E6E9ECF0F3F7FA8B
:102A3000FE0000004FEA400C0CF1807CBCF17E4FA0
:102A400028BF7047B0F1C04000F027B990EA010FED
:102A50000CEAD11348BF42F48072624538BF634527
:102A600007D213F47F0F16D080EA010000F0004077
:102A7000704710B500F0CBF8097EFC3E00F005B8B9
:102A800080EA010000F00040704780EA010000F099
:102A9000004000F002B912F47F0F04BF02487047F3
:102AA00080EA010000F0F9B80000C07F41000B0E81
:102AB000D3F19E0208D950F400034FEA032323FA0E
:102AC00002F048BF4042704710B500F0A0F800BFC8
:102AD00049922480002070476FF0004282EA200073
:102AE00070470000B0FA80F310FA03F2C3F19D03BF
:102AF0000AD0D90501EB1220530638BF704700F108
:102B0000010008BF20F00100704700004FF47F0C67
:102B10001CEAD0121EBF1CEAD11392EA0C0F93EAF2
:102B20000C0F00F0478090EA010F48BF42F480721A
:102B30004FF0004C4CEA00204CEA012102EB03026A
:102B4000A0FB0113A2F50002002918BF43F0010306
:102B50005B0028BF4FEA330342EB22425FEA132CAB
:102B60004CEBC2502EBFBCEB436FB2F57C0F7047ED
:102B70004FEA036CBCF1004F08BF20F00100B2F532
:102B80007C0F38BF70470BD582F0FF0212F5803FF3
:102B9000C8BF704700F1C040D8BF00F00040704788
:102BA00000F5000C5FEA4C0C48BF7047B0F1C04024
:102BB00000F073B890EA010F0CEAD11348BF42F459
:102BC0008072624538BF634504D280EA010000F09C
:102BD0000040704710B500F01AF800BF8900013EB0
:102BE00000F007B800F009B85FEA410C5FEA1C6C1E
:102BF00008D080EA010000F050B85FEA400C5FEABC
:102C00001C6CF6D14FF00040A0F5800070470EF12B
:102C1000020E2EF0030E5EF8044B244204D44FEA59
:102C20004102B2F17F4F11D84FEA4003B3F17F4F19
:102C30000CD80ED14FEAD07CB2F17F4F0CEB4C0C8C
:102C40000CF1020C08BF4CEBD17C04E04FF0080CF7
:102C500001E04FEAD17C0CEB4C0324FA03F404F0BE
:102C60000704B4F1040C06D20EEB840CBDE810404E
:102C70004CF0010C6047DFE80CF0070802024FF04F
:102C80000040A0F5800010BD0846420018BFD2F1F8
:102C9000807288BF00F0004010BDFF2141EAD05093
:102CA000C005704790EA010F48BF81F000413FF531
:102CB000E0AD421A04D882F00042A0EB02001144B9
:102CC0004FEAD0524FF07F4C1CEA410FA2EBD15398
:102CD00018BF9CEA026F4AD04FF0004C4CEA00202B
:102CE0004CEA012121FA03FCB0EB0C0C0FD412F0DA
:102CF000FE0F36D05FEA4C001DD5001240EBC250EB
:102D000038BF70471CF03F0F18BF70470BE0A2F1AF
:102D100001025FEA1C2040EBC25038BF70471CF034
:102D20007F0F18BF7047C3F12003994014BF401EA6
:102D300020F00100704780084FEA122308BF704757
:102D4000B0FA80FCA2EB0C02CCF1280C60FA0CF07B
:102D500093EA122F04BF00EBC25070474FEAC370D2
:102D60007047130A5FEADC1008BF7047F6E79CEA79
:102D7000026F04D010EA5C0F08BF0020704710B546
:102D8000FFF745FF40DFF63E81F00040704700004E
:102D9000B02D000800000020B80000002801000845
:102DA000682E0008B80000207008000044010008E8
:102DB0000000000000000000000000000000000013
:102DC0000000000000000000000000000000000003
:102DD00000000000000000000000000000000000F3
:102DE00000000000000000000000000000000000E3
:102DF00000000000000000000000000000000000D3
:102E000000000000000000000000000000000000C2
:102E100000000000000000000000009A019A029AE1
:102E2000039A049A059A069A079A089A099A109A98
:102E3000129A139A149A159A0000000000000000DC
:102E40000000001A3B5C7D9E1A3B5C7D9E000000EA
:102E50000000000000010203040102030406070849
:082E600009020406080000004D
:04000005080000ED02
:00000001FF
