:020000040800F2
:10000000B009002089010008052A00080D1D00081C
:1000100059290008D50600085D47000800000000C7
:10002000000000000000000000000000F939000896
:100030005910000800000000CD300008A1010008A0
:10004000A3010008A3010008A3010008A301000800
:10005000A3010008A301000815170008A301000868
:10006000A3010008A3010008A3010008A3010008E0
:10007000A3010008A3010008A3010008A3010008D0
:10008000A3010008A3010008A3010008A3010008C0
:10009000A3010008A3010008A3010008A3010008B0
:1000A000A3010008A3010008A3010008A3010008A0
:1000B000A3010008193C0008A3010008A3010008DF
:1000C000A3010008A3010008A3010008A301000880
:1000D000A3010008D9440008A3010008A3010008F7
:1000E000A3010008A3010008A301000800F002F822
:1000F00000F03AF80AA090E8000C82448344AAF188
:100100000107DA4501D100F02FF8AFF2090EBAE885
:100110000F0013F0010F18BFFB1A43F0010318473B
:100120002864000048640000103A24BF78C878C1F1
:10013000FAD8520724BF30C830C144BF04680C60ED
:10014000704700000023002400250026103A28BF35
:1001500078C1FBD8520728BF30C148BF0B60704739
:100160001FB51FBD10B510BD00F044F81146FFF7D4
:10017000F7FF04F09FFF00F062F803B4FFF7F2FF0F
:1001800003BC00F063F800000948804709480047B5
:10019000FEE7FEE7FEE7FEE7FEE7FEE7FEE7FEE737
:1001A000FEE7FEE704480549054A064B7047000094
:1001B000B93B0008ED000008B0030020B0090020A2
:1001C000B0050020B005002070477047704710B59B
:1001D00000F008F8006810BD10B5044600F002F801
:1001E000046010BD004870474C0300200048704771
:1001F0004C0300207546FFF7F9FFAE46050069463F
:10020000534620F00700854618B020B5FFF7CAFF17
:10021000BDE820404FF000064FF000074FF0000807
:100220004FF0000B21F00701AC46ACE8C009ACE888
:10023000C009ACE8C009ACE8C0098D467047044667
:10024000AFF300802046FFF798FF00000149182017
:10025000ABBEFEE726000200704700002DE9F04724
:1002600005460C46B5F90010B4F90020881A05F0CF
:100270009DFE814625480168484605F0F7FE074681
:10028000B4F9000005F092FE8046394605F022FDE3
:10029000064605F04FFE00B22080B5F90210B4F911
:1002A0000220881A05F082FE8146184801684846F7
:1002B00005F0DCFE0746B4F9020005F077FE804643
:1002C000394605F007FD064605F034FE00B26080B1
:1002D000B5F90410B4F90420881A05F067FE8146C8
:1002E0000A480168484605F0C1FE0746B4F9040013
:1002F00005F05CFE8046394605F0ECFC064605F04C
:1003000019FE00B2A080BDE8F087000020000020A8
:1003100008B50121084603F0DFF801214FF402700F
:1003200003F00AF94FF4004003F0CAF80220ADF8D8
:10033000000000208DF803006946024801F0FAFA37
:1003400008BD0000000C014010B5FFF7E1FF00F010
:1003500001F810BD00B591B0384800F0B9FD38483B
:10036000069038480790002008900220099000204D
:100370000A9080200B9040000C9080000D9020206F
:100380000E9000020F900020109006A92B4800F05C
:1003900045FE0121294800F08FFD29484C3800F026
:1003A00069F8012000F042F90020019001208DF849
:1003B00008008DF809004FF460200390002004909D
:1003C00002208DF8140001A91D484C3800F094F863
:1003D0000723012209211A484C3800F0B5F80723F9
:1003E0000222112116484C3800F0AEF801211448C1
:1003F0004C3800F034F8012111484C3800F024F852
:100400000F484C3800F0FCF800BF0D484C3800F0A5
:1004100069F80028F9D10A484C3800F001F900BF0A
:1004200007484C3800F054F80028F9D1012104485D
:100430004C3800F0EAF811B000BD0000080002409E
:100440004C240140AC00002021B1826842F001023E
:10045000826003E0826822F001028260704721B16D
:10046000826842F48072826003E0826822F48072C3
:100470008260704710B504461248844208D10121B9
:10048000401503F069F80021601503F065F817E0E6
:100490000D48844208D10121001503F05DF80021C8
:1004A000201503F059F80BE00848844208D10121D7
:1004B000C80303F051F800214FF4004003F04CF85A
:1004C00010BD00000024014000280140003C014014
:1004D000014600208A6802F004020AB1012000E00F
:1004E00000207047014600208A6802F008020AB125
:1004F000012000E00020704730B5024600200023B4
:1005000050680F4C20400D790C6844EA05242043C4
:10051000506090680B4C2040D1E902542C434D7937
:1005200044EA450420439060D06A20F470000C7CBB
:10053000641EE4B2234340EA0350D06230BD0000A1
:10054000FFFEF0FFFDF7F1FFF0B504460D46002079
:100550000021092D11DDE068A5F10A0606EB46072A
:10056000072606FA07F18843A5F10A0606EB4606B8
:1005700003FA06F10843E0600CE0206905EB45074B
:10058000072606FA07F1884305EB450603FA06F14C
:1005900008432061072A0FDA606B561E06EB8607B8
:1005A0001F2606FA07F18843561E06EB860605FA53
:1005B00006F10843606322E00D2A0FDA206BD61F94
:1005C00006EB86071F2606FA07F18843D61F06EBBF
:1005D000860605FA06F10843206310E0E06AA2F1FE
:1005E0000D0606EB86071F2606FA07F18843A2F1DF
:1005F0000D0606EB860605FA06F10843E062F0BD3B
:10060000816841F008018160704721B1826842F43D
:10061000A002826003E0826822F4A0028260704738
:10062000816841F0040181607047000030B10749E2
:10063000096841F40001054A116005E003490968B1
:1006400021F40001014A11607047000008240140B4
:1006500010B502F083F901F0A5FF4FF4E13004F08A
:1006600031F84FF47A7003F005FF02F0BFFC10A0E0
:1006700002F04CFDFFF768FE03F0DAF802213220A9
:1006800002F038FB02F0C2FA01F042FB00BF01F0B9
:10069000E7FE0128FBD181070C4800F01DF801F0AE
:1006A00009F900F0E7FC01200949087010BD0000BD
:1006B0000D0A20526167696E67466972655F466C14
:1006C000792056322E322E32200D0A006F12833AD4
:1006D0004000002000BFFEE72DE9F04104460D4632
:1006E00029460B4805F0C2FC804641464FF07E503B
:1006F00005F05EFB0746214605F0ECFA064631465A
:10070000204605F055FB03490860BDE8F081000074
:10071000DB0FC940200000202DE9F04705460C46BC
:10072000E08840F2D251884207DDE08840F2E6518D
:10073000884202DA40F2DC50E080A08840F2D251D8
:10074000884207DDA08840F2E651884202DA40F292
:10075000DC50A0802089B0F5BB6F06DB2089B0F5A6
:10076000BC6F02DC40F2DC5020816089B0F5BB6FC9
:1007700006DB6089B0F5BC6F02DC40F2DC506081C2
:100780006189A1F2DC5005F011FC80467A4905F040
:100790000FFB0646E188A1F2DC5005F007FC81461C
:1007A000764905F005FB8046696805F05CFD074663
:1007B000314605F08FFA724948602189A1F2DC5078
:1007C00005F0F4FB80466C4905F0F2FA0646A18874
:1007D000A1F2DC5005F0EAFB8146684905F0E8FA31
:1007E0008046A96805F03FFD0746314605F046FD05
:1007F000634988604868634905F004FD06D2624990
:10080000C868604905F066FA5F49C8605C49486895
:100810005E4905F0F7FB07D25B49C8685B4905F004
:1008200059FA5949C86007E0554A5168564AD06894
:1008300005F050FA5449C8605349C868544905F056
:10084000E1FC02D252485049C8604F49C86851493A
:1008500005F0D8FB02D24F484B49C8604849886828
:10086000484905F0CFFC06D24B49C868454905F018
:1008700031FA4949C86042498868444905F0C2FBD9
:1008800007D24549C868414905F024FA4249C86081
:1008900007E03B4A9168404AD06805F01BFA3E49A0
:1008A000C8603D49C8683A4905F0ACFC02D23848F6
:1008B0003949C8603849C868364905F0A3FB02D2F7
:1008C00034483549C8602088B0F5966F04DA0020B6
:1008D0002D49C8603049C860304A5168284A50687C
:1008E00005F0CCFC804628488168404605F0BEFBF8
:1008F0000746254AD168506805F0B8FB8046204A73
:100900005168214A106805F0B1FB8146414605F067
:10091000E1F90646394605F0DDF91B4908611F4A31
:100920009168174A906805F0A9FC80461A488168CA
:10093000404605F09BFB0646174AD168506805F013
:1009400095FB80460E4A9168134A106805F08EFBAD
:100950008146414605F0BEF90746314605F0BAF931
:100960000D490861064840680C49486004488068A1
:100970008860BDE8F08700000000C84200005041D8
:100980000001002000002041AC020020000020C136
:1009900000007A4400007AC4980200200C01002074
:1009A00007B58AB00B984088B0F5AF6F08DD0B989B
:1009B0004088B0F5C86F03DA40F2DC510B984180F3
:1009C0000B988089B0F5BB6F08DB0B988089B0F578
:1009D000BC6F03DC40F2DC510B9881810A984068BF
:1009E000FE49039005F042FB0590FD48006980F048
:1009F00000400490059905F041FCFA4948600A98C6
:100A00000068F649049005F031FB0590F64800694E
:100A100001460490059805F026FCF24988600B9881
:100A2000807B00F00100D0B10B988089A0F2DC50EF
:100A3000029005F0BBFAED49039005F0B9F9059075
:100A40000A98806880F00040E449039005F00EFBAE
:100A50000490059905F012FCE249086029E00B9822
:100A60008089A0F2DC50029005F0A0FAE0490390E2
:100A700005F09EF905900A988068D849019005F024
:100A8000F5FA03900B98408840F2DC51081A009068
:100A900005F08CFA4FF08041019005F089F9029041
:100AA000039905F0EBFB0490059905F013F9CD4986
:100AB0000860CC484068CE49059005F0A3FB07D2FA
:100AC000CC48C068CA49059005F004F9C949C86016
:100AD000C4484068C849059005F094FA08D2C54852
:100AE000C068C549059005F0F5F8C249C8600AE03C
:100AF000BC4840680590BF48C0680490059905F05F
:100B0000E9F8BC49C860BB48C068BC49059005F01D
:100B100079FB02D2B948B749C860B648C068B8493D
:100B2000059005F06FFA02D2B548B249C860AD48E9
:100B30008068AF49059005F065FB07D2B148C068F1
:100B4000AB49059005F0C6F8AE49C860A548806875
:100B5000A949059005F056FA08D2AA48C068A649E6
:100B6000059005F0B7F8A749C8600AE09D4880687D
:100B70000590A448C0680490059905F0ABF8A14918
:100B8000C860A048C0689D49059005F03BFB02D2B3
:100B90009A489C49C8609B48C0689949059005F0EF
:100BA00031FA02D296489749C8608E48006805908D
:100BB0009548C0680490059905F08CF89249C86082
:100BC0000846C0688D49059005F01CFB02D28B4891
:100BD0008D49C8608C48C0688949059005F012FAB3
:100BE00002D287488849C8600B980088B0F5966F94
:100BF00002DA00208449C86084484068029079483D
:100C000040680190029905F039FB039079488068AB
:100C100001460290039805F029FA05907548C068CE
:100C20000190744840680090019905F01FFA039004
:100C30006C48406801906F4800680090019905F089
:100C400015FA0290039905F045F80490059905F00E
:100C500041F8684908616D48806802906148806881
:100C60000190029905F00AFB0390664880680146EE
:100C70000290039805F0FAF905906248C068019067
:100C8000604840680090019905F0F0F903905548DC
:100C9000806801905B4800680090019905F0E6F9D2
:100CA0000290039905F016F80490059905F012F8E2
:100CB000544908615548006802904A48006801900C
:100CC000029905F0DBFA03904F48806801460290D4
:100CD000039805F0CBF905904B48C06801904A484D
:100CE00040680090019905F0C1F903903D48006803
:100CF0000190454800680090019905F0B7F902900D
:100D0000039904F0E7FF0490059904F0E3FF3E49DE
:100D10000861344840683D494860324880688860CE
:100D20003048006808600B980088B0F5966F6FDD5A
:100D30000C9800286CD10B980088A0F21A40019002
:100D400005F034F902902F4800690146019002989D
:100D500004F0C0FF03902748006901460290039801
:100D600004F0B8FF049028480069014603900498F5
:100D700005F084FA059005F0DDF800B209900B98B3
:100D80000088A0F21A40019005F010F902901D4869
:100D9000006901460190029804F09CFF03901548F9
:100DA000006901460290039805F068FA049016481D
:100DB000006901460390049804F08CFF059005F04B
:100DC000B9F800B208900B980088A0F21A40019080
:100DD00005F0ECF802900B4800691AE0E12E65423C
:100DE000AC02002018010020980200200000C84238
:100DF00000004842D4020020000048C200409C4548
:100E000000409CC5C0020020E80200202401002010
:100E10003EE001460190029805F030FA0390234825
:100E2000006901460290039804F054FF04902048A2
:100E3000006901460390049804F04CFF059005F00A
:100E400079F800B207900B980088A0F21A40019040
:100E500005F0ACF80290174800690146019002982D
:100E600005F00CFA039011480069014602900398BE
:100E700005F004FA04900E480069014603900498B6
:100E800005F0FCF9059005F055F800B2069004E075
:100E900000200990089007900690DDE90632DDE910
:100EA000081001F083FD0DB000BD0000D402002049
:100EB000E8020020C002002021B1026842F00102D5
:100EC000026004E002684FF6FE731A400260704749
:100ED00001684FF6FE72114001600021016041601F
:100EE0008160C1604B49884208D14A490839496844
:100EF00041F00F01474A083A51608AE045491431F0
:100F0000884208D143490839496841F0F001414A13
:100F1000083A51607DE03F492831884208D13D4977
:100F20000839496841F470613A4A083A516070E002
:100F300038493C31884208D136490839496841F47A
:100F40007041344A083A516063E032495031884276
:100F500008D130490839496841F470212D4A083ACE
:100F6000516056E02B496431884208D1294908393B
:100F7000496841F47001274A083A516049E025491F
:100F80007831884208D123490839496841F07061B5
:100F9000204A083A51603CE01F49884206D1011FAF
:100FA000096841F00F01021F116032E01A49143143
:100FB000884208D11849091F096841F0F001164A12
:100FC000121F116025E014492831884208D11249C6
:100FD000091F096841F470610F4A121F116018E07F
:100FE0000D493C31884208D10B49091F096841F479
:100FF0007041094A121F11600BE0074950318842C5
:1010000007D10549091F096841F47021024A121FDE
:1010100011607047080002400804024010B5002229
:10102000026847F6F0739A430C6A8B6823430C6995
:1010300023434C6923438C692343CC6923434C6A83
:1010400023438C6A23431A430260CB6843600B68D6
:1010500083604B68C36010BD7047000001200149E8
:1010600008707047B50000200120014908707047E2
:10107000B400002010B500F045FA00F01FF800F0B1
:1010800045F800F06BF80B49C88B0B4900F0BCFA2F
:10109000094800880F280CD0012003F0D9FC05492D
:1010A000C88B0F2100F024FB002003F0D1FC01F0DD
:1010B000CFFF10BD8A0000208400002010B50E492B
:1010C00008880E4900F0A0FA0B4948880C4900F046
:1010D0009BFA094988880B4900F096FA074800886E
:1010E00000B2094908800648008800B248800548D7
:1010F000008800B2888010BD8A0000208400002093
:1011000086000020880000207800002010B50E49DD
:10111000C8880E4900F078FA0B4908890C4900F09C
:1011200073FA094948890B4900F06EFA07480088AC
:1011300000B2094908800648008800B24880054886
:10114000008800B2888010BD8A0000208400002042
:1011500086000020880000207E00002010B548494D
:101160008889484900F050FA4549C889464900F045
:101170004BFA4349088A454900F046FA414800883D
:1011800004F02CFF0446424904F012FE4149086075
:101190003D48008804F022FF04463F4904F008FE61
:1011A0003C4948603948008804F018FF3949886094
:1011B0000846006839490860364840684860354844
:1011C000806888602E49488A2E4900F01DFA2C4913
:1011D000888A2D4900F018FA2949C88A2B4900F05D
:1011E00013FA2848008804F0F9FE0446284904F060
:1011F000DFFD2B4908602448008804F0EFFE044618
:10120000254904F0D5FD264948602048008804F0AF
:10121000E5FE2349886008460068224908602048A6
:10122000406848601E48806888601549088B1549E9
:1012300000F0EAF91249488B134900F0E5F910492A
:10124000888B124900F0E0F90E48008804F0C6FED1
:1012500004460F4904F0ACFD134908600A480088B1
:1012600004F0BCFE04460C4904F0A2FD0E4948609F
:101270000648008804F0B2FE0B49886010BD0000EB
:101280008A000020840000208600002088000020C2
:1012900000002041AC02002000007A4498020020A7
:1012A000D4020020C0020020E802002010B5012076
:1012B00003F0CEFB0C4A128891B20C4A108800F061
:1012C00017FA094A528891B2084A508800F010FA79
:1012D000054A928891B2054A908800F009FA0020E8
:1012E00003F0B6FB10BD0000780000208A0000204B
:1012F00010B5012003F0ACFB0C4A128891B20C4AE5
:10130000D08800F0F5F9094A528891B2084A10894C
:1013100000F0EEF9054A928891B2054A508900F032
:10132000E7F9002003F094FB10BD00007E000020D0
:101330008A00002010B5012003F08AFB43490868A9
:10134000434904F093FE044604F0F4FD414908804B
:101350003E494868404904F089FE044604F0EAFD2D
:101360003E4908803949886804F0E4FD3C4908801A
:101370003C4988893749098800F0BAF93949C88950
:101380003649098800F0B4F93649088A3449098891
:1013900000F0AEF9344908682D4904F067FE0446B0
:1013A00004F0C8FD2B4908802F4948682A4904F0F9
:1013B0005DFE044604F0BEFD284908802A4988687D
:1013C00004F0B8FD264908802649488A2149098841
:1013D00000F08EF92349888A2049098800F088F9AD
:1013E0002049C88A1E49098800F082F91F49086807
:1013F000174904F03BFE044604F09CFD15490880A3
:101400001A494868144904F031FE044604F092FD7C
:10141000124908801549886804F08CFD104908803D
:101420001049088B0B49098800F062F90D49488B77
:101430000A49098800F05CF90A49888B084909883B
:1014400000F056F9002003F003FB10BDAC020020B1
:10145000000020418400002000007A448600002023
:10146000880000208A000020D4020020E80200202A
:101470000346062106221248018812480288ABB1B1
:10148000012B1BD13AB94EF6EE60814201D100200A
:1014900070470120FCE739B94EF6EE60824201D177
:1014A0000120F5E70020F3E7AB20F1E709B90020C0
:1014B000EEE70AB90120EBE7AB20E9E70020E7E718
:1014C000000001080004010810B504240B4800F0D6
:1014D00091F90446042C01D0204610BD0021074894
:1014E00000F0C8F90446042C01D02046F5E7044872
:1014F00000F080F904462046EFE7000000000108F4
:101500000004010810B503F03FF9044600F076FF2F
:10151000204610BD2DE9F84F074689460425DFF81F
:10152000D8A0364800904FF00008002400264FF065
:10153000000B0020FFF79CFF8046B8F1010F05D19A
:10154000DFF8B8A02C48401C00900CE0B8F1000F68
:1015500006D1DFF8A4A00AF1010A2848009002E0B1
:10156000AB20BDE8F88F4EF6EE61504600F082F9F0
:101570000546042D01D02846F3E700F03FFF494619
:10158000384600F071F80646042E01D03046E8E7F0
:1015900000241CE01A4830F81400B84215D018494D
:1015A00031F81400174900F02FF88346BBF1010F02
:1015B0000BD0134931F814001249098800F054F88F
:1015C0000646042E01D03046CBE7601C84B2102CB6
:1015D000E0DB009800F00EF90546042D01D0284606
:1015E000BFE70021504600F045F90546042D01D023
:1015F0002846B6E72846B4E7FF03010800000108C3
:101600008A000020580000202DE9F04706460F46CA
:10161000002545F255584FF00109114CA246002013
:10162000FFF726FF0546AB2D01D1BDE8F0870C483A
:1016300000EB852A0B480068841E0AE0B4F800809D
:10164000B04505D134F8020C38804FF0000904E0B1
:10165000241F0AF102008442F0D800BF4846E4E7A4
:10166000000001085C0000202DE9F04104460F460F
:1016700004250026DFF86C800120FFF7F9FE0646FE
:10168000AB2E01D1BDE8F081701C174901EB802819
:1016900021E0164800680068401CB8B93946134874
:1016A000006800F0E7F80546042D01D02846E9E778
:1016B00021460E480068801C00F0DCF805460B4807
:1016C0000068001D094908602846DBE707480068F4
:1016D000001D06490860054800684045D9D38020B0
:1016E000D0E70000FF070108FEFF00085C000020B3
:1016F00070B505460E46002431462846FFF7B4FF74
:101700000446802C04D131462846FFF703FF0446E7
:10171000204670BD10B5012000F00EF820B1012068
:1017200000F004F801F0B4FA10BD000001490860AF
:101730007047000014040140014600200022074BBE
:101740001B6803EA0102054B14331B680B4013B1FD
:101750000AB1012000E000207047000000040140B1
:10176000002123498279002A3AD00A461268036888
:101770009A430B461A600A1D126803689A430B1DB0
:101780001A60027911440A6803681A430A60184A09
:101790000832126803689A43154B08331A601A1D01
:1017A000126803689A43124B0C331A604279102A6C
:1017B0000ED11A1F126803681A430D4B08331A60C2
:1017C0001A1D126803681A43094B0C331A600DE0A6
:1017D0000749427911440A6803681A430A6005E020
:1017E000027911440A6803689A430A60704700004E
:1017F0000004014030B5044604254FF4302000F0C9
:1018000065F80546042D17D10C48006940F0020028
:101810000A49086108464461006940F040000861D7
:101820004FF4302000F052F805460448006941F6B4
:10183000FD71084001490861284630BD0020024082
:1018400004200B49C96801F0010109B101200EE033
:101850000749C96801F0040109B1022007E0044901
:10186000C96801F0100109B1032000E004207047AD
:101870000020024070B504460D460426F00200F038
:1018800025F80646042E11D10948006940F00100F0
:10189000074908612580F00200F018F80646044860
:1018A000006941F6FE71084001490861304670BD8B
:1018B00000200240024803494860034848607047DE
:1018C0002301674500200240AB89EFCD00B50246F9
:1018D0000423FFF7B5FF034603E0FFF7B1FF03461C
:1018E000521E012B01D1002AF7D102B90523184657
:1018F00000BD000030B500228B071C0F0F2303FA38
:1019000004F20B4B8C1053F824309343084C8D1089
:1019100044F8253023468C1053F824308C07240FCC
:1019200000FA04F42343024C8D1044F8253030BDF6
:10193000080001402DE9F041024600250026002064
:1019400000230024002791F803C00CF00F0591F844
:1019500003C00CF0100CBCF1000F03D091F802C0D2
:101960004CEA050591F800C0BCF1000F31D01468B5
:1019700000202BE04FF0010C0CFA00F3B1F800C08E
:101980000CEA03069E4220D183004FF00F0C0CFAA4
:1019900003F7BC4305FA03FC4CEA040491F803C0C6
:1019A000BCF1280F06D14FF0010C0CFA00FCC2F874
:1019B00014C00AE091F803C0BCF1480F05D14FF004
:1019C000010C0CFA00FCC2F810C0401C0828D1D34E
:1019D0001460B1F800C0BCF1FF0F34DD5468002082
:1019E0002EE000F1080C4FF0010808FA0CF3B1F8F2
:1019F00000C00CEA03069E4221D183004FF00F0C79
:101A00000CFA03F7BC4305FA03FC4CEA040491F812
:101A100003C0BCF1280F05D100F1080C08FA0CF83E
:101A2000C2F8148091F803C0BCF1480F07D100F14F
:101A3000080C4FF0010808FA0CF8C2F81080401C9E
:101A40000828CED35460BDE8F0810000F0B50A4606
:101A5000002300240021002500F00046B6F1004FCD
:101A600002D11D4EF16901E01B4E7168C0F30345C0
:101A700083B200F44016B6F5401F08D121F0706122
:101A8000154E766826F07066134F7E6012E000F403
:101A90008016B6F5801F06D1032606FA05F4A14389
:101AA00041F0706106E0460D360103FA06F6B143D7
:101AB00041F0706122B1460D360103FA06F631435A
:101AC00000F00046B6F1004F02D1034EF16101E093
:101AD000014E7160F0BD00000000014010B50146EC
:101AE0000020CB78002204E0D41C0C5D6040541C24
:101AF000E2B29C1CA242F7DB10BD00002DE9F04FC2
:101B000089B082463E480168006804F0AFFA05904B
:101B10003C480168006804F0A9FA03903A4801685B
:101B2000006804F0A3FA019038480168006804F0E6
:101B30009DFA0090019904F0A1FB0290039904F032
:101B40009DFB0490059904F0C5F8834604F096F8CF
:101B500006460F462A4801682A48006804F086FABB
:101B60000490294801682948006804F07FFA03902E
:101B7000049904F0AFF84FF08041059004F076FA34
:101B8000834604F07BF832463B46CDE9060103F07C
:101B9000ABF981F0004104464FF000521C4B03F0BA
:101BA0005DFD804603F0D8FACAF8080014480168C1
:101BB0001548006804F05AFA069012480168134864
:101BC000006804F053FA0590069904F057FB4FF0B3
:101BD0008041079004F04AFA834604F04FF8064625
:101BE00002F03AFF80464FF00052094B03F036FDF9
:101BF000044603F0B1FACAF8040009B0BDE8F08F5A
:101C0000100000200C00002008000020040000202C
:101C1000DCA54C4070B504460D46B4F9000004F054
:101C2000C5F906460B4904F021FA2860B4F9020010
:101C300004F0BCF90646074904F018FA6860B4F9E4
:101C4000040004F0B3F90646024904F00FFAA86054
:101C500070BD000089A18B3AF0B502460023002434
:101C6000002500201688254FDFF894C09CF800C09E
:101C700027F81C605688234FDFF884C09CF800C00A
:101C800027F81C609688204FDFF874C09CF800C0CD
:101C900027F81C6000BF0DE0184E36F91060334481
:101CA000184E36F910603444174E36F9106035443A
:101CB000461CF0B20428EFDB1E46DF1703EB9777D4
:101CC000BF103FB20F802646E71704EB9777BF108F
:101CD0003FB24F802E46EF1705EB9777BF103FB20C
:101CE0008F80074E3678761C054F3E703E4636781C
:101CF000042E01D100263E70F0BD0000240000201B
:101D00003C0000202C0000203400002000BFFEE733
:101D100008B50121082001F00FFC4FF44870ADF820
:101D2000000003208DF8020010208DF803006946A2
:101D30001148FFF7FFFD4FF48060ADF8000003206D
:101D40008DF8020014208DF8030069460A48FFF759
:101D5000F1FD4FF40060ADF8000003208DF80200A3
:101D600014208DF8030069460348FFF7E3FD03A044
:101D700001F0CCF908BD0000000C01400D0A20C4A0
:101D8000A3C4E24932432020B3F5CABCBBAFCDEABD
:101D9000B3C9A3A10000000010B54FF480600F4943
:101DA0000860042000F03EF900BF4FF400600B49CA
:101DB0000860042000F036F900BF4FF48060074946
:101DC000091F0860042000F02DF900BF4FF4806067
:101DD00002490860042000F025F910BD140C0140F0
:101DE00010B54FF480600E490860042000F01AF925
:101DF0004FF400600A49091F0860042000F012F93E
:101E00004FF480600649091F0860042000F00AF9B9
:101E10004FF4806002490860042000F003F910BD0F
:101E2000140C014070B508250024280217490860E9
:101E3000042000F0F7F819E04FF480601349091D01
:101E40000860042000F0EEF800BF4FF480600F49F6
:101E50000860042000F0E6F86006040E0B4808381D
:101E6000006800F4006008B144F001042800A5F106
:101E70000101CDB2E0D14FF480600449091D086032
:101E8000042000F0CFF8204670BD0000100C014087
:101E900010B54FF480601C490860042000F0C2F8BF
:101EA0004FF400601849091F0860042000F0BAF8D8
:101EB0004FF480601449091F0860042000F0B2F854
:101EC00011480C38006808B9012000E0002000F437
:101ED000006008B1002010BD4FF400600A4908609E
:101EE000042000F09FF808480C38006800F40060F7
:101EF00008B10020EFE74FF40060034908600420B8
:101F000000F090F80120E6E7140C014010B54FF402
:101F100080600E490860042000F084F84FF40060EF
:101F20000A490860042000F07DF84FF480600749FA
:101F3000091F0860042000F075F84FF400600349A1
:101F4000091F0860042000F06DF810BD140C01405A
:101F500010B54FF4806016490860042000F062F864
:101F60004FF400601249091F0860042000F05AF87D
:101F70004FF480600E49091F0860042000F052F8F9
:101F80000B480C38006800F4006040B14FF48060EA
:101F900007490860042000F045F8002010BD4FF408
:101FA000806003490860042000F03CF80120F5E758
:101FB000140C014070B50446082523E04FF48060FE
:101FC00017490860042000F02DF804F0800040B1AB
:101FD0004FF400601249091F0860042000F022F845
:101FE00006E04FF400600E490860042000F01AF883
:101FF0006006040E4FF480600949091F0860042040
:1020000000F010F82800A5F10101CDB2D6D14FF4AF
:10201000806003490860042000F004F870BD0000EF
:10202000140C014000E0401E0028FCD17047000065
:102030002DE9FF4F8FB0064617461C46DDE91C8987
:10204000E44800680990E4480568E448006808909E
:10205000E348006807904946484604F007F84146BF
:102060000590404604F002F821460390204603F014
:10207000FDFF0290039903F02DFE0490059903F0F3
:1020800029FE069002F0F0FF0E9020460E9903F014
:10209000EDFF044640460E9903F0E8FF80464846AF
:1020A0000E9903F0E3FF8146CC480168C9480068F7
:1020B00003F0DCFF0590CA480168C748006803F0D8
:1020C000D5FF0490059904F0D9F84FF080410690AF
:1020D00003F0CCFF0D90C2480168C048006803F0CF
:1020E000C5FF0590BC480168BA48006803F0BEFF10
:1020F0000490059903F0EEFD4FF08041069003F047
:10210000B5FF0C90B6480168006803F0AFFF069079
:10211000B2480168006803F0A9FF0490AE48016866
:10212000006803F0A3FF0290AA480168006803F06A
:102130009DFF0190029904F0A1F80390049904F026
:102140009DF80590069903F0C5FD0B9048460C9943
:1021500003F08CFF069040460B9903F087FF059033
:10216000069904F08BF8824620460B9903F07EFF17
:10217000069048460D9903F079FF0590069904F002
:102180007DF8834640460D9903F070FF0690204687
:102190000C9903F06BFF0590069904F06FF80A9014
:1021A0009049504603F062FF06908F4801680698F8
:1021B00003F090FD8C4908608A49584603F056FFA9
:1021C00006908A480168069803F084FD87490860F4
:1021D00084490A9803F04AFF0690854801680698EA
:1021E00003F078FD824908605146824803F03EFFC3
:1021F0003146059003F06EFD06907B480168069815
:1022000003F068FD064659467A4803F02FFF059013
:10221000109903F05FFD069074480168069803F07A
:1022200059FD109073480A9903F020FF3946059034
:1022300003F050FD06906E480168069803F04AFDD1
:1022400007463946079803F011FF04901099089843
:1022500003F00CFF029085F000403146009003F03F
:1022600005FF0190029904F009F80390049904F025
:1022700005F86149059003F0F9FE0690099903F00D
:1022800029FD544908601099079803F0EFFE39467C
:102290000490089803F0EAFE02903046099903F092
:1022A000E5FE0190029903F015FD0390049903F0F7
:1022B000E5FF5149059003F0D9FE2946069003F049
:1022C00009FD454908603046079903F0CFFE3946BD
:1022D0000490284603F0CAFE02901099099803F072
:1022E000C5FE0190029903F0C9FF0390049903F021
:1022F000F1FC4149059003F0B9FE0690089903F0FE
:10230000E9FC364908603046089903F0AFFE0490B6
:102310002846109903F0AAFE39460290099803F066
:10232000A5FE0190029903F0D5FC0390049903F0F7
:10233000A5FF3149059003F099FE0690079903F037
:10234000C9FC2749086008460168006803F08EFE52
:10235000059022480168006803F088FE03901E483B
:102360000168006803F082FE01901A480168006865
:1023700003F07CFE0090019903F0ACFC02900399FD
:1023800003F0A8FC0490059903F0A4FC069002F069
:102390006BFE0E900F480E99006803F067FE0D4922
:1023A00008600D480E99006803F060FE0A49086055
:1023B0000A480E99006803F059FE08490860084869
:1023C0000E99006803F052FE0549086013B0BDE89D
:1023D000F08F000004000020080000200C00002006
:1023E000100000206F12033B140000201800002092
:1023F0001C000020CDCC4C3F6F12833A70B50426F0
:1024000000240120FFF734F80446AB2C06D1124813
:1024100000EB842011490860AB2070BD0E4800EB32
:1024200084200E490860601C0B49891E01EB802541
:102430000CE00A4800680068401C10B904263046C9
:10244000EBE706480068001D04490860034800687F
:10245000A842EED38020E0E7000001085C000020E5
:1024600010B5752001F062FB682802D0982860D171
:102470002EE032A000F04AFE00216B2001F07CFB30
:1024800044F62060FFF7CEFD0021192001F074FB17
:1024900044F62060FFF7C6FD03211A2001F06CFB13
:1024A00044F62060FFF7BEFD18211B2001F064FBFD
:1024B00044F62060FFF7B6FD1F211C2001F05CFBF5
:1024C00044F62060FFF7AEFD21A000F01FFE32E0D1
:1024D00026A000F01BFE80216B2001F04DFB284858
:1024E000FFF7A0FD0021192001F046FB03216B201E
:1024F00001F042FB2348FFF795FD03211A2001F06C
:102500003BFB18211B2001F037FB1F211C2001F091
:1025100033FB04211D2001F02FFB1221372001F095
:102520002BFB0121382001F027FB17A000F0EEFD66
:1025300001E0002010BD00BF0120FBE70D0A204D87
:102540005055363035302020D5FDB3A3A3A100006F
:102550000D0A204D5055363035302020B3F5CABC19
:10256000BBAFCDEAB3C9A3A1000000000D0A204D06
:10257000505536303530412020D5FDB3A3A3A100FE
:1025800080841E00400D03000D0A204D505536304A
:102590003530412020B3F5CABCBBAFCDEAB3C9A3E7
:1025A000A100000008B50121192000F0C5FF01219C
:1025B0001148FFF74BFA01211048FFF747FA0820AE
:1025C000ADF8000003208DF8020010208DF8030004
:1025D00069460B48FFF7AEF94FF40050ADF8000024
:1025E00003208DF8020010208DF80300694605488D
:1025F000FFF7A0F908BD0000000430000002300021
:10260000000C01400010014010B5254840782449D5
:10261000097840EA012023490988401A00B222497A
:1026200008801F48C0781E49897840EA01201D496A
:102630004988401A00B21C49488019484079184915
:10264000097940EA012017498988401A00B21649E1
:1026500088801348407A1249097A40EA01201349D8
:102660000988401A00B2124908800D48C07A0C4906
:10267000897A40EA01200D494988401A00B20C4984
:1026800048800748407B0649097B40EA012007490A
:102690008988401A00B20649888000F00BF810BD06
:1026A000FC02002078000020600000207E00002056
:1026B0006600002010B55F48007800285AD05E48B8
:1026C000007870B900205D490880488088805C49A6
:1026D00008605C4908605C49086001205649087040
:1026E00010BD55480078401C534908705748B0F950
:1026F0000000534909680844514908605348B0F93B
:1027000002005049096808444E4908604F48B0F932
:1027100004004D49096808444B4908604648007860
:10272000FB2827D144480078401E4349087044489C
:102730000068097890FBF1F000B2404908804148F8
:1027400000683D49097890FBF1F000B23B494880B0
:102750003D4800683849097890FBF1F0A0F5006029
:1027600000B236498880002033490870314908702A
:10277000FEF79CFD36480078002858D03548007890
:1027800070B9002034490880488088803349086047
:10279000334908603349086001202E4908709FE7DB
:1027A0002C480078401C2B4908702F48B0F90000D5
:1027B0002A4909680844294908602B48B0F90200F1
:1027C000274909680844264908602748B0F90400E9
:1027D000244909680844234908601E480078FB28FA
:1027E00025D11C480078401E1A4908701B48006813
:1027F000097890FBF1F000B217490880184800688A
:102800001449097890FBF1F000B21349488015484B
:1028100000681049097890FBF1F000B20E498880F9
:1028200000200C4908700A490870FEF761FD00BFDE
:1028300056E70000B5000020C80000207800002006
:10284000BC000020C0000020C40000206000002068
:10285000B4000020D80000207E000020CC00002022
:10286000D0000020D40000206600002010B50E2407
:10287000FFF70EFB08B9002010BDD020FFF79AFB30
:10288000FFF766FB18B9FFF741FB0020F4E73B2098
:10289000FFF790FBFFF75CFBFFF7FAFAD120FFF799
:1028A00089FBFFF755FB07E0FFF7BCFAC4F10D0108
:1028B000084A5054FFF770FA601EC0B20400F3D10A
:1028C000FFF7B0FA03494873FFF78AFAFFF71EFBD8
:1028D0000120D1E7FC02002010B53B2001F026F9D1
:1028E0001C4908703C2001F021F91A4948703D202C
:1028F00001F01CF9174988703E2001F017F91549BD
:10290000C8703F2001F012F912490871402001F00F
:102910000DF910494871432001F008F90D4908727A
:10292000442001F003F90B494872452001F0FEF8FC
:1029300008498872462001F0F9F80649C872472014
:1029400001F0F4F803490873482001F0EFF8014959
:10295000487310BDFC02002000BFFEE708B501214E
:10296000042000F0E9FD0F20ADF8000003208DF8F1
:10297000020018208DF8030069460448FEF7DAFFCC
:1029800001F028FD02A000F0C1FB08BD00080140D5
:102990000D0A2050574D202020202020B3F5CABC1E
:1029A000BBAFCDEAB3C9A3A10000000030B5B0F5BC
:1029B0007A7F01DD40F2DC50002800DA0020B1F51A
:1029C0007A7F01DD40F2DC51002900DA0021B2F506
:1029D0007A7F01DD40F2DC52002A00DA0022B3F5F2
:1029E0007A7F01DD40F2DC53002B00DA00234FF048
:1029F0008045A8862987AA87014D2B8030BD00001D
:102A000040000040704700002DE9F0410025754866
:102A1000C078401DC6B2032404E07248005D454002
:102A2000601CC4B2B442F8DB6E48805DA84201D09D
:102A3000BDE8F0816B480078242800D0F8E76948A9
:102A400040784D2800D0F3E7664880783C2800D0D5
:102A5000EEE764480079692847D10120624908708F
:102A6000604840795F49897940EA01205F49C88020
:102A70005C48C0795B49097A40EA01205B4988805B
:102A80005848407A5749897A40EA01205749488096
:102A90005448C07A5349097B40EA012053490880D1
:102AA0005048407B4F49897B40EA01204F490881CB
:102AB0004C48C07B4B49097C40EA01204B49488186
:102AC0004848407C4749897C40EA01204749888141
:102AD0004448C07C4349097D40EA01204349C881FC
:102AE000084600F025FE00F0B3FD3E480079CA28F4
:102AF00063D13C49487903F071FA07463C4903F039
:102B000057F93C4908603749887903F067FA074666
:102B1000394903F04DF9374948603249C87903F023
:102B20005DFA3449886008460068344908603148D5
:102B3000406848602F48806888602A49087A03F016
:102B40004DFA07462A4903F033F92D490860254913
:102B5000487A03F043FA0746274903F029F9284940
:102B600048602049887A03F039FA25498860084688
:102B7000006824490860224840684860204880680E
:102B800088601849C87A03F029FA0746184903F003
:102B90000FF91D4908601349087B03F01FFA074627
:102BA000154903F005F9184948600E49487B03F0C0
:102BB00015FA15498860FEF7BDFB0A480079CD2853
:102BC00001D1FEF74BFA07480079CE2801D1FEF774
:102BD0004BFA04480079D02801D100F039FA00BF3F
:102BE00026E700000A030020DA0000207C02002013
:102BF00000002041AC02002000007A44980200202E
:102C0000D4020020C0020020E80200201CB50522EA
:102C10001049302000F01EF905226946102000F00E
:102C2000D1F8002408E01DF804000A49095D884233
:102C300000D003E0601CC4B2052CF4DB00BF052CFF
:102C400003D105A000F062FA02E00AA000F05EFAEB
:102C50001CBD0000DB0000200D0A204E524632341D
:102C60004C303120B3F5CABCBBAFB3C9B9A6A3A1E0
:102C7000000000000D0A204E524632344C30312004
:102C8000B3F5CABCBBAFCAA7B0DCA3A1000000006B
:102C900070B5072000F0B6F8044604F0400098B183
:102CA000602000F0AFF80546202D08D12A460F49D4
:102CB000612000F087F800200D49088003E0FF2123
:102CC000E22000F0E5F800BF04F0100030B104F09D
:102CD000010018B1FF21E12000F0DAF800F052F80D
:102CE0002146272000F0D4F870BD00000A03002020
:102CF000E600002070B505460C4604201E49086019
:102D0000FF21E12000F0C4F8FF21E22000F0C0F82C
:102D100005221A49302000F09DF8052218492A2082
:102D200000F098F80121212000F0B2F801212220C2
:102D300000F0AEF81A21242000F0AAF82946252038
:102D400000F0A6F82021312000F0A2F80F21262063
:102D500000F09EF8012C04D10E21202000F098F8FC
:102D600005E0022C03D10F21202000F091F804206F
:102D70000149091F086070BD140C0140DB000020F0
:102D8000E000002010B50420054908600F21202034
:102D900000F07EF804200249091F086010BD000001
:102DA000140C014010B50420054908600E212020B4
:102DB00000F06EF804200249091F086010BD0000F1
:102DC000140C01402DE9F04107460D46164610202F
:102DD0000B490860384600F0F3FD8046002405E00A
:102DE000002000F0EDFD2855601CC4B2B442F7DBB2
:102DF00010200349091F08604046BDE8F08100002B
:102E00001408014070B504461020074908602046A8
:102E100000F0D6FD002000F0D3FD05461020024949
:102E2000091F0860284670BD1408014070B50446AB
:102E30000D46FFF7B7FF0420054908602A462146E2
:102E4000A02000F007F804200149091F086070BDA8
:102E5000140C01402DE9F04107460D46164610209E
:102E60000A490860384600F0ABFD8046002404E0C3
:102E7000285D00F0A5FD601CC4B2B442F8DB102050
:102E80000249091F08604046BDE8F081140801406E
:102E900070B505460C46102007490860284600F02A
:102EA0008FFD0646204600F08BFD10200249091FC9
:102EB0000860304670BD00001408014070B5002164
:102EC00000230F22C47804B3154C246804F4E06492
:102ED000C4F5E064210AC1F10403CA40447804FA4D
:102EE00003F184781440214309010E4C0678A15562
:102EF000047804F01F050124AC4005786D11AD0085
:102F000005F1E025C5F8004109E0047804F01F054B
:102F10000124AC40044D0678761145F8264070BD7A
:102F20000CED00E000E400E080E100E00249014334
:102F3000024A1160704700000000FA050CED00E045
:102F40002DE9F04722480088401C214908800846A6
:102F50000088012803D1FFF757FD00F04FFD1C4802
:102F60000088642190FBF1F201FB120008B9FFF721
:102F70008FFE17480088B0F57A7F07DB00201549DF
:102F800008700120124908801349087013494888C5
:102F900003F024F880461149088803F01FF88146A1
:102FA0004FF0804103F062F80746414602F000FF0F
:102FB00006460B4903F05AF805460A4903F056F84D
:102FC000044602F0B7FF00B207490880BDE8F08769
:102FD000E6000020DA00002048000020AC000020BD
:102FE0009A99993F0000C842B000002008B54FF4FC
:102FF000A060FFF79BFF1D208DF8000000208DF8DA
:10300000010001208DF802008DF803006846FFF7EB
:1030100055FF06208DF8000001208DF801000020EA
:103020008DF8020001208DF803006846FFF746FF87
:1030300025208DF8000002208DF8010000208DF879
:10304000020001208DF803006846FFF737FF08BD36
:1030500010B5154815490860154848604FF0824082
:103060008860114813490860114848604FF0824059
:103070008860114811490860002048604FF0804086
:1030800088600D480E490860002048604FF080407D
:1030900088604FF082400B4908600B4848608860A8
:1030A000FEF748F910BD0000CDCC9C40AC020020DA
:1030B0000AD7A33C980200203333B33FD402002048
:1030C000C0020020E8020020CDCCCC3D70470000BB
:1030D00010B504460A4801780078401C084A107070
:1030E000084844540848008800F0800030B90122A4
:1030F00040F2277104480C3801F04CFA10BD000072
:103100004D000020300100200C38014070B505460C
:103110002C4603E02078FFF7DBFF641C20780028B2
:10312000F8D170BD30B589B024208DF804004D2051
:103130008DF805003E208DF8060006208DF807006A
:103140006C208DF808001B4948681B4902F08EFF6F
:10315000054602F0EFFE04B2E0B28DF80900200A45
:103160008DF80A0013498868134902F07FFF05466D
:1031700002F0E0FE04B2E0B28DF80B00200A8DF8F8
:103180000C000C48006880F00045284602F0D2FE92
:1031900004B2E0B28DF80D00200A8DF80E0001A8EF
:1031A000FEF79CFC8DF80F00202101A8FFF73EFEE2
:1031B00009B030BD8C0200200000204130B589B03C
:1031C00024208DF804004D208DF805003E208DF858
:1031D000060017208DF807000B208DF808005F48C7
:1031E000B0F90040E0B28DF80900200A8DF80A001D
:1031F0004FF08040808E00F57A70C0B28DF80B00E1
:103200004FF08040808E00F57A70000A8DF80C0037
:103210004FF08040008F00F57A70C0B28DF80D003D
:103220004FF08040008F00F57A70000A8DF80E0094
:103230004FF08040808F00F57A70C0B28DF80F009B
:103240004FF08040808F00F57A70000A8DF81000F2
:103250004348008800F57A70C0B28DF811004FF035
:103260008040B0F8400000F57A70000A8DF8120036
:103270003C4908683C4902F0F9FE054602F076FE3A
:10328000C0B28DF8130037494868384902F0EEFEA5
:10329000054602F06BFEC0B28DF814003149886813
:1032A00002F064FEC0B28DF81500314908682E495D
:1032B00002F0DCFE054602F059FEC0B28DF81600A1
:1032C0002B494868294902F0D1FE054602F04EFE1E
:1032D000C0B28DF817002649886802F047FEC0B2D8
:1032E0008DF81800234908681F4902F0BFFE054603
:1032F00002F03CFEC0B28DF819001E4948681B4917
:1033000002F0B4FE054602F031FEC0B28DF81A009C
:103310001849886802F02AFEC0B28DF81B001648D2
:1033200000788DF81C0014480088000A8DF81D00F4
:1033300011480068000C8DF81E000F480068000E50
:103340008DF81F0001A8FEF7C9FB8DF82000202191
:1033500001A8FFF76BFD09B030BD0000B0000020F0
:1033600040000040AC0200200000204100007A44F0
:10337000D4020020E8020020B800002070B588B018
:1033800024208DF800004D208DF801003E208DF89E
:10339000020012208DF8030066208DF804004549D4
:1033A000B1F90000C11700EB91718C10E0B28DF8FB
:1033B0000500200A8DF806003E49B1F90200C11748
:1033C00000EB91718C10E0B28DF80700200A8DF8A7
:1033D00008003849B1F90400C11700EB91718C1055
:1033E000E0B28DF80900200A8DF80A003248B0F9E1
:1033F0000240E0B28DF80B00200A8DF80C002E4838
:10340000B0F90040E0B28DF80D00200A8DF80E00F2
:1034100029488088404204B2E0B28DF80F00200AAB
:103420008DF810002549B1F9000002F0BFFD0646F5
:103430004FF07D5102F01AFE054602F07BFD04B20A
:10344000E0B28DF81100200A8DF812001B49B1F985
:10345000020002F0ABFD06464FF07D5102F006FE81
:10346000054602F067FD04B2E0B28DF81300200AB1
:103470008DF814001149B1F9040002F097FD0646D9
:103480004FF07D5102F0F2FD054602F053FD04B20B
:10349000E0B28DF81500200A8DF816006846FEF798
:1034A0001DFB8DF8170020216846FFF7BFFC08B010
:1034B00070BD000060000020660000206C0000204D
:1034C00001460020034A506820F440400843506001
:1034D000704700000010024029B1064A52690243B9
:1034E000044B5A6104E0034A52698243014B5A611A
:1034F000704700000010024029B1064AD269024319
:10350000044BDA6104E0034AD2698243014BDA6179
:10351000704700000010024029B1064A12690243B8
:10352000044B1A6104E0034A12698243014B1A6199
:10353000704700000010024029B1064A9269024318
:10354000044B9A6104E0034A92698243014B9A61F9
:10355000704700000010024029B1064AD2680243B9
:10356000044BDA6004E0034AD2688243014BDA601C
:10357000704700000010024030B5002100220024F6
:1035800000232D4D6D6805F00C0121B1042905D0F3
:10359000082923D105E0294D056022E0284D05606A
:1035A0001FE0254D6D6805F47012234D6D6805F41C
:1035B0008034022505EB92421CB9224D554305602B
:1035C0000BE01D4D6D6805F400351DB11B4D5543D5
:1035D000056002E01A4D5543056002E0174D056095
:1035E00000BF00BF144D6D6805F0F0010909164DCC
:1035F0006B5C0568DD4045600F4D6D6805F4E0616A
:10360000090A114D6B5C4568DD4085600A4D6D68A7
:1036100005F46051C90A0C4D6B5C4568DD40C5601E
:10362000054D6D6805F44041890B084D6B5CC5681C
:10363000B5FBF3F5056130BD0010024000127A00C1
:103640000024F40000093D00E9000020F9000020FA
:1036500010B53248008840F21451884205DA3048EB
:103660000078401C2E49087002E000202C490870A8
:103670002B4800780F2806DD2A480078012802D15F
:103680000020284908702548008840F214518842DB
:1036900013DA2248408888420FDA20488088B0F543
:1036A000AF6F0ADD1D488088B0F5C86F05DA1E4887
:1036B0000078401C1C49087002E000201A4908707C
:1036C00019480078962805DD1648007810B90120C1
:1036D000144908701148008840F2145188420DDAEC
:1036E0000E484088884209DA0C488088884205DA0A
:1036F0000E480078401C0D49087002E000200B497C
:1037000008700A480078642806DD00200749087020
:10371000FDF7AAFCFDF7A2FC10BD00007C02002012
:1037200049000020480000204A0000204B000020F3
:103730000188B1F57A7F02DC4FF47A7100E00188EC
:1037400001800188B1F5FA6F02DB4FF4FA6100E005
:10375000018801808188B1F57A7F02DC4FF47A71AB
:1037600000E0818881808188B1F5FA6F02DB4FF437
:10377000FA6100E081888180C188B1F57A7F02DC3E
:103780004FF47A7100E0C188C180C188B1F5FA6F49
:1037900002DB4FF4FA6100E0C188C1804188B1F5D5
:1037A0007A7F02DC4FF47A7100E0418841804188E1
:1037B000B1F5FA6F02DB4FF4FA6100E04188418015
:1037C0000189B1F57A7F02DC4FF47A7100E001895A
:1037D00001810189B1F5FA6F02DB4FF4FA6100E073
:1037E000018901814189B1F57A7F02DC4FF47A7158
:1037F00000E0418941814189B1F5FA6F02DB4FF464
:10380000FA6100E0418941818189B1F57A7F02DC6A
:103810004FF47A7100E0818981818189B1F5FA6F75
:1038200002DB4FF4FA6100E081898181704700007A
:1038300000B589B001211920FFF77EFE01210803A0
:10384000FFF77AFEE020ADF80C0001208DF80E00A5
:1038500018208DF80F0003A93348FEF76BF80420F9
:10386000ADF80C0001208DF80E0010208DF80F002F
:1038700003A92E48FEF75EF81020ADF80C000120D9
:103880008DF80E0010208DF80F0003A92648FEF7D2
:1038900051F80120ADF80C0003208DF80E004820EF
:1038A0008DF80F0003A92148FEF744F800210120FC
:1038B000FEF720F80120019000208DF808000C2070
:1038C0008DF8090001208DF80A0001A8FDF748FFD6
:1038D00010201549103108600020ADF810004FF499
:1038E0008270ADF812000020ADF81400ADF816009B
:1038F000ADF818004815ADF81A001020ADF81C00FE
:103900000020ADF81E000720ADF8200004A90848EB
:1039100000F038F80121064800F01AF805A0FFF77A
:10392000F5FB09B000BD000000080140000C01409B
:10393000003001400D0A2053504931202020202022
:10394000B3F5CABCBBAFCDEAB3C9A3A10000000068
:1039500021B1028842F04002028004E002884FF662
:10396000BF731A40028070470246002013890B4043
:103970000BB1012000E000207047014688897047A4
:103980008181704710B50022028802F441520B88F1
:103990004C8823438C882343CC8823430C892343BE
:1039A0004C8923438C892343CC8923431A430280C7
:1039B000838B4FF2FF74234083830B8A038210BDF5
:1039C00010B5044600BF02210A48FFF7CDFF0028CA
:1039D000F9D021460748FFF7D3FF00BF0121054872
:1039E000FFF7C2FF0028F9D00248FFF7C6FFC0B2B8
:1039F00010BD0000003001407047000010B51048B5
:103A00000078401C0E49087008460078012804D050
:103A1000022805D003280CD105E0FFF7AFFC0CE02D
:103A2000FFF780FB09E0FFF7C9FB0020044908709D
:103A300003E000200249087000BF00BF10BD000075
:103A4000E800002010B500F001F810BD0CB5002012
:103A5000019000903348006840F48030314908609C
:103A600000BF3048006800F4003000900198401C0E
:103A70000190009818B90198B0F5A06FF1D12948CC
:103A8000006800F4003010B10120009001E0002037
:103A900000900098012843D12348006840F01000AE
:103AA000214908600846006820F0030008600846C5
:103AB000006840F0020008601A48406819494860F0
:103AC0000846406848600846406840F480604860A6
:103AD0000846406820F47C1048600846406840F47E
:103AE000F81048600846006840F08070086000BF29
:103AF0000C48006800F000700028F9D009484068C0
:103B000020F00300074948600846406840F0020082
:103B1000486000BF0348406800F00C000828F9D155
:103B20000CBD0000001002400020024070B50446A9
:103B3000FEF7AEF908B9002070BDD020FEF73AFAC2
:103B4000FEF706FA18B9FEF7E1F90020F4E720467F
:103B5000FEF730FAFEF7FCF9FEF79AF9D120FEF7EE
:103B600029FAFEF7F5F9FEF75DF90546FEF738F993
:103B7000FEF7CCF92846DFE770B505460C46FEF7A0
:103B800087F908B9002070BDD020FEF713FAFEF7C0
:103B9000DFF918B9FEF7BAF90020F4E72846FEF776
:103BA00009FAFEF7D5F92046FEF704FAFEF7D0F938
:103BB000FEF7ACF90120E6E710B51348006840F0C5
:103BC00001001149086008464068104908400E4944
:103BD0004860084600680E4908400B4908600846DE
:103BE000006820F4802008600846406820F4FE0049
:103BF00048604FF41F008860FFF724FF4FF000601B
:103C00000449086010BD0000001002400000FFF8E9
:103C1000FFFFF6FE08ED00E01148008800F001000B
:103C2000D8B14FF6FE700E4908800E48007800B9F2
:103C300070470D480068401C0B4908600B4800782D
:103C4000401C0A4908700A480078401C084908705E
:103C500008480078401C0749087000BFE8E70000EA
:103C60001004004040000020500000200000002010
:103C7000010000200200002021B1028842F08002F1
:103C8000028004E002884FF67F731A40028070477A
:103C9000CA430282704721B1028842F001020280C9
:103CA00004E002884FF6FE731A400280704700005D
:103CB00010B504466848844208D10121C014FFF7BA
:103CC0004BFC0021E014FFF747FCC4E0B4F1804F47
:103CD00008D101210846FFF71FFC00210120FFF752
:103CE0001BFCB8E05D48844208D101210220FFF7A7
:103CF00013FC00210220FFF70FFCACE0584884427F
:103D000008D101210420FFF707FC00210420FFF760
:103D100003FCA0E05348844208D101210820FFF7AA
:103D2000FBFB00210820FFF7F7FB94E04E4884429C
:103D300008D101211020FFF7EFFB00211020FFF731
:103D4000EBFB88E04948844208D101212020FFF79D
:103D5000E3FB00212020FFF7DFFB7CE044488442A6
:103D600008D101214014FFF7F7FB00216014FFF791
:103D7000F3FB70E03F48844209D10121C804FFF7FA
:103D8000EBFB00214FF40020FFF7E6FB63E03A482D
:103D9000844209D101210805FFF7DEFB00214FF421
:103DA0008010FFF7D9FB56E03448844209D1012145
:103DB0004805FFF7D1FB00214FF40010FFF7CCFBC3
:103DC00049E02F48844208D101214020FFF7A4FB9D
:103DD00000214020FFF7A0FB3DE02A48844208D1A3
:103DE00001218020FFF798FB00218020FFF794FB42
:103DF00031E02548844208D101218015FFF78CFB72
:103E00000021A015FFF788FB25E02048844209D156
:103E100001210804FFF7A0FB00214FF48030FFF7D9
:103E20009BFB18E01A48844209D101214804FFF79E
:103E300093FB00214FF40030FFF78EFB0BE0154899
:103E4000844208D101218804FFF786FB00214FF44A
:103E50008020FFF781FB10BD002C014000040040D2
:103E600000080040000C004000100040001400401A
:103E700000340140004C014000500140005401401A
:103E800000180040001C004000200040004001409D
:103E900000440140004801401AB183890B438381EB
:103EA00002E083898B4383817047000070B5002452
:103EB00000220023058C4FF6FE7635400584028CE7
:103EC0008388048B4FF68F752C40B51E2C400D88CF
:103ED0002C43751E2A400D892A434D882A43144DD0
:103EE000A8420BD0134DA84208D0134DA84205D0CC
:103EF000124DA84202D0124DA84213D14FF6F775C9
:103F00002A404D892A434FF6FB752A408D882A4363
:103F10004FF6FF652B404FF6FF552B408D892B4305
:103F2000CD892B4383800483CD888586028470BD30
:103F3000002C014000340140004001400044014099
:103F4000004801400A460021018B4FF6F7731940E3
:103F5000114301837047000070B500240022002344
:103F6000058C4FF6EF7635400584028C8388048BF0
:103F700048F6FF752C404FF6FF452C400D884FF654
:103F8000FF7606EA05252C434FF6DF752A400D899A
:103F900006EA05152A434D8806EA05152A43154DFC
:103FA000A84202D0144DA8421DD14FF67F752A4079
:103FB0004D894FF6FF7606EA05152A434FF6BF7581
:103FC0002A408D8806EA05152A434FF6FF352B4017
:103FD0004FF2FF752B408D8906EA85052B43CD896D
:103FE00006EA85052B4383800483CD8805870284F8
:103FF00070BD0000002C0140003401400A46002141
:10400000018B4FF2FF7319404FF6FF7303EA02234F
:10401000194301837047000070B50024002200237B
:10402000058C4FF6FF6635400584028C8388848BAF
:104030004FF68F752C404FF6FC752C400D882C43A5
:104040004FF6FF552A400D894FF6FF7606EA052503
:104050002A434D8806EA05252A43154DA84202D079
:10406000144DA8421DD14FF2FF752A404D894FF6DD
:10407000FF7606EA05252A434FF6FF352A408D884C
:1040800006EA05252A434EF6FF752B404DF6FF75CF
:104090002B408D8906EA05152B43CD8906EA0515C7
:1040A0002B4383808483CD888587028470BD000084
:1040B000002C0140003401400A460021818B4FF65C
:1040C000F7731940114381837047000070B50022D7
:1040D00000230024058C4EF6FF7635400584038CC2
:1040E0008488828B48F6FF752A404FF6FF452A40A8
:1040F0000D884FF6FF7606EA05252A434DF6FF7533
:104100002B400D8906EA05352B434D8806EA053517
:104110002B430B4DA84202D00A4DA84208D14BF6C2
:10412000FF752C408D894FF6FF7606EA85152C43E6
:1041300084808283CD88A0F84050038470BD000045
:10414000002C0140003401400A460021818B4FF2CF
:10415000FF7319404FF6FF7303EA0223194381836B
:1041600070470000002202881D4B98420ED01D4B64
:1041700098420BD0B0F1804F08D01B4B984205D02D
:104180001A4B984202D01A4B984204D14FF68F73C3
:104190001A404B881A43174B984207D0164B984247
:1041A00004D04FF6FF431A40CB881A4302808B8815
:1041B00083850B8803850A4B98420BD0094B9842A4
:1041C00008D00E4B984205D00D4B984202D00D4BB3
:1041D000984201D10B7A0386012383827047000045
:1041E000002C014000340140000400400008004061
:1041F000000C00400010004000140040004001404E
:1042000000440140004801407CB520202E49086050
:104210002E480078401C2D490870FEF727FB30B966
:104220002B480068401C2A490860FEF755FBFEF742
:10423000EBF928492848FCF711F828492848FDF7E8
:104240000BFD28492548FDF7E5FC2449B1F9040098
:1042500001F0ACFE0646244901F008FF054623495B
:1042600001F004FF044622480168204601F032FDB7
:104270001F4908601548007802281DD10020134905
:1042800008701449B1F9040001F090FE0446114988
:10429000B1F9020001F08AFE05460E49B1F90000AD
:1042A00001F084FE06460F4BCDE900549A68596828
:1042B00018683346FDF7BCFEFEF742FE2020024997
:1042C000091D08607CBD0000100C01404100002069
:1042D000B80000206C000020600000207200002068
:1042E0006600002070020020F1FF793D6F12833AD2
:1042F0008C02002070B54FF4807023490860234879
:10430000FDF7FCFB22492148FCF706FA4FF48070C8
:104310001D49091D08601F480068401C1D490860B0
:104320001D480078012802D1002008602BE01749C1
:10433000886801F0A3FC21F0004104460022174BDD
:1043400001F08AFA0BD31149486801F097FC21F07B
:10435000004104460022114B01F07EFA0BD20D48B9
:1043600000680A280FD90B48006814280BD90020D0
:104370000849086007E007480068B0F5967F02D951
:1043800000200449086070BD100C01408C02002020
:104390007C02002044000020DA000020008046401B
:1043A00010B54FF4007007490860074802780749C4
:1043B0000748FCF7F5FA4FF400700249091D086040
:1043C00010BD0000100C0140480000207C020020BD
:1043D0007002002000B587B001210846FFF78CF875
:1043E00040F2E730ADF814000320ADF810000020D3
:1043F000ADF81600ADF8120004A94FF08040FFF7A9
:10440000B1FE6020ADF800000120ADF802000020F0
:10441000ADF80600ADF8080069464FF08040FFF7A0
:1044200045FD0821C806FFF78DFD69464FF0804025
:10443000FFF792FD0821C806FFF7E0FD69464FF03F
:104440008040FFF7E9FD0821C806FFF735FE694601
:104450004FF08040FFF73AFE0821C806FFF774FED0
:1044600001218807FFF708FC01218807FFF713FCEB
:1044700007B000BD3EB5044601210220FFF73CF81D
:10448000124804801248FFF713FC124890FBF4F026
:1044900080B2ADF804004720ADF800000020ADF870
:1044A0000600ADF8020069460948FFF75BFE0121EE
:1044B0000748FFF7EDFB012211460548FFF7ECFC2A
:1044C00001210348FFF7E7FB3EBD00005400002038
:1044D0000004004040420F0008B50821184800F0D1
:1044E0004CF810B1164800F0E7F81548008800F0C5
:1044F0004000C0B1134801780078401C114A107088
:104500001148405C0E49091D0880104600780F498B
:104510000978884207D10A480C30008820F08000D2
:1045200007490C3108800648008800F0200028B1B7
:104530000348001D008840B2009000BF08BD000085
:10454000003801404C000020300100204D000020C8
:1045500001F40072B2F5007F00D100BFCA430280AF
:10456000704721B1828942F40052828104E082893D
:104570004DF6FF731A408281704702460020B1F564
:10458000007F00D100BF13880B400BB1012000E079
:1045900000207047F0B503460024002600250020C7
:1045A00040F66A17B94200D100BF1846C1F3421461
:1045B00001F01F06012707FA06F5012C01D10C3086
:1045C00004E0022C01D1103000E014301AB1076869
:1045D0002F43076002E00768AF430760F0BD0000AB
:1045E0002DE9F04786B005460E460024A24600BFDE
:1045F000A1460027B08900B100BF2F462C8A4CF697
:10460000FF700440F08804432C82AC894EF6F3100E
:104610000440B08831890843718908430443AC8160
:10462000AC8A4FF6FF400440B0890443AC8201A835
:10463000FEF7A2FF1F48874202D1DDF810A001E07B
:10464000DDF80CA0A88900F4004040B10AEBCA00D4
:1046500000EB0A1031684900B0FBF1F807E00AEB03
:10466000CA0000EB0A1031688900B0FBF1F8642041
:10467000B8FBF0F004012009642101FB1089A8892E
:1046800000F4004040B1322000EBC900B0FBF1F073
:1046900000F00700044308E0322000EB0910642119
:1046A000B0FBF1F000F00F0004432C8106B0BDE830
:1046B000F08700000038014001468888C0F30800F8
:1046C0007047000010B586B0044601210520FEF7B2
:1046D00033FF01218803FEF72FFF4FF40070ADF880
:1046E000140018208DF8170003208DF8160005A976
:1046F0001848FDF71FF94FF48060ADF8140004204E
:104700008DF8170003208DF8160005A91148FDF754
:1047100011F901940020ADF80800ADF80A00ADF8D9
:104720000C00ADF810000C20ADF80E0001A90A48ED
:10473000FFF756FF012240F225510748FFF72AFFF5
:1047400001210548FFF70DFF40210348FFF700FF57
:1047500006B010BD000801400038014000BFFEE770
:10476000490050EAC12018BF04204A0D18BF40F08C
:10477000010040F2FF72B2EB515F08BF40F002004F
:10478000012808BF052070472DE9F0474FF0060AC1
:10479000062600250027A8464FF0FF397448B0F8D8
:1047A00000A0744806885FEA0A0075D0A0F56E4044
:1047B000EE3858B3A0F58850113800286DD146B9AD
:1047C0006B48FDF717F80446042C1ED02046BDE8C0
:1047D000F0874EF6EE60864210D16548FDF70AF884
:1047E0000446042C01D02046F1E700216148FDF782
:1047F00041F80446042C08D02046E8E7FCF764FEA4
:104800000446042C01D02046E1E7AEE07EBB002543
:1048100022E05748C088584931F81510884201D124
:104820000FFA85F94D4515D0534931F81500534914
:10483000FCF7EAFE8046B8F1010F0BD04E4931F883
:1048400015004E490988FCF70FFF0746042F01D0D9
:104850003846BCE7681C85B2102DDADB00214448DD
:10486000FDF708F80446042C02D02046AFE707E025
:104870004048FCF7BFFF0446042C1FD02046A6E7A3
:104880004FF6FF70864212D13A48FCF7B3FF044658
:10489000042C03D020469AE711E05EE00021344862
:1048A000FCF7E8FF0446042C08D020468FE7FCF70D
:1048B0000BFE0446042C01D0204688E755E036B9AB
:1048C000FCF702FE0446042C46D020467FE74FF654
:1048D000FF70864207D12748FCF78CFF0446042C62
:1048E0003AD0204673E7002523E02248801D008847
:1048F000214931F81510884201D10FFA85F94D454B
:1049000015D01D4931F815001C49FCF77DFE804685
:10491000B8F1010F0BD0184931F815001749098873
:10492000FCF7A2FE0746042F01D038464FE7681C6B
:1049300085B2102DD9DB00210E48FCF79BFF044601
:10494000042C01D0204642E70948FCF753FF0446F7
:10495000042C01D020463AE707E0FCF7B5FD0446F9
:10496000042C01D0204632E700BF00BF04202EE710
:1049700000000108000401088A00002058000020FF
:104980002DE9F0414F1E00EBC7010446D1E90001BB
:1049900015461E4637F006020DD02A46334600F073
:1049A0005DFE7F1E04EBC703D3E9002300F006FC85
:1049B00037F00602F1D1022F25D0042F13D0062F95
:1049C00018BFBDE8F0812A46334600F047FED4E91F
:1049D0000A2300F0F3FB2A46334600F03FFED4E9F9
:1049E000082300F0EBFB2A46334600F037FED4E9FB
:1049F000062300F0E3FB2A46334600F02FFED4E9FD
:104A0000042300F0DBFB2A46334600F027FED4E9FE
:104A1000022300F0D3FB2A46334600F01FFED4E900
:104A20000023BDE8F04100F0C9BB012201F0CDBC7C
:104A300000F0C4BB002213461046114600F07ABCB9
:104A4000024A0020110701F0C0BC000001FDFFFF79
:104A500080F31088704700002DE9F04D8D4F21F054
:104A6000004A86B005460C46BA452ADBAAEB070089
:104A700028430AD08848824501DC1AD1CDB106B05E
:104A80002846BDE8F04DFFF7D0BF844A844B284646
:104A900000F0E4FD07460E46824A834B2846214635
:104AA00000F0DCFD06B03A463346BDE8F04D00F0BC
:104AB00085BB0120FBF790FB06B0BDE8F04DFFF78A
:104AC000B9BF7A48824542DABAF1795F0BDA2846F3
:104AD000FFF746FE042808BFFFF7B2FF284606B0DE
:104AE0002146BDE8F08D2A460B46104600F0B6FD83
:104AF000834602466E480E460B4606217844FFF771
:104B00003FFF5A46334600F0A9FD804669488A4671
:104B10005A46334604217844FFF732FF5A4633465B
:104B200000F09CFD00223B4600F048FB02460B468D
:104B30004046514600F0FEFB2A46234600F08EFD1B
:104B400006B02A462346BDE8F04D00F037BB2846A4
:104B500024F0004100223D463B4600F0B3FE4FF0FA
:104B6000FF3201F032FC0646024653480F460B4620
:104B700006217844FFF704FF32463B4600F06EFD05
:104B8000CDE900014D4832463B4604217844FFF709
:104B9000F7FE32463B4600F061FD00222B4600F056
:104BA0000DFB834602913046394600F0AFFA80464D
:104BB00043480D46504517DCDDE900015A46029B8B
:104BC00000F0B8FB42462B4600F048FD42462B461B
:104BD00000F0F4FA012201F0F8FB304A304B00F00B
:104BE00063FF304A304B4CE04FF0000A52460B4610
:104BF000404600F0E3FACDE9031052462B4610463A
:104C0000194600F02BFD32463B4600F05BFEDDE925
:104C1000033200F08FFB06460F46DDE900015A46DD
:104C2000029B00F087FB8346009101223046394603
:104C300001F0CBFB194A1A4B00F044FE06460F4622
:104C400001224046294601F0C0FB5A46009B00F075
:104C500005FD32463B4600F027FF06460F4601227F
:104C60005046294601F0B1FB0E4DDFF858802A4628
:104C7000434600F027FE32463B4600F023FE2A461C
:104C8000434600F01FFE002CD8BF81F0004106B063
:104C9000BDE8F08D0000F03F0000F07F075C1433AA
:104CA00026A6913C182D4454FB21F93F0000E03F1B
:104CB000581900006E190000E2180000F8180000F2
:104CC0003333EF3FFB21E93F2DE9F84F04460D4612
:104CD00021F0004000917349814211DC7249884201
:104CE00001DC06D12CB120462946BDE8F84FFFF77C
:104CF0009CBE6E48002DCCBF6D496E49BDE8F88F53
:104D00006D49814211DD6D498142D8BF4FF0FF36B8
:104D10006DDD20462946FFF723FD042808BFFFF775
:104D20008FFE20462946BDE8F88F6549654F25F07E
:104D30000045814233DD6449814219DD0026324657
:104D40004FF080432046294600F038FA80468A46D4
:104D500001222046294601F038FB00223B4600F0A4
:104D6000A3FE4246534600F0E5FA04460D463EE0F7
:104D700001260022BA463B462046294600F01EFA8C
:104D800080460F46002253462046294600F08CFEFE
:104D900042463B4600F0CEFA04460D4627E04B491A
:104DA00081421BDDDFF828A102260022534620465F
:104DB000294600F053FC00223B4600F0FFF98046F4
:104DC0000F46002253462046294600F06DFE42461B
:104DD0003B4600F0AFFA04460D4608E003262246A3
:104DE0002B4600203B4900F0A5FA04460D4622461A
:104DF0002B461046194600F031FC8B46824602468F
:104E00000B4600F02BFC07460246334888460B460B
:104E100006217844FFF7B4FD52465B4600F01EFCC5
:104E200082462E488B463A46434605217844FFF792
:104E3000A7FD3A46434600F011FC02460B46002E01
:104E4000504659460CDA00F0B9F922462B4600F0DC
:104E500005FC01B022462B46BDE8F04F00F032BD04
:104E600000F0ACF922462B4600F0F8FB1C4A7A44CD
:104E700002EBC603D3E9002300F016FE22462B46C0
:104E800000F012FE174A7A4402EBC603D3E900236E
:104E900000F018FD009A002AB8BF81F00041BDE87B
:104EA000F88F0000000010440000F07F182D4454DB
:104EB000FB21F93FFB21F9BF0000DC3F0000203E51
:104EC0000000F33F0000F03F0000E63F0080034099
:104ED0000000F83F0000F0BFFA160000B81600000E
:104EE000561600001E1600002DE9F04D9446CCF138
:104EF000000423F000464CEA0404524F46EAD474FE
:104F00009A46884621F00042BC4206D8454240EA13
:104F1000050442EAD474BC4204D9BDE8F04D6246AF
:104F2000FFF786BDAAF14055A5F17F6555EA0C044F
:104F30000BD0022404EAAA74434DDFF810E144EADE
:104F4000D87452EA000B04D00CE0BDE8F04DFFF736
:104F5000BBBE002C14BF012CBDE8F08D022C30D05C
:104F6000032C32D056EA0C0B0AD0BE4220D1BA42F2
:104F700009D126F0804622F080423346114617E0E0
:104F800000291ADB25E0DFF8C8B0FB44002C04BF81
:104F9000DBE90001BDE8F08D012C02BFDBE9000177
:104FA00081F00041BDE8F08D022C0AD0032C0CD01A
:104FB000BA4212D1B8F1000F0BDA23482549BDE8F7
:104FC000F08D28462449BDE8F08D28467146BDE89D
:104FD000F08D1D482149BDE8F08D921B12153C2A29
:104FE000C4BF19481D490EDCBAF1000FBEBF12F153
:104FF0003C0F0020014606DB624600F09BF921F0E1
:105000000041FFF761FE002C08BFBDE8F08D012CC8
:1050100004BF81F00041BDE8F08D114A114B022C14
:1050200007D000F041FD2A46BDE8F04D0A4B00F0E4
:105030003BBD00F039FD2A46BDE8F04D064B00F0BF
:1050400041BC00000000F07F182D4454FB2109C032
:10505000B2150000FB21F9BFFB210940FB21F93FFC
:10506000075C143326A6A13C2DE9F04704464FF017
:105070007C51204600F0FAFF814625462E460C481A
:10508000A0EB660635462946484600F0EFFF82460B
:10509000294600F0EBFF80464FF07F5101F0E3F826
:1050A0000746294600F0E2FF05462846BDE8F0879E
:1050B000DF59375FFBF7CCFA1EE04FF400500F4981
:1050C00008610F480078012804DB00200C490870B3
:1050D000FFF79AF80B480078022804DB0020094902
:1050E0000870FFF75DF908480078042804DB002009
:1050F00005490870FFF7FEF8DFE7000000100140E7
:105100000000002001000020020000202DE9F041F5
:1051100006460F4600F0E2FB04000D4618BF0120D2
:10512000284320F00040C0F17F6000F1E040C00F54
:105130000ED0301C18BF0120384320F00040C0F1D1
:105140007F6000F1E040C00F04BF0120FBF744F88E
:1051500020462946BDE8F08121F00042A2F16052CC
:10516000B2F5801F01F0004328BFD2F17F6C0BD94C
:105170005FEA001C43EAC20242EB507018BF70475E
:1051800028BF20F001007047B2F5801FBCBF184651
:1051900070474FEA410C1CF5001F02D2084601F08F
:1051A0002CB870B500F004FB00000089FFF7F6BFD3
:1051B0004FF00040A0F580007047000010B591EA64
:1051C000030F48BF83F0004300F17684841A71EB2B
:1051D000030C05D2121943EB0C03001B61EB0C010D
:1051E000DFF824E14FEA1154A4EB135C1EEA430FED
:1051F00018BF9EEA445F73D023EA0E03DCF1200E51
:1052000021EA045143F4801332D322FA0CFE10EB4E
:105210000E0023FA0CFE41EB0E01CCF1200E03FA36
:105220000EFE10EB0E0051F10001B1F5801FCCF124
:10523000200E32D201EB045112FA0EF2BDE81040FA
:1052400058BF7047401C38BF5FEA420218BF704722
:10525000002814BF20F0010041F100014FEA410392
:1052600013F5001F38BF7047A1F1C04100F0EEBA3E
:10527000012A43EB0302ACF1200CDCF11F0E32BF1C
:105280004FF0000E23FA0CF310EB030041EB045136
:10529000B4EB115FD0D0A1EB045101F580114908A6
:1052A0005FEA300001EB04510ED350F1000038BF2B
:1052B00012FA0EFE08D1BDE81040C9E7401C38BF05
:1052C0005FEA4202CAD1C3E7BDE810404FEA41039A
:1052D00013F5001F38BF7047A1F1C04100F0B6BA06
:1052E0009EEA445F08D011EA5E0FBDE8104004BF9B
:1052F00001F0004100207047BDE8104070B500F09B
:1053000057FA00BF64FBBE3E0000E0FF02494FF0C9
:10531000000001F028B800BF0000F87F491058BF16
:10532000C1F140415B1058BFC3F140438B42EFF3E2
:10533000008070472DE9C04130B4DFF8A0C23CEADC
:10534000111418BF3CEA131400F0EC8081EA030545
:105350001CEA111444EAD57418BF1CEA131500F0B6
:10536000C780A4EB05044FF0004545EAC12145EA9A
:10537000C32341EA505143EA525304F17F749942E6
:1053800004F500344FEAC0204FEAC22208BF904221
:1053900000F09C804FEA13650FF24016765D4FEAED
:1053A000134506FB05F7C7F1807706FB07F74FEAC1
:1053B000D737A7FB03687642C8F58038A7FB06CE2F
:1053C00038BFA8F1010807FB08E64FF0000EA6FB66
:1053D000028CE6FB03CEDCF1000CCEF1004E38BFB0
:1053E000AEF1010EA6FB0C584FF000074FF0000580
:1053F000E6FB0E87A1FB08C6A0FB07CE16EB0E0648
:1054000045F10005E1FB076515F1E04E7EBFA4F50F
:1054100080345FEA46066D4116F1800745F10005CC
:105420004FEA17274FEA066647EA0567A6F1DE4608
:10543000B6F1805F4FEA15251FD9384624F0010CDC
:1054400005EBC471BCF1FE6F01EB0C1102D8F0BC8E
:10545000BDE8008124425CBF01F5801E9EEAC47F46
:1054600002D4F0BCBDE80081244238D4F0BCA1F1E4
:10547000C041BDE8004100F0E9B94FEAD22242EA5A
:1054800043524FEAD323A7FB02864FEAD02040EADB
:10549000415007FB03661EEA0E0F4FEAD12105FBC0
:1054A000026658BFA6EB0056B6EB00564FEA520E06
:1054B0004EEAC37E18EB0E0E56EB530EBDD518EB1D
:1054C00002085E417F1C55F10005B6E74FF48015D8
:1054D0004FF000074FF000064FF00008ADE7F0BCBA
:1054E0004FF0000001F1C04101F00041BDE8008132
:1054F00011EA0C1F0CEA131500D00CE013EA0C1F84
:1055000000F025804FF00000F0BC81EA030101F0BB
:105510000041BDE80081F0BCBDE8004181EA030123
:1055200000F094B9F0BCBDE8004170B500F040F95E
:10553000097EFC3E00F007B881EA03014FF000004D
:1055400001F00041704781EA030100F07FB9F0BC2F
:10555000BDE800414FF0000021497047FFFDFBF915
:10556000F7F5F4F2F0EEEDEBE9E8E6E4E3E1E0DE96
:10557000DDDBDAD8D7D5D4D3D1D0CFCDCCCBCAC808
:10558000C7C6C5C4C2C1C0BFBEBDBCBBBAB9B8B72F
:10559000B6B5B4B3B2B1B0AFAEADACABAAA9A8A822
:1055A000A7A6A5A4A3A3A2A1A09F9F9E9D9C9C9BF0
:1055B0009A9999989797969595949393929191909B
:1055C0008F8F8E8E8D8C8C8B8B8A8989888887872C
:1055D0008685858484838382828181800000FF07A1
:1055E0000000F87F51EA030C17D41CF5801F58BF48
:1055F000BCF5801F00F10680994218BF704708BFB4
:105600009042704707D711F5801F58BF13F5801FD0
:1056100019D499427047894270471CF5801F08D5FC
:10562000BCF5801FF7D58B4218BF704708BF824278
:1056300070474FF4001C1CEB410F38BF1CEB430FAD
:1056400001D28B42704770B500F0B2F89224490045
:105650004FF000514FF08053FFF760BEDFF848C1B4
:1056600070B51CEA111E1EBF1CEA13159EEA0C0F32
:1056700095EA0C0F00F06F8081EA030423EA4C13D3
:105680004EEAD47E21EA4C1141F4801143F4801398
:10569000AE44A1FB024CA0FB0365AEF17F7E361940
:1056A00055EB0C05A1FB034C4CF10003A0FB021CC5
:1056B00016EB0C06654153F10003094218BF46F092
:1056C000010613F4007F0BD14FEA03314FEA053096
:1056D000340341EA155140EA16506FF003020AE024
:1056E0004FEAC3214FEAC520F40241EA555140EA8E
:1056F00056506FF0020202EB2E4201EB025585EA92
:10570000CE710AD05FEA440C18BF24F0004450F177
:10571000000041F1000120EAD47040F2FE7C6245B5
:1057200000D270BDA84214BF4FF080444FF04044F7
:10573000002E08BF0024BEF1806FA8BFA1F1C041B8
:10574000BDE8704080F282804FF0000001F1C0415E
:1057500001F0004170479EEA0C0F0CEA131518BFC8
:1057600095EA0C0F06D04FF0000081EA030E0EF010
:10577000004170BD00F01CF88900013E00F007B840
:1057800000F009B84FEA430C5FEA5C5C08D081EA9C
:10579000030100F05BB84FEA410C5FEA5C5CF6D1B4
:1057A0004FF00000014970470000FF070000F87F3C
:1057B0000EF1020E2EF0030E5EF8046B364205D495
:1057C000012A43EB030515F5001F12D8012841EB10
:1057D000010C1CF5001F0CD80ED14FEAD17C15F539
:1057E000001F0CEB4C0C0CF1020C08BF4CEBD37CF3
:1057F00004E04FF0080C01E04FEAD37C0CEB4C05C1
:1058000026FA05F606F00706B6F1040C06D20EEBF2
:10581000860CBDE870404CF0010C6047DFE80CF0EE
:10582000090B02024FF000414FF00000A1F50021EA
:1058300070BD19461046012851EB010418BFD4F57C
:10584000001484BF002001F0004170BD0808A0F5DD
:1058500000114FEA3101704753EA010C17D41CF5CF
:10586000801F58BFBCF5801F00F106808B4218BF17
:10587000704708BF8242704707D713F5801F58BF93
:1058800011F5801F19D48B4270479B4270471CF55D
:10589000801F08D5BCF5801FF7D5994218BF704707
:1058A00008BF904270474FF4001C1CEB430F38BFF9
:1058B0001CEB410F01D2994270470FB40CBC03BCE2
:1058C000FFF7C1BE91EA030F10B581F000413FF52B
:1058D0007DAC83F0004300F0EFB800002DE9F0410B
:1058E00001F5801CBCF5001FC0F2C3804FEA115CBB
:1058F00021EA0C510CF1FD0C41F480115FEA5C0CC3
:105900000CF5C07C01D3400049413DA4890241EA25
:10591000905187028E0E0A0CA45D04FB04F602FB74
:1059200006F6C6F14046A4FB0662F60D46EA42269C
:1059300006FB06F4A4FB01235242C3F1404338BFE7
:105940005B1EA6FB02420024E6FB0324D20B42EAC4
:105950004446A6FB0623A1FB02E2A3FB07E4A4182E
:105960004FF0000252F10002E3FB01426442C2F137
:10597000404E38BFAEF1010EA6FB04234FF00002EB
:10598000E6FB0E32A2FB03464FF00004B61954F1B9
:105990000004E2FB0264A1FB06E6A4FB07E816EBA9
:1059A00008064FF0000858F10008E4FB0168764251
:1059B000C8F1405838BFA8F10108A2FB06E4A3FBD8
:1059C00008E52D194FF0000454F10004E2FB0854DF
:1059D000A1FB05E6A7FB04E818EB06084FF000065C
:1059E00056F10006E1FB048618F1200556F1000689
:1059F000A809A8F11B08B10908F03F08B8F10A0F7F
:105A000040EA86601CD901EB0C51BDE8F08100BF73
:105A1000FCF5EEE8E2DDD8D3CFCBC7C3C0BDB9B645
:105A2000B4B1AEACA9A7A5A3A19F9D9B9A9896954A
:105A30009392908F8D8C8B898887868584838281D1
:105A4000A0FB006800FB01F208EB4208B8EB8728D6
:105A500007D5341858EB0104D5D5401C51F100018D
:105A6000D1E7341A78EB0104CDD4401E71F1000166
:105A7000C9E75FEA4C0C5FEA9C5C0DD105D34FF09F
:105A8000000001F00041BDE8F081BDE8F04170B5D3
:105A9000FFF78EFE6DDBFFBEBDE8F0414FF000006A
:105AA000004970470000F87F10B591EA030F48BF26
:105AB00083F000433FF58AAB841A71EB030C07D2E5
:105AC00012198CF0004C43EB0C03001B61EB0C0132
:105AD000DFF8A4E14FEA1154A4EB135C1EEA430F74
