:020000040800F2
:10000000100800208901000859040008A70300080F
:10001000AB0300083F0200087D100008000000004C
:10002000000000000000000000000000210800089F
:1000300043020008000000005D060008A10100085E
:10004000A3010008A3010008A3010008A301000800
:10005000A3010008A301000845020008A30100084D
:10006000A3010008A3010008A3010008A3010008E0
:10007000A3010008A3010008A3010008A3010008D0
:10008000A3010008A3010008A3010008A3010008C0
:10009000A3010008A3010008A3010008A3010008B0
:1000A000A3010008A3010008A3010008A3010008A0
:1000B000A30100086D090008A3010008A3010008BE
:1000C000A3010008A3010008A3010008A301000880
:1000D000A3010008F90D0008A3010008A30100080E
:1000E000A3010008A3010008A301000800F002F822
:1000F00000F03AF80AA090E8000C82448344AAF188
:100100000107DA4501D100F02FF8AFF2090EBAE885
:100110000F0013F0010F18BFFB1A43F0010318473B
:10012000840F0000A40F0000103A24BF78C878C1E3
:10013000FAD8520724BF30C830C144BF04680C60ED
:10014000704700000023002400250026103A28BF35
:1001500078C1FBD8520728BF30C148BF0B60704739
:100160001FB51FBD10B510BD00F036F81146FFF7E2
:10017000F7FF00F085FF00F054F803B4FFF7F2FF3B
:1001800003BC00F055F800000948804709480047C3
:10019000FEE7FEE7FEE7FEE7FEE7FEE7FEE7FEE737
:1001A000FEE7FEE704480549054A064B7047000094
:1001B0000D090008ED0000081002002010080020C2
:1001C00010040020100400207047704770470000A2
:1001D00000487047B00100207546FFF7F9FFAE46B2
:1001E00005006946534620F00700854618B020B543
:1001F000FFF7D8FFBDE820404FF000064FF00007A2
:100200004FF000084FF0000B21F00701AC46ACE8BE
:10021000C009ACE8C009ACE8C009ACE8C0098D462B
:1002200070470446AFF300802046FFF7A6FF0000AA
:1002300001491820ABBEFEE726000200704700BF50
:10024000FEE7704710B5012000F00EF820B1012044
:1002500000F004F800F002F910BD00000149086048
:100260007047000014040140014600200022074BA3
:100270001B6803EA0102054B14331B680B4013B1E2
:100280000AB1012000E00020704700000004014096
:100290002DE9F0410246002500260020002300241D
:1002A000002791F803C00CF00F0591F803C00CF083
:1002B000100CBCF1000F03D091F802C04CEA050508
:1002C00091F800C0BCF1000F31D0146800202BE081
:1002D0004FF0010C0CFA00F3B1F800C00CEA030671
:1002E0009E4220D183004FF00F0C0CFA03F7BC4361
:1002F00005FA03FC4CEA040491F803C0BCF1280F92
:1003000006D14FF0010C0CFA00FCC2F814C00AE050
:1003100091F803C0BCF1480F05D14FF0010C0CFA65
:1003200000FCC2F810C0401C0828D1D31460B1F8FA
:1003300000C0BCF1FF0F34DD546800202EE000F156
:10034000080C4FF0010808FA0CF3B1F800C00CEAF1
:1003500003069E4221D183004FF00F0C0CFA03F7E5
:10036000BC4305FA03FC4CEA040491F803C0BCF159
:10037000280F05D100F1080C08FA0CF8C2F8148017
:1003800091F803C0BCF1480F07D100F1080C4FF001
:10039000010808FA0CF8C2F81080401C0828CED3D7
:1003A0005460BDE8F08100BFFEE700BFFEE700003B
:1003B00008B50121042000F08DF90F20ADF80000F0
:1003C00003208DF8020018208DF8030069460448C8
:1003D000FFF75EFF00F0C0FC02A000F05FF908BD6F
:1003E000000801400D0A2050574D202020202020D9
:1003F000B3F5CABCBBAFCDEAB3C9A3A100000000EE
:1004000030B5B0F57A7F01DD4FF47A70002800DA5C
:100410000020B1F57A7F01DD4FF47A71002900DA0E
:100420000021B2F57A7F01DD4FF47A72002A00DAFA
:100430000022B3F57A7F01DD4FF47A73002B00DAE6
:1004400000234FF08045A8862987AA87014D2B807D
:1004500030BD0000400000407047000070B507202C
:1004600000F05EF8044604F0400098B1602000F00F
:1004700057F80546202D08D12A460F49612000F083
:100480002FF800200D49088003E0FF21E22000F052
:100490005BF800BF04F0100030B104F0010018B1A7
:1004A000FF21E12000F050F800F00AF82146272053
:1004B00000F04AF870BD00006E010020220000200C
:1004C00010B50420054908600F21202000F03CF8F9
:1004D00004200249091F086010BD0000140C0140EF
:1004E0002DE9F04107460D46164610200B490860DD
:1004F000384600F079F98046002405E0002000F03D
:1005000073F92855601CC4B2B442F7DB10200349CC
:10051000091F08604046BDE8F08100001408014052
:1005200070B50446102007490860204600F05CF9C9
:10053000002000F059F9054610200249091F086003
:10054000284670BD1408014070B505460C461020C1
:1005500007490860284600F047F90646204600F0A3
:1005600043F910200249091F0860304670BD0000A1
:100570001408014070B5002100230F22C47804B391
:10058000154C246804F4E064C4F5E064210AC1F168
:100590000403CA40447804FA03F1847814402143E8
:1005A00009010E4C0678A155047804F01F050124BA
:1005B000AC4005786D11AD0005F1E025C5F80041AE
:1005C00009E0047804F01F050124AC40044D0678CE
:1005D000761145F8264070BD0CED00E000E400E027
:1005E00080E100E002490143024A116070470000C7
:1005F0000000FA050CED00E008B54FF4A060FFF72D
:10060000F1FF1D208DF8000000208DF80100012071
:100610008DF802008DF803006846FFF7ABFF062057
:100620008DF8000001208DF8010000208DF80200F7
:1006300001208DF803006846FFF79CFF25208DF808
:10064000000002208DF8010000208DF8020001203A
:100650008DF803006846FFF78DFF08BD7047000066
:1006600010B504460A4801780078401C084A10700A
:10067000084844540848008800F0800030B901223E
:1006800040F2277104480C3800F014FC10BD000043
:100690000D0000203C0000200C38014070B50546DC
:1006A0002C4603E02078FFF7DBFF641C207800284D
:1006B000F8D170BD29B1064AD2690243044BDA6110
:1006C00004E0034AD2698243014BDA6170470000BB
:1006D0000010024029B1064A92690243044B9A6114
:1006E00004E0034A92698243014B9A61704700001B
:1006F0000010024030B500210022002400232D4DBF
:100700006D6805F00C0121B1042905D0082923D119
:1007100005E0294D056022E0284D05601FE0254DCC
:100720006D6805F47012234D6D6805F48034022560
:1007300005EB92421CB9224D554305600BE01D4D5F
:100740006D6805F400351DB11B4D5543056002E091
:100750001A4D5543056002E0174D056000BF00BF0C
:10076000144D6D6805F0F0010909164D6B5C0568C4
:10077000DD4045600F4D6D6805F4E061090A114DDB
:100780006B5C4568DD4085600A4D6D6805F460511D
:10079000C90A0C4D6B5C4568DD40C560054D6D6850
:1007A00005F44041890B084D6B5CC568B5FBF3F55A
:1007B000056130BD0010024000127A000024F400F0
:1007C00000093D00250000203500002002460020E1
:1007D00013890B400BB1012000E000207047014657
:1007E000888970478181704710B5044600BF022197
:1007F0000A48FFF7EBFF0028F9D021460748FFF72A
:10080000F1FF00BF01210548FFF7E0FF0028F9D004
:100810000248FFF7E4FFC0B210BD00000030014005
:10082000704710B500F002F810BD00000CB50020B4
:10083000019000903348006840F4803031490860EE
:1008400000BF3048006800F4003000900198401C60
:100850000190009818B90198B0F5A06FF1D129481E
:10086000006800F4003010B10120009001E0002089
:1008700000900098012843D12348006840F0100000
:10088000214908600846006820F003000860084617
:10089000006840F0020008601A4840681949486042
:1008A0000846406848600846406840F480604860F8
:1008B0000846406820F47C1048600846406840F4D0
:1008C000F81048600846006840F08070086000BF7B
:1008D0000C48006800F000700028F9D00948406812
:1008E00020F00300074948600846406840F00200D5
:1008F000486000BF0348406800F00C000828F9D1A8
:100900000CBD0000001002400020024010B513484A
:10091000006840F00100114908600846406810492D
:1009200008400E494860084600680E4908400B49D7
:1009300008600846006820F4802008600846406887
:1009400020F4FE0048604FF41F008860FFF769FF45
:100950004FF000600449086010BD00000010024024
:100960000000FFF8FFFFF6FE08ED00E011480088E8
:1009700000F00100D8B14FF6FE700E4908800E4815
:10098000007800B970470D480068401C0B490860AA
:100990000B480078401C0A4908700A480078401C3F
:1009A0000849087008480078401C0749087000BFD3
:1009B000E8E70000100400400400002010000020C0
:1009C00000000020010000200200002021B1028868
:1009D00042F08002028004E002884FF67F731A40E2
:1009E0000280704721B1028842F00102028004E0D7
:1009F00002884FF6FE731A400280704770B50024DB
:100A000000220023058C4FF6FE7635400584028CCB
:100A10008388048B4FF68F752C40B51E2C400D88B3
:100A20002C43751E2A400D892A434D882A43144DB4
:100A3000A8420BD0134DA84208D0134DA84205D0B0
:100A4000124DA84202D0124DA84213D14FF6F775AD
:100A50002A404D892A434FF6FB752A408D882A4348
:100A60004FF6FF652B404FF6FF552B408D892B43EA
:100A7000CD892B4383800483CD888586028470BD15
:100A8000002C01400034014000400140004401407E
:100A9000004801400A460021018B4FF6F7731940C8
:100AA000114301837047000070B500240022002329
:100AB000058C4FF6EF7635400584028C8388048BD5
:100AC00048F6FF752C404FF6FF452C400D884FF639
:100AD000FF7606EA05252C434FF6DF752A400D897F
:100AE00006EA05152A434D8806EA05152A43154DE1
:100AF000A84202D0144DA8421DD14FF67F752A405E
:100B00004D894FF6FF7606EA05152A434FF6BF7565
:100B10002A408D8806EA05152A434FF6FF352B40FB
:100B20004FF2FF752B408D8906EA85052B43CD8951
:100B300006EA85052B4383800483CD8805870284DC
:100B400070BD0000002C0140003401400A46002125
:100B5000018B4FF2FF7319404FF6FF7303EA022334
:100B6000194301837047000070B500240022002360
:100B7000058C4FF6FF6635400584028C8388848B94
:100B80004FF68F752C404FF6FC752C400D882C438A
:100B90004FF6FF552A400D894FF6FF7606EA0525E8
:100BA0002A434D8806EA05252A43154DA84202D05E
:100BB000144DA8421DD14FF2FF752A404D894FF6C2
:100BC000FF7606EA05252A434FF6FF352A408D8831
:100BD00006EA05252A434EF6FF752B404DF6FF75B4
:100BE0002B408D8906EA05152B43CD8906EA0515AC
:100BF0002B4383808483CD888587028470BD000069
:100C0000002C0140003401400A460021818B4FF640
:100C1000F7731940114381837047000070B50022BB
:100C200000230024058C4EF6FF7635400584038CA6
:100C30008488828B48F6FF752A404FF6FF452A408C
:100C40000D884FF6FF7606EA05252A434DF6FF7517
:100C50002B400D8906EA05352B434D8806EA0535FC
:100C60002B430B4DA84202D00A4DA84208D14BF6A7
:100C7000FF752C408D894FF6FF7606EA85152C43CB
:100C800084808283CD88A0F84050038470BD00002A
:100C9000002C0140003401400A460021818B4FF2B4
:100CA000FF7319404FF6FF7303EA02231943818350
:100CB00070470000002202881D4B98420ED01D4B49
:100CC00098420BD0B0F1804F08D01B4B984205D012
:100CD0001A4B984202D01A4B984204D14FF68F73A8
:100CE0001A404B881A43174B984207D0164B98422C
:100CF00004D04FF6FF431A40CB881A4302808B88FA
:100D000083850B8803850A4B98420BD0094B984288
:100D100008D00E4B984205D00D4B984202D00D4B97
:100D2000984201D10B7A0386012383827047000029
:100D3000002C014000340140000400400008004045
:100D4000000C004000100040001400400040014032
:100D5000004401400048014000B587B00121084629
:100D6000FFF7A8FC40F2E730ADF814000320ADF81F
:100D700010000020ADF81600ADF8120004A94FF0E5
:100D80008040FFF797FF6020ADF800000120ADF82C
:100D900002000020ADF80600ADF8080069464FF0EB
:100DA0008040FFF72BFE0821C806FFF773FE694657
:100DB0004FF08040FFF778FE0821C806FFF7C6FE17
:100DC00069464FF08040FFF7CFFE0821C806FFF7C5
:100DD0001BFF69464FF08040FFF720FF0821C8063F
:100DE000FFF75AFF01218807FFF7F0FD012188076F
:100DF000FFF7F8FD07B000BD08B50821184800F05E
:100E00004CF810B1164800F0E7F81548008800F0DB
:100E10004000C0B1134801780078401C114A10709E
:100E20001148405C0E49091D0880104600780F49A2
:100E30000978884207D10A480C30008820F08000E9
:100E400007490C3108800648008800F0200028B1CE
:100E50000348001D008840B2009000BF08BD00009C
:100E6000003801400C0000203C0000200D00002054
:100E700001F40072B2F5007F00D100BFCA430280C6
:100E8000704721B1828942F40052828104E0828954
:100E90004DF6FF731A408281704702460020B1F57B
:100EA000007F00D100BF13880B400BB1012000E090
:100EB00000207047F0B503460024002600250020DE
:100EC00040F66A17B94200D100BF1846C1F3421478
:100ED00001F01F06012707FA06F5012C01D10C309D
:100EE00004E0022C01D1103000E014301AB1076880
:100EF0002F43076002E00768AF430760F0BD0000C2
:100F00002DE9F04786B005460E460024A24600BFF4
:100F1000A1460027B08900B100BF2F462C8A4CF6AD
:100F2000FF700440F08804432C82AC894EF6F31025
:100F30000440B08831890843718908430443AC8177
:100F4000AC8A4FF6FF400440B0890443AC8201A84C
:100F5000FFF7D0FB1F48874202D1DDF810A001E067
:100F6000DDF80CA0A88900F4004040B10AEBCA00EB
:100F700000EB0A1031684900B0FBF1F807E00AEB1A
:100F8000CA0000EB0A1031688900B0FBF1F8642058
:100F9000B8FBF0F004012009642101FB1089A88945
:100FA00000F4004040B1322000EBC900B0FBF1F08A
:100FB00000F00700044308E0322000EB0910642130
:100FC000B0FBF1F000F00F0004432C8106B0BDE847
:100FD000F08700000038014001468888C0F308000F
:100FE0007047000010B586B0044601210520FFF7C8
:100FF00071FB01218803FFF76DFB4FF40070ADF822
:10100000140018208DF8170003208DF8160005A98C
:101010001848FFF73DF94FF48060ADF81400042044
:101020008DF8170003208DF8160005A91148FFF769
:101030002FF901940020ADF80800ADF80A00ADF8D2
:101040000C00ADF810000C20ADF80E0001A90A4804
:10105000FFF756FF012240F225510748FFF72AFF0C
:1010600001210548FFF70DFF40210348FFF700FF6E
:1010700006B010BD000801400038014000BFFEE787
:101080004FF4E130FFF7AEFFFFF7B6FAFFF790F944
:101090004FF47A731A4619461846FFF7B1F900BFA4
:1010A000FEE70000C4100008000000203C00000023
:1010B00028010008001100083C000020D4070000AF
:1010C00044010008000000000000000000000000D3
:1010D00000000000000000000000001A3B5C7D9E44
:1010E0001A3B5C7D9E00000000000000000102032E
:1010F00004010203040607080902040608000000B0
:04000005080000ED02
:00000001FF
