:020000040800F2
:1000000048090020A1010008D5260008E9210008C0
:10001000D1260008211600087D36000800000000E7
:100020000000000000000000000000009D2E0008FD
:100030000518000800000000ED2A0008B9010008BA
:10004000BB010008BB010008BB010008BB010008A0
:10005000BB010008BB010008211E0008BB0100080D
:10006000BB010008BB010008BB010008BB01000880
:10007000BB010008BB010008BB010008BB01000870
:10008000BB010008BB010008BB010008BB01000860
:10009000BB010008BB010008BB010008BB01000850
:1000A000BB010008BB010008BB010008BB01000840
:1000B000BB01000875300008BB010008BB01000847
:1000C000BB010008BB010008BB010008BB01000820
:1000D000BB010008F9330008BB010008BB010008A0
:1000E000BB010008BB010008BB01000800F002F8DA
:1000F00000F047F80AA090E8000C82448344AAF17B
:100100000107DA4501D100F03CF8AFF2090EBAE878
:100110000F0013F0010F18BFFB1A43F0010318473B
:100120005843000078430000103A24BF78C878C1D3
:10013000FAD8520724BF30C830C144BF04680C60ED
:10014000704700000023002400250026103A28BF35
:1001500078C1FBD8520728BF30C148BF0B60704739
:10016000662904F03481002070471FB500F016FBAB
:1001700004000020002103F0B7FBE0601FBD10B5B4
:1001800010BD00F007FC1146FFF7EFFF03F0A1FBE5
:1001900000F025FC03B4FFF7F2FF03BC00F066FC9F
:1001A0000948804709480047FEE7FEE7FEE7FEE70B
:1001B000FEE7FEE7FEE7FEE7FEE7FEE70448054947
:1001C000054A064B7047000015300008ED00000896
:1001D0004803002048090020480500204805002069
:1001E0000FB41CB5074B06AA7B44694600900598DE
:1001F00000F0BBFA0020694600F0CAFA1CBC5DF8AA
:1002000014FB0000A50500002DE9F05F89460446B7
:100210004FF0000ADFF824B1FB44C0F820A02046CC
:10022000E168884700287DD0252806D0D4E901213F
:100230009047206A401C2062F1E700255F46204677
:10024000E16888472028064607DB312E05D2B81919
:1002500010F8200C08B10543F1E7A80701D525F0F7
:100260000405C4F81CA00027C4F818A02A2E09D041
:10027000304603F018FB38B304EB8708303EC8F86B
:10028000186019E059F8041B204604EB87029161BD
:10029000E1688847012F064618D1E069002820DA76
:1002A00025F020051DE0D8F8180000EB800006EBD3
:1002B00040003038C8F818002046E16888470646F4
:1002C00003F0F1FA0028EED1012F0AD02E2E08D12A
:1002D0002046E16888477F1C0646022F45F020052E
:1002E000C4DBA069002803DA404245F00105A061A3
:1002F000E80701D025F01005A6B1A6F141001928A4
:1003000002D8203645F400654A463146204625602D
:100310004D46FFF725FF60B1012807D0ED1D25F000
:10032000070000E007E000F1080978E705F104099B
:1003300075E730467AE7206ABDE8F09FB6410000D5
:1003400070477047704770472DE9FF4F0C461E46B7
:100350004FF0FF378BB0D2E90001DDF860800A90E2
:100360008A46C1F30A5505B93D46002108464FF0BB
:100370000000BAF1000F00F4400005DA00EB800045
:100380004FF4400101EA50004FEA9059B9F1010FD2
:1003900000DDB9460A9850EA4A000ED044F61050E3
:1003A000A5F2FF3545432F14B8F1000F1ED075425A
:1003B000291E1EDDC9F100021CE0B8F1010F4FF04B
:1003C000000001D0302103E0F24305E02154401C3D
:1003D000B042FBDB30460022002121540B99C1F8CA
:1003E0000880C1E900200FB0BDE8F08FBD1B6D1C77
:1003F000DEE74A4600DA694206A800F059FA06AB81
:1004000093E8070003AB83E8070050460A9900F021
:1004100034FB8DE80700A0F500501F3800900398CA
:10042000002D09DD42F21F014A46084403A903904A
:10043000684600F093FD08E0A0F500504A461F38DA
:1004400003A90390684600F09DFD8DE807000004B5
:10045000000C03D04FF0FF30410800E01046B8F127
:10046000000F03D00022009215461EE0751E05D431
:1004700000F098F9303262556D1EF9D5B34601226D
:10048000084302D000227F1C04E02078302801D1EC
:1004900000227F1E002A099786D01DE0112D07DA61
:1004A00000F080F9303262556D1C50EA0102F5D13E
:1004B000084302D00098C8B10EE00021681E05E094
:1004C000235C625C63542254401E491C8142F7DB6A
:1004D000AB46A81B401E0990002004F80B000B98A7
:1004E000099AC0F80880C0E9002B7CE711264FF07C
:1004F000000859E72DE9F04F88460446D21D22F046
:10050000070191B0D1E90001CDE90A0103F0B8F883
:1005100002460B98C00F01D02D2007E0206881070C
:1005200001D52B2002E0202101EAC000032A099016
:1005300001D0072A05DB03464146204600F078F942
:100540000BE12078800601D5E06900E00620B8F1D3
:10055000650F814606D0B8F1660F18D0B8F1670F65
:1005600070D131E00020B9F1110F009001DB1123AF
:1005700001E009F101030AAA01A90CA8FFF7E4FEB2
:10058000DDE90C70002609F10105834647E00120F2
:100590004B4600904FF000470AAA01A90CA8FFF7AC
:1005A000D3FEDDE90DB00C995D46002610B909F1C6
:1005B00001000D18B9EB050003D4C0F1FF3609F1B5
:1005C0000105A5EB09002BE0B9F1010F01DA4FF0AD
:1005D00001090020B9F1110F0090484601DD1123F7
:1005E00000E003460AAA01A90CA8FFF7ADFEDDE969
:1005F0000C704D4600268346207800070AD4AB4590
:1006000000DA5D4601A8012D04DD411911F8011C35
:10061000302907D04F4502DA17F1040F04DA012020
:1006200082460FE06D1EEEE7002F02DCED1B3E441C
:1006300003E0781CA84200DD7D1CB81B00F1010A14
:100640004FF000472078000703D4AA4501DB4FF0A4
:10065000FF3A0021B7F1004F0DF143088DF8431028
:1006600024D002202B23002F01DA7F422D230A21E0
:10067000021EA0F1010000DC5FB197FBF1FC97FBCB
:10068000F1F201FB1C7C17460CF1300C08F801CD8F
:10069000EEE7A8F1010003702188090501D5452185
:1006A00000E06521A0F1010800F8011C09980FA9DC
:1006B000A1EB0807FF1D00B10120411901EBEA7011
:1006C000A1693844081A401EA0612078C00602D4EF
:1006D0002046AFF30080099828B1D4E90121904762
:1006E000206A401C20622078C00622D52046AFF345
:1006F00000801EE0002E04DBB34502DD01A8805D12
:1007000000E03020D4E901219047206A401C20629B
:10071000761CAAF101005FEA000A0AD100F03EF857
:10072000C0680168405CD4E901219047206A401C00
:100730002062281EA5F10105DCDC07E0D4E90121D7
:1007400018F8010B9047206A401C2062381EA7F160
:100750000107F3DC2046AFF30080032011B043E62D
:1007600001694A1C02610878704700B58FB0CDE975
:1007700001310021059105497944CDE90310114665
:100780006846FFF741FD0FB000BD0000E5FFFFFF29
:100790000A6802F8010B0A607047000000487047C1
:1007A0000803002030B5B0F10A024FEA900E71F153
:1007B00000034EEA817EB0EB0E0061EB91014FEA3F
:1007C000101E4EEA017E10EB0E0041EB11114FEAB4
:1007D000102E4EEA016E10EB0E0041EB11214FEA94
:1007E000104E4EEA014E10EB0E0041EB1141401845
:1007F00041F100014FEAD00040EA41704FEAD101D7
:1008000010EB80054FEA810444EA907444EB010444
:100810006D1944EB0404521BA3414FF0000348BF81
:100820000A3200D530BD401C41F1000130BD00004E
:100830002DE9F0411F46044603260168072A01F40A
:10084000006004DB08B116A505E016A503E008B1B9
:1008500015A500E015A521F010002060A069C01EBC
:10086000A0610FB1401EA0612046AFF300804FB1E0
:10087000D4E9012138469047206A401C2062C01C00
:10088000206206E0206AFAE7D4E9012115F8010B9D
:100890009047761EF8D22046AFF30080BDE8F08185
:1008A0004E414E006E616E00494E4600696E660014
:1008B0002DE9F047814616468AB0334878440DC882
:1008C0008DE80D0030487844801C03AC0DC884E8E6
:1008D0000D0041F69B300844372190FBF1F290FB6C
:1008E000F1F5A5F1800501FB12041B3C02D5644221
:1008F000012000E00020DFF890A080460027FA44A5
:10090000AAF1BE0A0DE0E00709D03246684607EBBF
:1009100047010AEB810100F035FB8DE80700641008
:100920007F1C002CEFD1184F7F44AC3F18E0E80744
:1009300014D007EB04100DF1180A90E80E008AE8B5
:100940000E00C068F04201D198190890324606A9FD
:1009500003A800F017FB03AB83E807006D10641CCD
:10096000002DE4D132466946B8F1000F03A802D049
:1009700000F0F4FA01E000F005FBC9E90001C9F854
:1009800008200AB0BDE8F087A03B0000004870478F
:10099000E80200207546FFF7F9FFAE4605006946FC
:1009A000534620F00700854618B020B5FFF706FC37
:1009B000BDE820404FF000064FF000074FF0000860
:1009C0004FF0000B21F00701AC46ACE8C009ACE8E1
:1009D000C009ACE8C009ACE8C0098D4670470446C0
:1009E000AFF300802046FFF7D5FB00004FF0013C3D
:1009F00050F8042B51F8043B9A4221D1A2EB0C038E
:100A0000934313EACC1317D150F8042B51F8043B4D
:100A10009A4215D1A2EB0C03934313EACC130BD1EA
:100A200050F8042B51F8043B9A4209D1A2EB0C0375
:100A3000934313EACC13DBD04FF00000704700BFA4
:100A4000D01A01BAB1FA81F101F0180122FA01F0CD
:100A5000CB40C1F12001DBB2C0B2C01A2CFA01F3C5
:100A6000D11A914311EAC311E6D170470149182008
:100A7000ABBEFEE72600020070475FEA400C08BFED
:100A800091F0000F4FEA8C234FEAC12243EA515103
:100A90004FEA1C5018BF00F5F0404FEA300018BF75
:100AA00041F000415FEA6C5C00F02980BCF1FF3F3F
:100AB00008BF40F080407047130C06BF12044FF08F
:100AC000100C4FF0000C130E04BF12020CF1080CB6
:100AD000130F04BF12010CF1040C930F04BF92001A
:100AE0000CF1020CD30F04BF52000CF1010C1146A3
:100AF0004FF00002A0F11F00A0EB0C00704711F0B6
:100B0000004F08BF704731F000413FF4D5AF0B0CE8
:100B100006BF09044FF0100C4FF0000C0B0E04BF81
:100B200009020CF1080C0B0F04BF09010CF1040CB5
:100B30008B0F04BF89000CF1020CCB0F04BF4900DE
:100B40000CF1010CCCF12003A0EB0C0022FA03F312
:100B500002FA0CF241EA030100F10100704720F0B3
:100B60007F4C80EA030023F07F47ACEB070303F5DB
:100B70007C5300F0004003F1FF032DE980494FEA68
:100B8000154B09B44FEA144325EA0B4E24EA0348F7
:100B90000FF2042606EB132749083E785FEA32027B
:100BA00003FB0667C7F5000707FB06F64FEA543755
:100BB0004FEAD64606F1020607FB066CCCF1005C54
:100BC0004FEA1C472CEA074C07FB06F40CFB06F522
:100BD00004EB15464FEA961634BF00204FF0004054
:100BE0004FEAD13706FB07FC4FEA1C4C0CFB0BF716
:100BF000D21B03FB0CF761EB07010CFB0EF7B0EB0C
:100C0000074072EB17420CFB08F734BFA2EB074218
:100C1000B2EB074261EB17414FEA0C444FEA9107F0
:100C200006FB07FC4FEA1C4C0CFB0BF7B0EBC74074
:100C300072EB573203FB0CF734BFA2EBC742B2EBA7
:100C4000C74261EB57310CFB0EF7B0EBC70072EBFC
:100C500057720CFB08F734BFA2EBC702B2EBC70216
:100C600061EB5771039F4FEA816141EA921104EBF6
:100C7000CC044FEAD1374FEA826206FB07FC42EA16
:100C800090124FEA80604FEA1C4C0CFB0BF7D21B12
:100C900003FB0CF761EB07010CFB0EF7B0EB074011
:100CA00072EB17420CFB08F734BFA2EB0742B2EB22
:100CB000074261EB17414FEA8C554FEA910704EB6D
:100CC0009C2406FB07FC4FEA1C4C0CFB0BF7B0EB1B
:100CD000C74072EB573203FB0CF734BFA2EBC7429D
:100CE000B2EBC74261EB57310CFB0EF7B0EBC7001C
:100CF00072EB57720CFB08F734BFA2EBC702B2EBE2
:100D0000C70261EB577115EB4C254FEA816141EA4F
:100D100092114FEA82624FEAD13742EA901206FB03
:100D200007FC44F100044FEA80604FEA1C4C0CFBC6
:100D30000BF7D21B03FB0CF761EB07010CFB0EF763
:100D4000B0EB074072EB17420CFB08F734BFA2EB85
:100D50000742B2EB074261EB174115EB1C154FEA56
:100D6000813141EA92414FEA823242EA90424FEAAF
:100D700080304FEA0C7644F1000448EA03434EEA1F
:100D80000B484FF0000EB2EB080C71EB030724BFC9
:100D9000624639464EEB0E0E4FF0000B00185241E2
:100DA00049414BEB0B0BB2EB080C71EB03077BF1EA
:100DB000000B24BF624639464EEB0E0E4FF0000B7F
:100DC0000018524149414BEB0B0BB2EB080C71EB95
:100DD00003077BF1000B24BF624639464EEB0E0E33
:100DE00051EA020718BF46F0010616EB0E7655F1E0
:100DF000000254F1000103D5BDE88901BDE8008877
:100E0000BDE88901BDE80048B619524141EB010136
:100E1000A3F10103704780807F7E7D7C7B7A7978A7
:100E2000777676757473727171706F6E6E6D6C6CAF
:100E30006B6A6A6968686766666564646363626151
:100E40006160605F5F5E5E5D5D5C5C5B5B5A5A59D2
:100E5000595858575756565555555454535352523E
:100E60005251515050504F4F4F4E4E4D4D4D4C4C96
:100E70004C4B4B4B4A4A4A494949484848474747DF
:100E8000474646464545454444444443434343421C
:100E9000424242414141002B26D4770021D01CB56B
:100EA0004FEA370703B44FF010004FF010014FF036
:100EB00000000FBCBDE810400BF1010BBBF1010FAE
:100EC00008BF5FEA170722BF12F1010211F1010109
:100ED0004FF0004143F1000300F0004043EA0000FE
:100EE0007047F9D35708DAE746EA064613F1400F90
:100EF0004FEA16461FDD13F1200FDFBF16430A46E7
:100F0000002120335B42C8D0C3F1200746EA0646E1
:100F100002FA07F74FEA164646EA0706C3F120072A
:100F200022FA03F201FA07F721FA03F14FF0000366
:100F300042EA0702B1E746EA020646EA06464FEAF7
:100F4000164646EA0106BCBF46EA0646360C4FF096
:100F500000034FF000024FF000019EE72DE9C0486A
:100F6000934630B491E8380007C831EA400C48BFD6
:100F700034EA430C03D5FFF7F2FDFFF78CFFF0BC1A
:100F8000BDE800882DE9C048934630B491E83800A8
:100F900007C810F0804F08BF13F0804F03D100F056
:100FA00005F8FFF778FFF0BCBDE8008820F07F4728
:100FB00080EA030023F07F4C07EB0C03A3F57C537E
:100FC00000F00040A3F1FE0392F0000F00F0B380A8
:100FD00095F0000F00F077802DE901494FEA1140AC
:100FE0004FEA144621EA004800FB06FC24EA0647C3
:100FF00008FB06F607FB08F800FB07F718EB0648A6
:101000004CEB164C4FEA124B18EB07484FEA1546CB
:101010004CEB174022EA0B4E0BFB06FC25EA064779
:101020000EFB06F607FB0EFE0BFB07F71EEB064E4C
:101030004CEB164C4FF000061EEB074E4CEB174BDB
:1010400018EB0B0840F1000018EB0E0B58EB0008F2
:1010500040F100008F1A4FF000013CBFC943661BEE
:1010600014BFB5EB040C00213CBFC943F61B4FEA8B
:1010700017444EEA8E0E27EA04454FEA1C4704FB4C
:1010800007622CEA074C05FB07F70CFB05F604FB8F
:101090000CFC16EB074642EB174216EB0C4642EBF4
:1010A0001C421BEB060658EB0202414146EA9E0633
:1010B00001D5BDE80189B619524141EB0101A3F107
:1010C0000103BDE801894FEA14454FEA114724EABC
:1010D000054621EA074C05FB07F406FB07F70CFB66
:1010E00006F105FB0CFC11EB074144EB17444FEAFA
:1010F000124711EB0C4144EB1C4422EA074C05FB60
:1011000007F206FB07F70CFB06F605FB0CFC16EBDB
:10111000074642EB174216EB0C4642EB1C456A1899
:1011200054F1000148BF7047B619524141EB01012B
:10113000A3F10103704795F0000F37D04FEA114239
:101140004FEA144721EA024624EA074C02FB07F162
:1011500006FB07F70CFB06F402FB0CFC14EB074440
:1011600041EB17414FEA154714EB0C4441EB1C418E
:1011700025EA074C02FB07F506FB07F70CFB06F612
:1011800002FB0CFC16EB074645EB174516EB0C462D
:1011900045EB1C42121951F1000148BF7047B619C6
:1011A000524141EB0101A3F1010370474FEA14459D
:1011B0004FEA114724EA054621EA074C05FB07F1EF
:1011C00006FB07F70CFB06F24FF0000605FB0CFCD4
:1011D00012EB074241EB174112EB0C4251EB1C4161
:1011E00048BF7047921841EB0101A3F1010370471A
:1011F00008B50121084601F0B1FC01214FF402704D
:1012000001F0DCFC4FF4004001F09CFC0220ADF842
:10121000000000208DF803006946024800F010FF2E
:1012200008BD0000000C014010B5FFF7E1FF00F021
:1012300001F810BD00B591B0384800F01FFA3848E9
:10124000069038480790002008900220099000205E
:101250000A9080200B9040000C9080000D90202080
:101260000E9000020F900020109006A92B4800F06D
:10127000ABFA0121294800F0F5F929484C3800F073
:1012800069F8012000F042F90020019001208DF85A
:1012900008008DF809004FF46020039000200490AE
:1012A00002208DF8140001A91D484C3800F094F874
:1012B0000723012209211A484C3800F0B5F807230A
:1012C0000222112116484C3800F0AEF801211448D2
:1012D0004C3800F034F8012111484C3800F024F863
:1012E0000F484C3800F0FCF800BF0D484C3800F0B7
:1012F00069F80028F9D10A484C3800F001F900BF1C
:1013000007484C3800F054F80028F9D1012104486E
:101310004C3800F0EAF811B000BD000008000240AF
:101320004C2401409000002021B1826842F001026B
:10133000826003E0826822F001028260704721B17E
:10134000826842F48072826003E0826822F48072D4
:101350008260704710B504461248844208D10121CA
:10136000401501F03BFC0021601501F037FC17E04F
:101370000D48844208D10121001501F02FFC002105
:10138000201501F02BFC0BE00848844208D1012114
:10139000C80301F023FC00214FF4004001F01EFCC3
:1013A00010BD00000024014000280140003C014025
:1013B000014600208A6802F004020AB1012000E020
:1013C00000207047014600208A6802F008020AB136
:1013D000012000E00020704730B5024600200023C5
:1013E00050680F4C20400D790C6844EA05242043D6
:1013F000506090680B4C2040D1E902542C434D7949
:1014000044EA450420439060D06A20F470000C7CCC
:10141000641EE4B2234340EA0350D06230BD0000B2
:10142000FFFEF0FFFDF7F1FFF0B504460D4600208A
:101430000021092D11DDE068A5F10A0606EB46073B
:10144000072606FA07F18843A5F10A0606EB4606C9
:1014500003FA06F10843E0600CE0206905EB45075C
:10146000072606FA07F1884305EB450603FA06F15D
:1014700008432061072A0FDA606B561E06EB8607C9
:101480001F2606FA07F18843561E06EB860605FA64
:1014900006F10843606322E00D2A0FDA206BD61FA5
:1014A00006EB86071F2606FA07F18843D61F06EBD0
:1014B000860605FA06F10843206310E0E06AA2F10F
:1014C0000D0606EB86071F2606FA07F18843A2F1F0
:1014D0000D0606EB860605FA06F10843E062F0BD4C
:1014E000816841F008018160704721B1826842F44F
:1014F000A002826003E0826822F4A002826070474A
:10150000816841F0040181607047000030B10749F3
:10151000096841F40001054A116005E003490968C2
:1015200021F40001014A11607047000008240140C5
:1015300010B501F09BF84FF4E13002F053F84FF48E
:101540007A7001F027FF01F061FA10A001F0EEFAC5
:10155000FFF76AFE01F0BEFB0221282001F030F9FE
:1015600001F0BAF800F042FE00BF00F0DDFF0128F4
:10157000FBD181070C4800F055F800F021FD00F088
:1015800043F901200949087010BD00000D0A2052DE
:101590006167696E67466972655F466C792056328D
:1015A0002E322E32200D0A006F12833A28000020BE
:1015B0002DE9F0471249488802F036FB06464FF005
:1015C0006632104B02F044FB044600220E4B02F040
:1015D000D3F9804602F09EF90C490860084600687D
:1015E00002F034FC044622460B4609A10B48FEF7E4
:1015F000F7FD2021094801F07FF9BDE8F0870000E0
:101600009000002066660A400000B0400000002004
:1016100056616C3A25302E3266205600BC00002000
:1016200000BFFEE72DE9F04104460D4629460B4870
:1016300002F08CFD804641464FF07E5002F094FC53
:101640000746214602F02EFC06463146204602F0AF
:101650008BFC03490860BDE8F0810000DB0FC94046
:101660000800002021B1026842F00102026004E09B
:1016700002684FF6FE731A400260704701684FF629
:10168000FE72114001600021016041608160C16013
:101690004B49884208D14A490839496841F00F014D
:1016A000474A083A51608AE045491431884208D1D6
:1016B00043490839496841F0F001414A083A51600C
:1016C0007DE03F492831884208D13D4908394968C1
:1016D00041F470613A4A083A516070E038493C314F
:1016E000884208D136490839496841F47041344A82
:1016F000083A516063E032495031884208D130499C
:101700000839496841F470212D4A083A516056E081
:101710002B496431884208D129490839496841F484
:101720007001274A083A516049E0254978318842DA
:1017300008D123490839496841F07061204A083AC4
:1017400051603CE01F49884206D1011F096841F001
:101750000F01021F116032E01A491431884208D18A
:101760001849091F096841F0F001164A121F11605B
:1017700025E014492831884208D11249091F096817
:1017800041F470610F4A121F116018E00D493C319D
:10179000884208D10B49091F096841F47041094A80
:1017A000121F11600BE007495031884207D10549EB
:1017B000091F096841F47021024A121F1160704725
:1017C000080002400804024010B50022026847F6F3
:1017D000F0739A430C6A8B6823430C6923434C696A
:1017E00023438C692343CC6923434C6A23438C6A8B
:1017F00023431A430260CB6843600B6883604B68E5
:10180000C36010BD7047000010B500F001FA00F091
:101810001FF800F045F800F06BF80B49C88B0B4936
:1018200000F078FA094800880F280CD0012002F057
:1018300037F80549C88B0F2100F0E0FA002002F0CC
:101840002FF801F015F910BD6E000020680000208F
:1018500010B50E4908880E4900F05CFA0B4948881B
:101860000C4900F057FA094988880B4900F052FAF0
:101870000748008800B2094908800648008800B27D
:1018800048800548008800B2888010BD6E000020A6
:10189000680000206A0000206C0000205C0000202E
:1018A00010B50E49C8880E4900F034FA0B49088972
:1018B0000C4900F02FFA094948890B4900F02AFA2F
:1018C0000748008800B2094908800648008800B22D
:1018D00048800548008800B2888010BD6E00002056
:1018E000680000206A0000206C00002062000020D8
:1018F00010B548498889484900F00CFA4549C8891B
:10190000464900F007FA4349088A454900F002FABF
:101910004148008802F006FC0446424902F024FBDC
:10192000414908603D48008802F0FCFB04463F49FD
:1019300002F01AFB3C4948603948008802F0F2FB8B
:101940003949886008460068394908603648406867
:1019500048603548806888602E49488A2E4900F0E2
:10196000D9F92C49888A2D4900F0D4F92949C88A27
:101970002B4900F0CFF92848008802F0D3FB044639
:10198000284902F0F1FA2B4908602448008802F047
:10199000C9FB0446254902F0E7FA26494860204879
:1019A000008802F0BFFB234988600846006822498E
:1019B00008602048406848601E4880688860154973
:1019C000088B154900F0A6F91249488B134900F01D
:1019D000A1F91049888B124900F09CF90E48008843
:1019E00002F0A0FB04460F4902F0BEFA134908605A
:1019F0000A48008802F096FB04460C4902F0B4FA4B
:101A00000E4948600648008802F08CFB0B4988604C
:101A100010BD00006E000020680000206A00002059
:101A20006C000020000020415802002000007A4491
:101A300044020020800200206C020020940200205A
:101A400010B5012001F02CFF43490868434902F01A
:101A50007DFB044602F04AFB414908803E49486844
:101A6000404902F073FB044602F040FB3E49088007
:101A70003949886802F03AFB3C4908803C4988892A
:101A80003749098800F0BAF93949C88936490988BF
:101A900000F0B4F93649088A3449098800F0AEF9F3
:101AA000344908682D4902F051FB044602F01EFB40
:101AB0002B4908802F4948682A4902F047FB044611
:101AC00002F014FB284908802A49886802F00EFBBE
:101AD000264908802649488A2149098800F08EF95C
:101AE0002349888A2049098800F088F92049C88A52
:101AF0001E49098800F082F91F490868174902F059
:101B000025FB044602F0F2FA154908801A49486894
:101B1000144902F01BFB044602F0E8FA124908805F
:101B20001549886802F0E2FA104908801049088BCC
:101B30000B49098800F062F90D49488B0A49098868
:101B400000F05CF90A49888B0849098800F056F9C9
:101B5000002001F0A5FE10BD580200200000204129
:101B60006800002000007A446A0000206C00002019
:101B70006E0000208002002094020020034606210F
:101B800006221248018812480288ABB1012B1BD1F2
:101B90003AB94EF6EE60814201D100207047012033
:101BA000FCE739B94EF6EE60824201D10120F5E73B
:101BB0000020F3E7AB20F1E709B90020EEE70AB90E
:101BC0000120EBE7AB20E9E70020E7E70000010890
:101BD0000004010810B504240B4800F091F90446F4
:101BE000042C01D0204610BD0021074800F0C8F9A0
:101BF0000446042C01D02046F5E7044800F080F9A3
:101C000004462046EFE70000000001080004010838
:101C100010B501F049FD044600F054FC204610BD0B
:101C20002DE9F84F074689460425DFF8D8A0364845
:101C300000904FF00008002400264FF0000B002019
:101C4000FFF79CFF8046B8F1010F05D1DFF8B8A07F
:101C50002C48401C00900CE0B8F1000F06D1DFF8D2
:101C6000A4A00AF1010A2848009002E0AB20BDE8D8
:101C7000F88F4EF6EE61504600F082F90546042DCD
:101C800001D02846F3E700F01DFC4946384600F035
:101C900071F80646042E01D03046E8E700241CE027
:101CA0001A4830F81400B84215D0184931F8140019
:101CB000174900F02FF88346BBF1010F0BD01349F1
:101CC00031F814001249098800F054F80646042E31
:101CD00001D03046CBE7601C84B2102CE0DB0098CA
:101CE00000F00EF90546042D01D02846BFE700217B
:101CF000504600F045F90546042D01D02846B6E7C8
:101D00002846B4E7FF030108000001086E00002028
:101D10003C0000202DE9F04706460F46002545F21D
:101D200055584FF00109114CA2460020FFF726FF3D
:101D30000546AB2D01D1BDE8F0870C4800EB852AA4
:101D40000B480068841E0AE0B4F80080B04505D155
:101D500034F8020C38804FF0000904E0241F0AF127
:101D600002008442F0D800BF4846E4E700000108C2
:101D7000400000202DE9F04104460F4604250026CE
:101D8000DFF86C800120FFF7F9FE0646AB2E01D18B
:101D9000BDE8F081701C174901EB802821E016484E
:101DA00000680068401CB8B939461348006800F064
:101DB000E7F80546042D01D02846E9E721460E48FC
:101DC0000068801C00F0DCF805460B480068001D28
:101DD000094908602846DBE707480068001D0649F6
:101DE0000860054800684045D9D38020D0E700004E
:101DF000FF070108FEFF00084000002070B50546FF
:101E00000E46002431462846FFF7B4FF0446802CD6
:101E100004D131462846FFF703FF0446204670BD33
:101E200010B5012000F00EF820B1012000F004F8F8
:101E300000F094FC10BD00000149086070470000EC
:101E400014040140014600200022074B1B6803EAEE
:101E50000102054B14331B680B4013B10AB101207A
:101E600000E00020704700000004014000212349E9
:101E70008279002A3AD00A46126803689A430B46D0
:101E80001A600A1D126803689A430B1D1A600279D2
:101E900011440A6803681A430A60184A0832126833
:101EA00003689A43154B08331A601A1D12680368B9
:101EB0009A43124B0C331A604279102A0ED11A1F22
:101EC000126803681A430D4B08331A601A1D126812
:101ED00003681A43094B0C331A600DE00749427935
:101EE00011440A6803681A430A6005E00279114444
:101EF0000A6803689A430A607047000000040140C2
:101F000030B5044604254FF4302000F065F805464E
:101F1000042D17D10C48006940F002000A490861FD
:101F200008464461006940F0400008614FF43020E9
:101F300000F052F805460448006941F6FD7108407A
:101F400001490861284630BD0020024004200B49A9
:101F5000C96801F0010109B101200EE00749C96813
:101F600001F0040109B1022007E00449C96801F049
:101F7000100109B1032000E0042070470020024056
:101F800070B504460D460426F00200F025F806461A
:101F9000042E11D10948006940F001000749086189
:101FA0002580F00200F018F806460448006941F662
:101FB000FE71084001490861304670BD00200240B2
:101FC0000248034948600348486070472301674559
:101FD00000200240AB89EFCD00B502460423FFF795
:101FE000B5FF034603E0FFF7B1FF0346521E012B86
:101FF00001D1002AF7D102B90523184600BD00001F
:1020000030B500228B071C0F0F2303FA04F20B4B91
:102010008C1053F824309343084C8D1044F825302D
:1020200023468C1053F824308C07240F00FA04F454
:102030002343024C8D1044F8253030BD0800014088
:102040002DE9F0410246002500260020002300244F
:10205000002791F803C00CF00F0591F803C00CF0B5
:10206000100CBCF1000F03D091F802C04CEA05053A
:1020700091F800C0BCF1000F31D0146800202BE0B3
:102080004FF0010C0CFA00F3B1F800C00CEA0306A3
:102090009E4220D183004FF00F0C0CFA03F7BC4393
:1020A00005FA03FC4CEA040491F803C0BCF1280FC4
:1020B00006D14FF0010C0CFA00FCC2F814C00AE083
:1020C00091F803C0BCF1480F05D14FF0010C0CFA98
:1020D00000FCC2F810C0401C0828D1D31460B1F82D
:1020E00000C0BCF1FF0F34DD546800202EE000F189
:1020F000080C4FF0010808FA0CF3B1F800C00CEA24
:1021000003069E4221D183004FF00F0C0CFA03F717
:10211000BC4305FA03FC4CEA040491F803C0BCF18B
:10212000280F05D100F1080C08FA0CF8C2F8148049
:1021300091F803C0BCF1480F07D100F1080C4FF033
:10214000010808FA0CF8C2F81080401C0828CED309
:102150005460BDE8F0810000F0B50A460023002479
:102160000021002500F00046B6F1004F02D11D4EBF
:10217000F16901E01B4E7168C0F3034583B200F4BE
:102180004016B6F5401F08D121F07061154E7668F3
:1021900026F07066134F7E6012E000F48016B6F5EC
:1021A000801F06D1032606FA05F4A14341F07061B1
:1021B00006E0460D360103FA06F6B14341F07061C0
:1021C00022B1460D360103FA06F6314300F000460F
:1021D000B6F1004F02D1034EF16101E0014E716092
:1021E000F0BD00000000014000BFFEE708B501217E
:1021F000082000F0E3FC4FF44870ADF80000032025
:102200008DF8020010208DF8030069461148FFF791
:1022100017FF4FF48060ADF8000003208DF8020036
:1022200014208DF8030069460A48FFF709FF4FF4B0
:102230000060ADF8000003208DF8020014208DF836
:10224000030069460348FFF7FBFE03A000F06EFCA5
:1022500008BD0000000C01400D0A20C4A3C4E249DF
:1022600032432020B3F5CABCBBAFCDEAB3C9A3A1AA
:102270000000000010B54FF480600E490860042093
:1022800000F01AF94FF400600A49091F08600420A1
:1022900000F012F94FF480600649091F086004201D
:1022A00000F00AF94FF4806002490860042000F051
:1022B00003F910BD140C014070B508250024280254
:1022C00017490860042000F0F7F819E04FF4806027
:1022D0001349091D0860042000F0EEF800BF4FF418
:1022E00080600F490860042000F0E6F86006040EE4
:1022F0000B480838006800F4006008B144F001049D
:102300002800A5F10101CDB2E0D14FF4806004496D
:10231000091D0860042000F0CFF8204670BD0000C1
:10232000100C014010B54FF480601C490860042077
:1023300000F0C2F84FF400601849091F086004203B
:1023400000F0BAF84FF480601449091F08600420B7
:1023500000F0B2F811480C38006808B9012000E01C
:10236000002000F4006008B1002010BD4FF40060B0
:102370000A490860042000F09FF808480C380068FB
:1023800000F4006008B10020EFE74FF4006003495B
:102390000860042000F090F80120E6E7140C0140EA
:1023A00010B54FF480600E490860042000F084F8F6
:1023B0004FF400600A490860042000F07DF84FF4F3
:1023C00080600749091F0860042000F075F84FF489
:1023D00000600349091F0860042000F06DF810BD7B
:1023E000140C014010B54FF48060164908600420B9
:1023F00000F062F84FF400601249091F08600420E1
:1024000000F05AF84FF480600E49091F086004205C
:1024100000F052F80B480C38006800F4006040B13E
:102420004FF4806007490860042000F045F8002060
:1024300010BD4FF4806003490860042000F03CF8B0
:102440000120F5E7140C014070B50446082523E08F
:102450004FF4806017490860042000F02DF804F064
:10246000800040B14FF400601249091F0860042049
:1024700000F022F806E04FF400600E4908600420E6
:1024800000F01AF86006040E4FF480600949091F35
:102490000860042000F010F82800A5F10101CDB279
:1024A000D6D14FF4806003490860042000F004F89E
:1024B00070BD0000140C014000E0401E0028FCD15B
:1024C0007047000070B5042600240120FFF756FB7A
:1024D0000446AB2C06D1124800EB84201149086059
:1024E000AB2070BD0E4800EB84200E490860601CD4
:1024F0000B49891E01EB80250CE00A480068006842
:10250000401C10B904263046EBE706480068001D61
:102510000449086003480068A842EED38020E0E741
:10252000000001084000002010B5752000F02CFDCF
:10253000682802D0982860D12EE032A000F0F6FA88
:1025400000216B2000F046FD44F62060FFF7B4FF49
:102550000021192000F03EFD44F62060FFF7ACFF9B
:1025600003211A2000F036FD44F62060FFF7A4FF97
:1025700018211B2000F02EFD44F62060FFF79CFF81
:102580001F211C2000F026FD44F62060FFF794FF79
:1025900021A000F0CBFA32E026A000F0C7FA80219B
:1025A0006B2000F017FD2848FFF786FF0021192057
:1025B00000F010FD03216B2000F00CFD2348FFF715
:1025C0007BFF03211A2000F005FD18211B2000F0DD
:1025D00001FD1F211C2000F0FDFC04211D2000F046
:1025E000F9FC1221372000F0F5FC0121382000F021
:1025F000F1FC17A000F09AFA01E0002010BD00BF26
:102600000120FBE70D0A204D505536303530202093
:10261000D5FDB3A3A3A100000D0A204D50553630BF
:1026200035302020B3F5CABCBBAFCDEAB3C9A3A1F6
:10263000000000000D0A204D505536303530412045
:1026400020D5FDB3A3A3A10080841E00400D03008C
:102650000D0A204D505536303530412020B3F5CA93
:10266000BCBBAFCDEAB3C9A3A100000008B50121EE
:10267000192000F0A3FA01211148FFF76DFD012197
:102680001048FFF769FD0820ADF8000003208DF821
:10269000020010208DF8030069460B48FFF7D0FCBC
:1026A0004FF40050ADF8000003208DF80200102018
:1026B0008DF8030069460548FFF7C2FC08BD00001D
:1026C0000004300000023000000C01400010014006
:1026D00000BFFEE7704700001CB5052210493020FE
:1026E00000F01EF905226946102000F0D1F8002400
:1026F00008E01DF804000A49095D884200D003E0A3
:10270000601CC4B2052CF4DB00BF052C03D105A06E
:1027100000F00CFA02E00AA000F008FA1CBD00006C
:10272000970000200D0A204E524632344C303120A2
:10273000B3F5CABCBBAFB3C9B9A6A3A100000000E2
:102740000D0A204E524632344C303120B3F5CABC0B
:10275000BBAFCAA7B0DCA3A10000000070B5072082
:1027600000F0B6F8044604F0400098B1602000F094
:10277000AFF80546202D08D12A460F49612000F008
:1027800087F800200D49088003E0FF21E22000F0D7
:10279000E5F800BF04F0100030B104F0010018B1FA
:1027A000FF21E12000F0DAF800F052F8214627205E
:1027B00000F0D4F870BD0000A8020020A2000020A4
:1027C00070B505460C4604201E490860FF21E12033
:1027D00000F0C4F8FF21E22000F0C0F805221A49F9
:1027E000302000F09DF8052218492A2000F098F8C2
:1027F0000121212000F0B2F80121222000F0AEF8E2
:102800001A21242000F0AAF82946252000F0A6F875
:102810002021312000F0A2F80F21262000F09EF8A0
:10282000012C04D10E21202000F098F805E0022CA4
:1028300003D10F21202000F091F804200149091F45
:10284000086070BD140C0140970000209C0000201F
:1028500010B50420054908600F21202000F07EF803
:1028600004200249091F086010BD0000140C01403B
:1028700010B50420054908600E21202000F06EF8F4
:1028800004200249091F086010BD0000140C01401B
:102890002DE9F04107460D46164610200B49086009
:1028A000384600F0DFFA8046002405E0002000F002
:1028B000D9FA2855601CC4B2B442F7DB1020034992
:1028C000091F08604046BDE8F0810000140801407F
:1028D00070B50446102007490860204600F0C2FA8F
:1028E000002000F0BFFA054610200249091F0860C9
:1028F000284670BD1408014070B504460D46FFF728
:10290000B7FF0420054908602A462146A02000F0B0
:1029100007F804200149091F086070BD140C01402C
:102920002DE9F04107460D46164610200A49086079
:10293000384600F097FA8046002404E0285D00F055
:1029400091FA601CC4B2B442F8DB10200249091F9E
:1029500008604046BDE8F0811408014070B50546A6
:102960000C46102007490860284600F07BFA06460E
:10297000204600F077FA10200249091F086030460F
:1029800070BD00001408014070B5002100230F2223
:10299000C47804B3154C246804F4E064C4F5E0641E
:1029A000210AC1F10403CA40447804FA03F184788F
:1029B0001440214309010E4C0678A155047804F017
:1029C0001F050124AC4005786D11AD0005F1E0252F
:1029D000C5F8004109E0047804F01F050124AC406B
:1029E000044D0678761145F8264070BD0CED00E0E8
:1029F00000E400E080E100E002490143024A116086
:102A0000704700000000FA050CED00E008B54FF437
:102A1000A060FFF7F1FF1D208DF8000000208DF869
:102A2000010001208DF802008DF803006846FFF7D1
:102A3000ABFF06208DF8000001208DF8010000207A
:102A40008DF8020001208DF803006846FFF79CFF17
:102A500025208DF8000002208DF8010000208DF85F
:102A6000020001208DF803006846FFF78DFF08BDC6
:102A700010B5154815490860154848604FF0824068
:102A80008860114813490860114848604FF082403F
:102A90008860114811490860002048604FF080406C
:102AA00088600D480E490860002048604FF0804063
:102AB00088604FF082400B4908600B48486088608E
:102AC000FEF7BEFF10BD0000CDCC9C405802002098
:102AD0000AD7A33C440200203333B33F80020020D6
:102AE0006C02002094020020CDCCCC3D7047000049
:102AF00010B504460A4801780078401C084A107056
:102B0000084844540848008800F0800030B9012289
:102B100040F2277104480C3800F0CCFC10BD0000D6
:102B200031000020DC0000200C38014070B5054663
:102B30002C4603E02078FFF7DBFF641C2078002898
:102B4000F8D170BD01460020034A506820F440408F
:102B500008435060704700000010024029B1064A47
:102B600052690243044B5A6104E0034A52698243AA
:102B7000014B5A61704700000010024029B1064A1B
:102B8000D2690243044BDA6104E0034AD26982430A
:102B9000014BDA61704700000010024029B1064A7B
:102BA00012690243044B1A6104E0034A126982432A
:102BB000014B1A61704700000010024029B1064A1B
:102BC00092690243044B9A6104E0034A926982438A
:102BD000014B9A61704700000010024029B1064A7B
:102BE000D2680243044BDA6004E0034AD2688243AD
:102BF000014BDA60704700000010024030B5002140
:102C00000022002400232D4D6D6805F00C0121B138
:102C1000042905D0082923D105E0294D056022E0CB
:102C2000284D05601FE0254D6D6805F47012234D99
:102C30006D6805F48034022505EB92421CB9224DE3
:102C4000554305600BE01D4D6D6805F400351DB161
:102C50001B4D5543056002E01A4D5543056002E0E7
:102C6000174D056000BF00BF144D6D6805F0F00101
:102C70000909164D6B5C0568DD4045600F4D6D68B8
:102C800005F4E061090A114D6B5C4568DD40856023
:102C90000A4D6D6805F46051C90A0C4D6B5C4568BE
:102CA000DD40C560054D6D6805F44041890B084D58
:102CB0006B5CC568B5FBF3F5056130BD00100240E3
:102CC00000127A000024F40000093D00A500002055
:102CD000B500002000B589B001211920FFF76EFF73
:102CE00001210803FFF76AFFE020ADF80C00012086
:102CF0008DF80E0018208DF80F0003A93348FFF758
:102D00009FF90420ADF80C0001208DF80E00102072
:102D10008DF80F0003A92E48FFF792F91020ADF8A7
:102D20000C0001208DF80E0010208DF80F0003A973
:102D30002648FFF785F90120ADF80C0003208DF837
:102D40000E0048208DF80F0003A92148FFF778F9FD
:102D500000210120FFF754F90120019000208DF897
:102D600008000C208DF8090001208DF80A0001A848
:102D7000FFF77CF810201549103108600020ADF8ED
:102D800010004FF48270ADF812000020ADF814006E
:102D9000ADF81600ADF818004815ADF81A0010206F
:102DA000ADF81C000020ADF81E000720ADF8200093
:102DB00004A9084800F038F80121064800F01AF884
:102DC00005A0FFF7B3FE09B000BD000000080140F8
:102DD000000C0140003001400D0A205350493120C1
:102DE00020202020B3F5CABCBBAFCDEAB3C9A3A154
:102DF0000000000021B1028842F04002028004E09D
:102E000002884FF6BF731A400280704702460020C6
:102E100013890B400BB1012000E0002070470146F0
:102E2000888970478181704710B50022028802F4BA
:102E300041520B884C8823438C882343CC882343FE
:102E40000C8923434C8923438C892343CC89234316
:102E50001A430280838B4FF2FF74234083830B8AD3
:102E6000038210BD10B5044600BF02210A48FFF7D7
:102E7000CDFF0028F9D021460748FFF7D3FF00BF58
:102E800001210548FFF7C2FF0028F9D00248FFF7EB
:102E9000C6FFC0B210BD000000300140704710B541
:102EA00000F002F810BD00000CB500200190009069
:102EB0003348006840F480303149086000BF304832
:102EC000006800F4003000900198401C01900098C8
:102ED00018B90198B0F5A06FF1D12948006800F445
:102EE000003010B10120009001E000200090009817
:102EF000012843D12348006840F0100021490860B0
:102F00000846006820F0030008600846006840F0AA
:102F1000020008601A48406819494860084640683D
:102F200048600846406840F4806048600846406851
:102F300020F47C1048600846406840F4F81048606F
:102F40000846006840F08070086000BF0C480068C8
:102F500000F000700028F9D00948406820F0030014
:102F6000074948600846406840F00200486000BFDA
:102F70000348406800F00C000828F9D10CBD00009F
:102F8000001002400020024070B50446FFF7CAF965
:102F900008B9002070BDD020FFF756FAFFF722FADB
:102FA00018B9FFF7FDF90020F4E72046FFF74CFAC7
:102FB000FFF718FAFFF7B6F9D120FFF745FAFFF748
:102FC00011FAFFF779F90546FFF754F9FFF7E8F929
:102FD0002846DFE770B505460C46FFF7A3F908B9A8
:102FE000002070BDD020FFF72FFAFFF7FBF918B9CA
:102FF000FFF7D6F90020F4E72846FFF725FAFFF798
:10300000F1F92046FFF720FAFFF7ECF9FFF7C8F9CE
:103010000120E6E710B51348006840F001001149AF
:10302000086008464068104908400E494860084654
:1030300000680E4908400B4908600846006820F403
:10304000802008600846406820F4FE0048604FF485
:103050001F008860FFF723FF4FF0006004490860FD
:1030600010BD0000001002400000FFF8FFFFF6FE58
:1030700008ED00E01148008800F00100D8B14FF6DB
:10308000FE700E4908800E48007800B970470D4860
:103090000068401C0B4908600B480078401C0A4936
:1030A00008700A480078401C0849087008480078F1
:1030B000401C0749087000BFE8E70000100400400A
:1030C000280000203400002004000020050000201B
:1030D00006000020CA430282704721B1028842F0F4
:1030E0000102028004E002884FF6FE731A4002805B
:1030F0007047000010B504466848844208D1012199
:10310000C014FFF76BFD0021E014FFF767FDC4E07A
:10311000B4F1804F08D101210846FFF73FFD00219F
:103120000120FFF73BFDB8E05D48844208D1012152
:103130000220FFF733FD00210220FFF72FFDACE056
:103140005848844208D101210420FFF727FD0021BF
:103150000420FFF723FDA0E05348844208D1012159
:103160000820FFF71BFD00210820FFF717FD94E062
:103170004E48844208D101211020FFF70FFD0021A5
:103180001020FFF70BFD88E04948844208D1012157
:103190002020FFF703FD00212020FFF7FFFC7CE04B
:1031A0004448844208D101214014FFF717FD002153
:1031B0006014FFF713FD70E03F48844209D10121FC
:1031C000C804FFF70BFD00214FF40020FFF706FDB8
:1031D00063E03A48844209D101210805FFF7FEFC6B
:1031E00000214FF48010FFF7F9FC56E03448844288
:1031F00009D101214805FFF7F1FC00214FF400102F
:10320000FFF7ECFC49E02F48844208D1012140201F
:10321000FFF7C4FC00214020FFF7C0FC3DE02A4836
:10322000844208D101218020FFF7B8FC00218020D2
:10323000FFF7B4FC31E02548844208D10121801514
:10324000FFF7ACFC0021A015FFF7A8FC25E0204803
:10325000844209D101210804FFF7C0FC00214FF48A
:103260008030FFF7BBFC18E01A48844209D10121E5
:103270004804FFF7B3FC00214FF40030FFF7AEFC29
:103280000BE01548844208D101218804FFF7A6FC11
:1032900000214FF48020FFF7A1FC10BD002C01405D
:1032A0000004004000080040000C004000100040F6
:1032B0000014004000340140004C01400050014027
:1032C0000054014000180040001C00400020004055
:1032D0000040014000440140004801401AB1838988
:1032E0000B43838102E083898B4383817047000015
:1032F000002202881D4B98420ED01D4B98420BD0E5
:10330000B0F1804F08D01B4B984205D01A4B984221
:1033100002D01A4B984204D14FF68F731A404B8853
:103320001A43174B984207D0164B984204D04FF6D9
:10333000FF431A40CB881A4302808B8883850B8811
:1033400003850A4B98420BD0094B984208D00E4B8C
:10335000984205D00D4B984202D00D4B984201D1B6
:103360000B7A03860123838270470000002C014002
:10337000003401400004004000080040000C004000
:103380000010004000140040004001400044014093
:10339000004801403EB5044601210220FFF7EEFB44
:1033A000124804801248FFF7A5FE124890FBF4F083
:1033B00080B2ADF804004720ADF800000020ADF861
:1033C0000600ADF8020069460948FFF791FF0121A8
:1033D0000748FFF77FFE012211460548FFF77EFFF1
:1033E00001210348FFF779FE3EBD000038000020B0
:1033F0000004004040420F0008B50821184800F0C2
:103400004CF810B1164800F0E7F81548008800F0B5
:103410004000C0B1134801780078401C114A107078
:103420001148405C0E49091D0880104600780F497C
:103430000978884207D10A480C30008820F08000C3
:1034400007490C3108800648008800F0200028B1A8
:103450000348001D008840B2009000BF08BD000076
:103460000038014030000020DC0000203100002046
:1034700001F40072B2F5007F00D100BFCA430280A0
:10348000704721B1828942F40052828104E082892E
:103490004DF6FF731A408281704702460020B1F555
:1034A000007F00D100BF13880B400BB1012000E06A
:1034B00000207047F0B503460024002600250020B8
:1034C00040F66A17B94200D100BF1846C1F3421452
:1034D00001F01F06012707FA06F5012C01D10C3077
:1034E00004E0022C01D1103000E014301AB107685A
:1034F0002F43076002E00768AF430760F0BD00009C
:103500002DE9F04786B005460E460024A24600BFCE
:10351000A1460027B08900B100BF2F462C8A4CF687
:10352000FF700440F08804432C82AC894EF6F310FF
:103530000440B08831890843718908430443AC8151
:10354000AC8A4FF6FF400440B0890443AC8201A826
:10355000FFF754FB1F48874202D1DDF810A001E0BD
:10356000DDF80CA0A88900F4004040B10AEBCA00C5
:1035700000EB0A1031684900B0FBF1F807E00AEBF4
:10358000CA0000EB0A1031688900B0FBF1F8642032
:10359000B8FBF0F004012009642101FB1089A8891F
:1035A00000F4004040B1322000EBC900B0FBF1F064
:1035B00000F00700044308E0322000EB091064210A
:1035C000B0FBF1F000F00F0004432C8106B0BDE821
:1035D000F08700000038014001468888C0F30800E9
:1035E0007047000010B586B0044601210520FFF7A2
:1035F000E5FA01218803FFF7E1FA4FF40070ADF816
:10360000140018208DF8170003208DF8160005A966
:103610001848FEF715FD4FF48060ADF81400042043
:103620008DF8170003208DF8160005A91148FEF744
:1036300007FD01940020ADF80800ADF80A00ADF8D0
:103640000C00ADF810000C20ADF80E0001A90A48DE
:10365000FFF756FF012240F225510748FFF72AFFE6
:1036600001210548FFF70DFF40210348FFF700FF48
:1036700006B010BD000801400038014000BFFEE761
:10368000490050EAC12018BF04204A0D18BF40F07D
:10369000010040F2FF72B2EB515F08BF40F0020040
:1036A000012808BF052070472DE9F0474FF0060AB2
:1036B000062600250027A8464FF0FF397448B0F8C9
:1036C00000A0744806885FEA0A0075D0A0F56E4035
:1036D000EE3858B3A0F58850113800286DD146B99E
:1036E0006B48FEF70DFC0446042C1ED02046BDE8B6
:1036F000F0874EF6EE60864210D16548FEF700FC7A
:103700000446042C01D02046F1E700216148FEF771
:1037100037FC0446042C08D02046E8E7FEF75AFAA6
:103720000446042C01D02046E1E7AEE07EBB002534
:1037300022E05748C088584931F81510884201D115
:103740000FFA85F94D4515D0534931F81500534905
:10375000FEF7E0FA8046B8F1010F0BD04E4931F880
:1037600015004E490988FEF705FB0746042F01D0D6
:103770003846BCE7681C85B2102DDADB00214448CE
:10378000FEF7FEFB0446042C02D02046AFE707E01C
:103790004048FEF7B5FB0446042C1FD02046A6E7A0
:1037A0004FF6FF70864212D13A48FEF7A9FB044655
:1037B000042C03D020469AE711E05EE00021344853
:1037C000FEF7DEFB0446042C08D020468FE7FEF708
:1037D00001FA0446042C01D0204688E755E036B9AA
:1037E000FEF7F8F90446042C46D020467FE74FF652
:1037F000FF70864207D12748FEF782FB0446042C5F
:103800003AD0204673E7002523E02248801D008837
:10381000214931F81510884201D10FFA85F94D453B
:1038200015D01D4931F815001C49FEF773FA804682
:10383000B8F1010F0BD0184931F815001749098864
:10384000FEF798FA0746042F01D038464FE7681C68
:1038500085B2102DD9DB00210E48FEF791FB0446FE
:10386000042C01D0204642E70948FEF749FB0446F4
:10387000042C01D020463AE707E0FEF7ABF90446F6
:10388000042C01D0204632E700BF00BF04202EE701
:1038900000000108000401086E0000203C00002028
:1038A00080F31088704730380A2801D20120704711
:1038B00000207047002109E0002201E0531C9AB269
:1038C00042F2B8239A42F9DB4B1C99B28142F3DBF6
:1038D0007047FDF72DFE05E0FDF76AFE4FF4FA7024
:1038E000FFF7E8FFF8E7000010B500290AD00878D4
:1038F000002807D005487844FDF778F8002801D063
:10390000002010BD0248784410BD0000A20B00004A
:103910009A0B000021F00042A2F16052B2F5801F24
:1039200001F0004328BFD2F17F6C0BD95FEA001C85
:1039300043EAC20242EB507018BF704728BF20F024
:1039400001007047B2F5801FBCBF184670474FEAB0
:10395000410C1CF5001F02D2084600F0BEBC70B539
:1039600000F020FA00000089FFF7F6BF4FF000409A
:10397000A0F58000704700002DE9C04130B4DFF8A9
:10398000A0C23CEA111418BF3CEA131400F0EC800A
:1039900081EA03051CEA111444EAD57418BF1CEA35
:1039A000131500F0C780A4EB05044FF0004545EA6D
:1039B000C12145EAC32341EA505143EA525304F17D
:1039C0007F74994204F500344FEAC0204FEAC222C6
:1039D00008BF904200F09C804FEA13650FF240163A
:1039E000765D4FEA134506FB05F7C7F1807706FBC6
:1039F00007F74FEAD737A7FB03687642C8F5803848
:103A0000A7FB06CE38BFA8F1010807FB08E64FF078
:103A1000000EA6FB028CE6FB03CEDCF1000CCEF11F
:103A2000004E38BFAEF1010EA6FB0C584FF0000758
:103A30004FF00005E6FB0E87A1FB08C6A0FB07CEF2
:103A400016EB0E0645F10005E1FB076515F1E04EAA
:103A50007EBFA4F580345FEA46066D4116F180070B
:103A600045F100054FEA17274FEA066647EA056762
:103A7000A6F1DE46B6F1805F4FEA15251FD938461C
:103A800024F0010C05EBC471BCF1FE6F01EB0C11CD
:103A900002D8F0BCBDE8008124425CBF01F5801E65
:103AA0009EEAC47F02D4F0BCBDE80081244238D431
:103AB000F0BCA1F1C041BDE8004100F0C1B94FEA3E
:103AC000D22242EA43524FEAD323A7FB02864FEAAF
:103AD000D02040EA415007FB03661EEA0E0F4FEA72
:103AE000D12105FB026658BFA6EB0056B6EB005687
:103AF0004FEA520E4EEAC37E18EB0E0E56EB530EF3
:103B0000BDD518EB02085E417F1C55F10005B6E7F4
:103B10004FF480154FF000074FF000064FF00008FB
:103B2000ADE7F0BC4FF0000001F1C04101F00041F1
:103B3000BDE8008111EA0C1F0CEA131500D00CE05F
:103B400013EA0C1F00F025804FF00000F0BC81EA62
:103B5000030101F00041BDE80081F0BCBDE8004177
:103B600081EA030100F06CB9F0BCBDE8004170B51A
:103B700000F018F9097EFC3E00F007B881EA030165
:103B80004FF0000001F00041704781EA030100F0AE
:103B900057B9F0BCBDE800414FF000002149704723
:103BA000FFFDFBF9F7F5F4F2F0EEEDEBE9E8E6E402
:103BB000E3E1E0DEDDDBDAD8D7D5D4D3D1D0CFCD89
:103BC000CCCBCAC8C7C6C5C4C2C1C0BFBEBDBCBBC2
:103BD000BAB9B8B7B6B5B4B3B2B1B0AFAEADACABBD
:103BE000AAA9A8A8A7A6A5A4A3A3A2A1A09F9F9E97
:103BF0009D9C9C9B9A999998979796959594939349
:103C0000929191908F8F8E8E8D8C8C8B8B8A8989DF
:103C10008888878786858584848383828281818062
:103C20000000FF070000F87FB0FA80F310FA03F1FC
:103C30000AD0C3F11D0303F580634FEA41504FEAF8
:103C4000035202EBD12170474FF000007047000093
:103C5000DFF848C170B51CEA111E1EBF1CEA13151F
:103C60009EEA0C0F95EA0C0F00F06F8081EA0304C6
:103C700023EA4C134EEAD47E21EA4C1141F4801120
:103C800043F48013AE44A1FB024CA0FB0365AEF1EC
:103C90007F7E361955EB0C05A1FB034C4CF100035C
:103CA000A0FB021C16EB0C06654153F10003094210
:103CB00018BF46F0010613F4007F0BD14FEA033121
:103CC0004FEA0530340341EA155140EA16506FF0CF
:103CD00003020AE04FEAC3214FEAC520F40241EA99
:103CE000555140EA56506FF0020202EB2E4201EBB2
:103CF000025585EACE710AD05FEA440C18BF24F061
:103D0000004450F1000041F1000120EAD47040F27B
:103D1000FE7C624500D270BDA84214BF4FF08044C3
:103D20004FF04044002E08BF0024BEF1806FA8BFB2
:103D3000A1F1C041BDE8704080F282804FF00000E8
:103D400001F1C04101F0004170479EEA0C0F0CEAFE
:103D5000131518BF95EA0C0F06D04FF0000081EA4A
:103D6000030E0EF0004170BD00F01CF88900013E0A
:103D700000F007B800F009B84FEA430C5FEA5C5C5A
:103D800008D081EA030100F05BB84FEA410C5FEA1A
:103D90005C5CF6D14FF00000014970470000FF075E
:103DA0000000F87F0EF1020E2EF0030E5EF8046B99
:103DB000364205D4012A43EB030515F5001F12D83E
:103DC000012841EB010C1CF5001F0CD80ED14FEA65
:103DD000D17C15F5001F0CEB4C0C0CF1020C08BF4C
:103DE0004CEBD37C04E04FF0080C01E04FEAD37CAD
:103DF0000CEB4C0526FA05F606F00706B6F1040CA6
:103E000006D20EEB860CBDE870404CF0010C60470A
:103E1000DFE80CF0090B02024FF000414FF0000008
:103E2000A1F5002170BD19461046012851EB01048F
:103E300018BFD4F5001484BF002001F0004170BD0C
:103E40000808A0F500114FEA3101704743004FEA1E
:103E5000D30C4FEA3C0C43401FBF40070CF16051AC
:103E600013F0FE4F70471CF0006F03D100200CF0E0
:103E7000004170470CF0004343EA507010B540EA2F
:103E8000CC0000F0E4F900BF000000924FEA00010E
:103E9000FFF7D6BF4FF000414FF00000A1F5002121
:103EA0007047000090EA010F48BF81F0004100F127
:103EB0002082421A3CBF801A89184FEAD0524FF034
:103EC0007F4C1CEA410FA2EBD15318BF9CEA026F52
:103ED00000F03B804FF0004C4CEA00204CEA0121FE
:103EE00021FA03FC10EB0C0C1ED202F1FF325FEA48
:103EF0001C2040EBC25038BF70471CF07F0F4FEAC8
:103F0000400C18BFBCF17F4F38BF7047C3F120038E
:103F1000994008BF20F00100BCF17F4F38BF7047C7
:103F2000A0F1C04000F0D9B94FEA3C00000A40EBD4
:103F3000C25028BF1CF0FF0F4FEA400CE6D018BF5C
:103F4000BCF17F4F38BF7047EAE79CEA026F05D0AB
:103F500010EA5C0F08BF00F00040704710B500F099
:103F600076F900BF64FBBE3E4FF47F0C1CEAD01212
:103F70001EBF1CEAD11392EA0C0F93EA0C0F00F05B
:103F8000858090EA010F48BF42F4807240F4000C33
:103F900041F400002CF07F4120F07F4000B58142C9
:103FA000A2EB03020FF2081CACEB504EC0F1000074
:103FB0009EF800E04FEA4E0E00FB0EFC38BF4900B1
:103FC0004FEA2C1C02F5FA020CFB0EF34FEACE1E50
:103FD0004FEA112C4FEAC1210EEB635E42EB224205
:103FE0000EFB0CFC4FEA1C5300FB03114FEA112C93
:103FF0004FEA01310EFB0CFC4FEADC4C00FB0C11CC
:10400000C14228BF09184CEB03335DF804EB10EBF9
:10401000410143EBC250B2F57C0F38BF704729D540
:1040200012F0F00F1CBF00F1C04000F000407047DC
:10403000008182838485868788898B8C8D8E8F9181
:104040009293959697999A9C9D9FA0A2A3A5A7A8A5
:10405000AAACAEB0B2B3B5B7B9BCBEC0C2C5C7C9D1
:10406000CCCED1D4D7D9DCDFE2E6E9ECF0F3F7FA35
:10407000FE0000004FEA400C0CF1807CBCF17E4F4A
:1040800028BF7047B0F1C04000F027B990EA010F97
:104090000CEAD11348BF42F48072624538BF6345D1
:1040A00007D213F47F0F16D080EA010000F0004021
:1040B000704710B500F0CBF8097EFC3E00F005B863
:1040C00080EA010000F00040704780EA010000F043
:1040D000004000F002B912F47F0F04BF024870479D
:1040E00080EA010000F0F9B80000C07F41000B0E2B
:1040F000D3F19E0208D950F400034FEA032323FAB8
:1041000002F048BF4042704710B500F0A0F800BF71
:1041100049922480002070476FF0004282EA20001C
:1041200070470000B0FA80F310FA03F2C3F19D0368
:104130000AD0D90501EB1220530638BF704700F1B1
:10414000010008BF20F00100704700004FF47F0C11
:104150001CEAD0121EBF1CEAD11392EA0C0F93EA9C
:104160000C0F00F0478090EA010F48BF42F48072C4
:104170004FF0004C4CEA00204CEA012102EB030214
:10418000A0FB0113A2F50002002918BF43F00103B0
:104190005B0028BF4FEA330342EB22425FEA132C55
:1041A0004CEBC2502EBFBCEB436FB2F57C0F704797
:1041B0004FEA036CBCF1004F08BF20F00100B2F5DC
:1041C0007C0F38BF70470BD582F0FF0212F5803F9D
:1041D000C8BF704700F1C040D8BF00F00040704732
:1041E00000F5000C5FEA4C0C48BF7047B0F1C040CE
:1041F00000F073B890EA010F0CEAD11348BF42F403
:104200008072624538BF634504D280EA010000F045
:104210000040704710B500F01AF800BF8900013E59
:1042200000F007B800F009B85FEA410C5FEA1C6CC7
:1042300008D080EA010000F050B85FEA400C5FEA65
:104240001C6CF6D14FF00040A0F5800070470EF1D5
:10425000020E2EF0030E5EF8044B244204D44FEA03
:104260004102B2F17F4F11D84FEA4003B3F17F4FC3
:104270000CD80ED14FEAD07CB2F17F4F0CEB4C0C36
:104280000CF1020C08BF4CEBD17C04E04FF0080CA1
:1042900001E04FEAD17C0CEB4C0324FA03F404F068
:1042A0000704B4F1040C06D20EEB840CBDE81040F8
:1042B0004CF0010C6047DFE80CF0070802024FF0F9
:1042C0000040A0F5800010BD0846420018BFD2F1A2
:1042D000807288BF00F0004010BDFF2141EAD0503D
:1042E000C005704790EA010F48BF81F000413FF5DB
:1042F000E0AD421A04D882F00042A0EB0200114463
:104300004FEAD0524FF07F4C1CEA410FA2EBD15341
:1043100018BF9CEA026F4AD04FF0004C4CEA0020D4
:104320004CEA012121FA03FCB0EB0C0C0FD412F083
:10433000FE0F36D05FEA4C001DD5001240EBC25094
:1043400038BF70471CF03F0F18BF70470BE0A2F159
:1043500001025FEA1C2040EBC25038BF70471CF0DE
:104360007F0F18BF7047C3F12003994014BF401E50
:1043700020F00100704780084FEA122308BF704701
:10438000B0FA80FCA2EB0C02CCF1280C60FA0CF025
:1043900093EA122F04BF00EBC25070474FEAC3707C
:1043A0007047130A5FEADC1008BF7047F6E79CEA23
:1043B000026F04D010EA5C0F08BF0020704710B5F0
:1043C000FFF745FF40DFF63E81F000407047FCF705
:1043D00091B8040000080000000000000002000185
:1043E0000000100002400000000000A000000000DB
:1043F00005400000000000C8000000000C40000064
:104400000000409C00000000194000000020BCBEDD
:104410000000000034400000BFC91B8E00000004F3
:10442000B5400000504BCFD06607E2CF010000003E
:104430006C4100003E8251AADFEEA734010000006B
:10444000D9420000DCB5A0E23A301F97FFFFFFFF22
:10445000B4450000FD25A0C8E9A3C14FFFFFFFFF41
:10446000FF3F00000000008000000000FF3F000050
:104470000000008000000000B4440008000000209C
:10448000BC0000002801000870450008BC000020A6
:104490008C080000440100081C00000043000000DC
:1044A000F8FFFFFF0C0000000E0000000F000000EE
:1044B0002E000000000000000000000000000000CE
:1044C00000000000000000000000000000000000EC
:1044D00000000000000000000000000000000000DC
:1044E00000000000000000000000000000000000CC
:1044F00000000000000000000000000000000000BC
:1045000000000000000000000000000000000000AB
:10451000000000000000000000000000000000009B
:104520000000009A019A029A039A049A059A069A40
:10453000079A089A099A109A129A139A149A159A35
:1045400000000000000000000000001A3B5C7D9E9F
:104550001A3B5C7D9E000000000000000001020389
:10456000040102030406070809020406080000000B
:04000005080000ED02
:00000001FF
